{
  "transactions": [
    {
      "hash": "0x58a8bcb5d95ba8e2b213b537b456ed4047a9f8560b0fdb8f7983df2b9d938fb8",
      "transactionType": "CALL",
      "contractName": null,
      "contractAddress": "0xad6f2f39b82d9e3a2c516a34349e1db7175e5214",
      "function": "applyChainUpdates(uint64[],(uint64,bytes[],bytes,(bool,uint128,uint128),(bool,uint128,uint128))[])",
      "arguments": [
        "[]",
        "[(3734403246176062136, [0x000000000000000000000000132b7ed2ed014d37ba9ad96ad3d72cc3f0c75917], 0x000000000000000000000000a3c8461375527bda3180265a80be2e4090471b7a, (false, 0, 0), (false, 0, 0))]"
      ],
      "transaction": {
        "from": "0x94aba23b9bbfe7bb62a9eb8b1215d72b5f6f33a1",
        "to": "0xad6f2f39b82d9e3a2c516a34349e1db7175e5214",
        "gas": "0x6a300",
        "value": "0x0",
        "input": "0xe8a1da170000000000000000000000000000000000000000000000000000000000000040000000000000000000000000000000000000000000000000000000000000006000000000000000000000000000000000000000000000000000000000000000000000000000000000000000000000000000000000000000000000000000000001000000000000000000000000000000000000000000000000000000000000002000000000000000000000000000000000000000000000000033d343f77863cab8000000000000000000000000000000000000000000000000000000000000012000000000000000000000000000000000000000000000000000000000000001a0000000000000000000000000000000000000000000000000000000000000000000000000000000000000000000000000000000000000000000000000000000000000000000000000000000000000000000000000000000000000000000000000000000000000000000000000000000000000000000000000000000000000000000000000000000000000000000000000000000000000000000000000000000000000000000000000000000000000000000000000000000000000000000000000000000000000000000000000000000000000000000000000000000000000000100000000000000000000000000000000000000000000000000000000000000200000000000000000000000000000000000000000000000000000000000000020000000000000000000000000132b7ed2ed014d37ba9ad96ad3d72cc3f0c759170000000000000000000000000000000000000000000000000000000000000020000000000000000000000000a3c8461375527bda3180265a80be2e4090471b7a",
        "nonce": "0x120",
        "chainId": "0x2105"
      },
      "additionalContracts": [],
      "isFixedGasLimit": false
    }
  ],
  "receipts": [
    {
      "status": "0x1",
      "cumulativeGasUsed": "0x2832a10",
      "logs": [
        {
          "address": "0xad6f2f39b82d9e3a2c516a34349e1db7175e5214",
          "topics": [
            "0x7d628c9a1796743d365ab521a8b2a4686e419b3269919dc9145ea2ce853b54ea",
            "0x00000000000000000000000000000000000000000000000033d343f77863cab8"
          ],
          "data": "0x00000000000000000000000000000000000000000000000000000000000000200000000000000000000000000000000000000000000000000000000000000020000000000000000000000000132b7ed2ed014d37ba9ad96ad3d72cc3f0c75917",
          "blockHash": "0xdfd7613415030f9d8b201de4ae97d704db60fb160ef1dd316fdfb070d08bb152",
          "blockNumber": "0x19e7fc4",
          "transactionHash": "0x58a8bcb5d95ba8e2b213b537b456ed4047a9f8560b0fdb8f7983df2b9d938fb8",
          "transactionIndex": "0x79",
          "logIndex": "0x23f",
          "removed": false
        },
        {
          "address": "0xad6f2f39b82d9e3a2c516a34349e1db7175e5214",
          "topics": [
            "0x8d340f17e19058004c20453540862a9c62778504476f6756755cb33bcd6c38c2"
          ],
          "data": "0x00000000000000000000000000000000000000000000000033d343f77863cab800000000000000000000000000000000000000000000000000000000000001000000000000000000000000000000000000000000000000000000000000000000000000000000000000000000000000000000000000000000000000000000000000000000000000000000000000000000000000000000000000000000000000000000000000000000000000000000000000000000000000000000000000000000000000000000000000000000000000000000000000000000000000000000000000000000000000000000000000000000000000000000000000000000000000000000000000000000000000000000000000000000000000000000000000000020000000000000000000000000a3c8461375527bda3180265a80be2e4090471b7a",
          "blockHash": "0xdfd7613415030f9d8b201de4ae97d704db60fb160ef1dd316fdfb070d08bb152",
          "blockNumber": "0x19e7fc4",
          "transactionHash": "0x58a8bcb5d95ba8e2b213b537b456ed4047a9f8560b0fdb8f7983df2b9d938fb8",
          "transactionIndex": "0x79",
          "logIndex": "0x240",
          "removed": false
        }
      ],
      "logsBloom": "0x00000000000000400000000000000000000000000000000002000000000000000000000000000000000000000000000000000000000000000004000000000004000000000000000000000000000000000000000000000000000000000000000000000000000000000000000000000000000000000000000000000100000000400000000000000000000004000000000000000000000000000000000000000000000000000000000000000000000000000100000000000000000000000000000000000000000000000000000000000000000000000000000000000000100000000000000000000000000000000000000000000200008000000100000000000000",
      "type": "0x2",
      "transactionHash": "0x58a8bcb5d95ba8e2b213b537b456ed4047a9f8560b0fdb8f7983df2b9d938fb8",
      "transactionIndex": "0x79",
      "blockHash": "0xdfd7613415030f9d8b201de4ae97d704db60fb160ef1dd316fdfb070d08bb152",
      "blockNumber": "0x19e7fc4",
      "gasUsed": "0x4ce0d",
      "effectiveGasPrice": "0x2dc6c8",
      "from": "0x94aba23b9bbfe7bb62a9eb8b1215d72b5f6f33a1",
      "to": "0xad6f2f39b82d9e3a2c516a34349e1db7175e5214",
      "contractAddress": null,
      "l1BaseFeeScalar": "0x8dd",
      "l1BlobBaseFee": "0xb171670",
      "l1BlobBaseFeeScalar": "0x101c12",
      "l1Fee": "0x88bfdce1d",
      "l1GasPrice": "0x46ff56d9",
      "l1GasUsed": "0x992"
    }
  ],
  "libraries": [],
  "pending": [],
  "returns": {},
  "timestamp": 1741118534,
  "chain": 8453,
  "commit": "783800d"
}