{
  "transactions": [
    {
      "hash": "0xdf1a6e9ed0419775ae561ebf2b4164f308fdb3b3f2a2d37c3081b599af2fba8a",
      "transactionType": "CALL",
      "contractName": null,
      "contractAddress": "0xa3c8461375527bda3180265a80be2e4090471b7a",
      "function": "approve(address,uint256)",
      "arguments": [
        "0x3206695CaE29952f4b0c22a169725a865bc8Ce0f",
        "30000000"
      ],
      "transaction": {
        "from": "0x94aba23b9bbfe7bb62a9eb8b1215d72b5f6f33a1",
        "to": "0xa3c8461375527bda3180265a80be2e4090471b7a",
        "gas": "0x10c6c",
        "value": "0x0",
        "input": "0x095ea7b30000000000000000000000003206695cae29952f4b0c22a169725a865bc8ce0f0000000000000000000000000000000000000000000000000000000001c9c380",
        "nonce": "0x9c",
        "chainId": "0xa"
      },
      "additionalContracts": [],
      "isFixedGasLimit": false
    },
    {
      "hash": "0xb08e5532acc8412f7b03fbc77e6e76dc49d9f762f2681c2fb797209ffe4341ba",
      "transactionType": "CALL",
      "contractName": null,
      "contractAddress": "0x3206695cae29952f4b0c22a169725a865bc8ce0f",
      "function": "ccipSend(uint64,(bytes,bytes,(address,uint256)[],address,bytes))",
      "arguments": [
        "15971525489660198786",
        "(0x00000000000000000000000094aba23b9bbfe7bb62a9eb8b1215d72b5f6f33a1, 0x, [(0xA3c8461375527BDa3180265A80BE2E4090471b7A, 30000000)], 0x0000000000000000000000000000000000000000, 0x97a657c90000000000000000000000000000000000000000000000000000000000000000)"
      ],
      "transaction": {
        "from": "0x94aba23b9bbfe7bb62a9eb8b1215d72b5f6f33a1",
        "to": "0x3206695cae29952f4b0c22a169725a865bc8ce0f",
        "gas": "0x44db1",
        "value": "0x6d1a40891c9d",
        "input": "0x96f4e9f9000000000000000000000000000000000000000000000000dda641cfe44aff82000000000000000000000000000000000000000000000000000000000000004000000000000000000000000000000000000000000000000000000000000000a000000000000000000000000000000000000000000000000000000000000000e0000000000000000000000000000000000000000000000000000000000000010000000000000000000000000000000000000000000000000000000000000000000000000000000000000000000000000000000000000000000000000000000160000000000000000000000000000000000000000000000000000000000000002000000000000000000000000094aba23b9bbfe7bb62a9eb8b1215d72b5f6f33a100000000000000000000000000000000000000000000000000000000000000000000000000000000000000000000000000000000000000000000000000000001000000000000000000000000a3c8461375527bda3180265a80be2e4090471b7a0000000000000000000000000000000000000000000000000000000001c9c380000000000000000000000000000000000000000000000000000000000000002497a657c9000000000000000000000000000000000000000000000000000000000000000000000000000000000000000000000000000000000000000000000000",
        "nonce": "0x9d",
        "chainId": "0xa"
      },
      "additionalContracts": [],
      "isFixedGasLimit": false
    }
  ],
  "receipts": [
    {
      "status": "0x1",
      "cumulativeGasUsed": "0x3c5307",
      "logs": [
        {
          "address": "0xa3c8461375527bda3180265a80be2e4090471b7a",
          "topics": [
            "0x8c5be1e5ebec7d5bd14f71427d1e84f3dd0314c0f7b2291e5b200ac8c7c3b925",
            "0x00000000000000000000000094aba23b9bbfe7bb62a9eb8b1215d72b5f6f33a1",
            "0x0000000000000000000000003206695cae29952f4b0c22a169725a865bc8ce0f"
          ],
          "data": "0x0000000000000000000000000000000000000000000000000000000001c9c380",
          "blockHash": "0xf12bb80f661554b2208075fb2e11f9488ff291e28bbb6362e473f33f4f821e3a",
          "blockNumber": "0x7e9d4f3",
          "transactionHash": "0xdf1a6e9ed0419775ae561ebf2b4164f308fdb3b3f2a2d37c3081b599af2fba8a",
          "transactionIndex": "0xc",
          "logIndex": "0xa",
          "removed": false
        }
      ],
      "logsBloom": "0x00000000000000000000000000000000000000400000000000000000000000000000000000000000000000000000000000000000000000000000000000200000000000080002000000000000000000000000080000000000000000000000000000001000000000000000000000000000000000000000000000000000000000001000000000000000000000000000000000000000000000000000000000000000020000000000000000000000000000000000000000000000000000000000000000000000000000000000000000000000000000000000000000000000000000000010000400000000001100000000000000000000000000000000000000000000",
      "type": "0x2",
      "transactionHash": "0xdf1a6e9ed0419775ae561ebf2b4164f308fdb3b3f2a2d37c3081b599af2fba8a",
      "transactionIndex": "0xc",
      "blockHash": "0xf12bb80f661554b2208075fb2e11f9488ff291e28bbb6362e473f33f4f821e3a",
      "blockNumber": "0x7e9d4f3",
      "gasUsed": "0xb78a",
      "effectiveGasPrice": "0x1765",
      "from": "0x94aba23b9bbfe7bb62a9eb8b1215d72b5f6f33a1",
      "to": "0xa3c8461375527bda3180265a80be2e4090471b7a",
      "contractAddress": null,
      "l1BaseFeeScalar": "0x146b",
      "l1BlobBaseFee": "0xd7ee15f",
      "l1BlobBaseFeeScalar": "0xf79c5",
      "l1Fee": "0x6a7945a9a",
      "l1GasPrice": "0x280969ea",
      "l1GasUsed": "0x640"
    },
    {
      "status": "0x1",
      "cumulativeGasUsed": "0x3f70a3",
      "logs": [
        {
          "address": "0x4200000000000000000000000000000000000006",
          "topics": [
            "0xe1fffcc4923d04b559f4d29a8bfc6cda04eb5b0d3c460751c2402c5c5cc9109c",
            "0x0000000000000000000000003206695cae29952f4b0c22a169725a865bc8ce0f"
          ],
          "data": "0x00000000000000000000000000000000000000000000000000006d1a40891c9d",
          "blockHash": "0xf12bb80f661554b2208075fb2e11f9488ff291e28bbb6362e473f33f4f821e3a",
          "blockNumber": "0x7e9d4f3",
          "transactionHash": "0xb08e5532acc8412f7b03fbc77e6e76dc49d9f762f2681c2fb797209ffe4341ba",
          "transactionIndex": "0xd",
          "logIndex": "0xb",
          "removed": false
        },
        {
          "address": "0x4200000000000000000000000000000000000006",
          "topics": [
            "0xddf252ad1be2c89b69c2b068fc378daa952ba7f163c4a11628f55a4df523b3ef",
            "0x0000000000000000000000003206695cae29952f4b0c22a169725a865bc8ce0f",
            "0x000000000000000000000000fe11cfc957cca331192eac60040b442303cca0a9"
          ],
          "data": "0x00000000000000000000000000000000000000000000000000006d1a40891c9d",
          "blockHash": "0xf12bb80f661554b2208075fb2e11f9488ff291e28bbb6362e473f33f4f821e3a",
          "blockNumber": "0x7e9d4f3",
          "transactionHash": "0xb08e5532acc8412f7b03fbc77e6e76dc49d9f762f2681c2fb797209ffe4341ba",
          "transactionIndex": "0xd",
          "logIndex": "0xc",
          "removed": false
        },
        {
          "address": "0xa3c8461375527bda3180265a80be2e4090471b7a",
          "topics": [
            "0x8c5be1e5ebec7d5bd14f71427d1e84f3dd0314c0f7b2291e5b200ac8c7c3b925",
            "0x00000000000000000000000094aba23b9bbfe7bb62a9eb8b1215d72b5f6f33a1",
            "0x0000000000000000000000003206695cae29952f4b0c22a169725a865bc8ce0f"
          ],
          "data": "0x0000000000000000000000000000000000000000000000000000000000000000",
          "blockHash": "0xf12bb80f661554b2208075fb2e11f9488ff291e28bbb6362e473f33f4f821e3a",
          "blockNumber": "0x7e9d4f3",
          "transactionHash": "0xb08e5532acc8412f7b03fbc77e6e76dc49d9f762f2681c2fb797209ffe4341ba",
          "transactionIndex": "0xd",
          "logIndex": "0xd",
          "removed": false
        },
        {
          "address": "0xa3c8461375527bda3180265a80be2e4090471b7a",
          "topics": [
            "0xddf252ad1be2c89b69c2b068fc378daa952ba7f163c4a11628f55a4df523b3ef",
            "0x00000000000000000000000094aba23b9bbfe7bb62a9eb8b1215d72b5f6f33a1",
            "0x000000000000000000000000132b7ed2ed014d37ba9ad96ad3d72cc3f0c75917"
          ],
          "data": "0x0000000000000000000000000000000000000000000000000000000001c9c380",
          "blockHash": "0xf12bb80f661554b2208075fb2e11f9488ff291e28bbb6362e473f33f4f821e3a",
          "blockNumber": "0x7e9d4f3",
          "transactionHash": "0xb08e5532acc8412f7b03fbc77e6e76dc49d9f762f2681c2fb797209ffe4341ba",
          "transactionIndex": "0xd",
          "logIndex": "0xe",
          "removed": false
        },
        {
          "address": "0xa3c8461375527bda3180265a80be2e4090471b7a",
          "topics": [
            "0xddf252ad1be2c89b69c2b068fc378daa952ba7f163c4a11628f55a4df523b3ef",
            "0x000000000000000000000000132b7ed2ed014d37ba9ad96ad3d72cc3f0c75917",
            "0x0000000000000000000000000000000000000000000000000000000000000000"
          ],
          "data": "0x0000000000000000000000000000000000000000000000000000000001c9c380",
          "blockHash": "0xf12bb80f661554b2208075fb2e11f9488ff291e28bbb6362e473f33f4f821e3a",
          "blockNumber": "0x7e9d4f3",
          "transactionHash": "0xb08e5532acc8412f7b03fbc77e6e76dc49d9f762f2681c2fb797209ffe4341ba",
          "transactionIndex": "0xd",
          "logIndex": "0xf",
          "removed": false
        },
        {
          "address": "0x132b7ed2ed014d37ba9ad96ad3d72cc3f0c75917",
          "topics": [
            "0x696de425f79f4a40bc6d2122ca50507f0efbeabbff86a84871b7196ab8ea8df7",
            "0x000000000000000000000000fe11cfc957cca331192eac60040b442303cca0a9"
          ],
          "data": "0x0000000000000000000000000000000000000000000000000000000001c9c380",
          "blockHash": "0xf12bb80f661554b2208075fb2e11f9488ff291e28bbb6362e473f33f4f821e3a",
          "blockNumber": "0x7e9d4f3",
          "transactionHash": "0xb08e5532acc8412f7b03fbc77e6e76dc49d9f762f2681c2fb797209ffe4341ba",
          "transactionIndex": "0xd",
          "logIndex": "0x10",
          "removed": false
        },
        {
          "address": "0xfe11cfc957cca331192eac60040b442303cca0a9",
          "topics": [
            "0xd0c3c799bf9e2639de44391e7f524d229b2b55f5b1ea94b2bf7da42f7243dddd"
          ],
          "data": "0x000000000000000000000000000000000000000000000000000000000000002000000000000000000000000000000000000000000000000033d343f77863cab800000000000000000000000094aba23b9bbfe7bb62a9eb8b1215d72b5f6f33a100000000000000000000000094aba23b9bbfe7bb62a9eb8b1215d72b5f6f33a1000000000000000000000000000000000000000000000000000000000000032d000000000000000000000000000000000000000000000000000000000000000000000000000000000000000000000000000000000000000000000000000000000000000000000000000000000000000000000000000000000000000000000005000000000000000000000000420000000000000000000000000000000000000600000000000000000000000000000000000000000000000000006d1a40891c9d00000000000000000000000000000000000000000000000000000000000001a000000000000000000000000000000000000000000000000000000000000001c00000000000000000000000000000000000000000000000000000000000000220606f4623448c2fe1b794ed56a30d39ec7a1c31012e9a4f3e36961221df52010200000000000000000000000000000000000000000000000000000000000000000000000000000000000000000000000000000000000000000000000000000001000000000000000000000000a3c8461375527bda3180265a80be2e4090471b7a0000000000000000000000000000000000000000000000000000000001c9c3800000000000000000000000000000000000000000000000000000000000000001000000000000000000000000000000000000000000000000000000000000002000000000000000000000000000000000000000000000000000000000000001600000000000000000000000000000000000000000000000000000000000000020000000000000000000000000000000000000000000000000000000000000008000000000000000000000000000000000000000000000000000000000000000c000000000000000000000000000000000000000000000000000000000000001000000000000000000000000000000000000000000000000000000000000015f900000000000000000000000000000000000000000000000000000000000000020000000000000000000000000132b7ed2ed014d37ba9ad96ad3d72cc3f0c759170000000000000000000000000000000000000000000000000000000000000020000000000000000000000000159649a2b75f45349b525be7ab30f2e88f796ac200000000000000000000000000000000000000000000000000000000000000200000000000000000000000000000000000000000000000000000000000000006",
          "blockHash": "0xf12bb80f661554b2208075fb2e11f9488ff291e28bbb6362e473f33f4f821e3a",
          "blockNumber": "0x7e9d4f3",
          "transactionHash": "0xb08e5532acc8412f7b03fbc77e6e76dc49d9f762f2681c2fb797209ffe4341ba",
          "transactionIndex": "0xd",
          "logIndex": "0x11",
          "removed": false
        }
      ],
      "logsBloom": "0x00000000000000000000100000000000000000400000000000148000000000000000000000000000002000100000000000000000000000000000000000200000000000080002000000000008000000000000080000000000002000008000000000001000060000000000000000000802000000000000000000004810000000001000000000000000000000000000000000000001002000000000010000000000020000000000000400000000000000000000000000000000000100000000100000000002000000000000000000000000000000000000010000000000002020000010000400000000001100000002000004000000000000400000000000080000",
      "type": "0x2",
      "transactionHash": "0xb08e5532acc8412f7b03fbc77e6e76dc49d9f762f2681c2fb797209ffe4341ba",
      "transactionIndex": "0xd",
      "blockHash": "0xf12bb80f661554b2208075fb2e11f9488ff291e28bbb6362e473f33f4f821e3a",
      "blockNumber": "0x7e9d4f3",
      "gasUsed": "0x31d9c",
      "effectiveGasPrice": "0x1765",
      "from": "0x94aba23b9bbfe7bb62a9eb8b1215d72b5f6f33a1",
      "to": "0x3206695cae29952f4b0c22a169725a865bc8ce0f",
      "contractAddress": null,
      "l1BaseFeeScalar": "0x146b",
      "l1BlobBaseFee": "0xd7ee15f",
      "l1BlobBaseFeeScalar": "0xf79c5",
      "l1Fee": "0xb8722772b",
      "l1GasPrice": "0x280969ea",
      "l1GasUsed": "0xad3"
    }
  ],
  "libraries": [],
  "pending": [],
  "returns": {},
  "timestamp": 1741128571,
  "chain": 10,
  "commit": "783800d"
}