{
  "transactions": [
    {
      "hash": "0x50086819069187ebed551b9583b4effd90e4de2a6aa19b0691b1be1560db5058",
      "transactionType": "CALL",
      "contractName": null,
      "contractAddress": "0x159649a2b75f45349b525be7ab30f2e88f796ac2",
      "function": "approve(address,uint256)",
      "arguments": [
        "0x881e3A65B4d4a04dD529061dd0071cf975F58bCD",
        "200000000"
      ],
      "transaction": {
        "from": "0x94aba23b9bbfe7bb62a9eb8b1215d72b5f6f33a1",
        "to": "0x159649a2b75f45349b525be7ab30f2e88f796ac2",
        "gas": "0xfd71",
        "value": "0x0",
        "input": "0x095ea7b3000000000000000000000000881e3a65b4d4a04dd529061dd0071cf975f58bcd000000000000000000000000000000000000000000000000000000000bebc200",
        "nonce": "0x122",
        "chainId": "0x2105"
      },
      "additionalContracts": [],
      "isFixedGasLimit": false
    },
    {
      "hash": "0x4f150314184cadef8d7cf7c3d9c94fabf5b76937bc77851646e9d0da04b63cee",
      "transactionType": "CALL",
      "contractName": null,
      "contractAddress": "0x881e3a65b4d4a04dd529061dd0071cf975f58bcd",
      "function": "ccipSend(uint64,(bytes,bytes,(address,uint256)[],address,bytes))",
      "arguments": [
        "3734403246176062136",
        "(0x0000000000000000000000001804c8ab1f12e6bbf3894d4083f33e07309d1f38, 0x, [(0x159649a2B75F45349B525be7ab30F2E88f796Ac2, 200000000)], 0x0000000000000000000000000000000000000000, 0x97a657c90000000000000000000000000000000000000000000000000000000000000000)"
      ],
      "transaction": {
        "from": "0x94aba23b9bbfe7bb62a9eb8b1215d72b5f6f33a1",
        "to": "0x881e3a65b4d4a04dd529061dd0071cf975f58bcd",
        "gas": "0x44da2",
        "value": "0x6cc92104263a",
        "input": "0x96f4e9f900000000000000000000000000000000000000000000000033d343f77863cab8000000000000000000000000000000000000000000000000000000000000004000000000000000000000000000000000000000000000000000000000000000a000000000000000000000000000000000000000000000000000000000000000e000000000000000000000000000000000000000000000000000000000000001000000000000000000000000000000000000000000000000000000000000000000000000000000000000000000000000000000000000000000000000000000016000000000000000000000000000000000000000000000000000000000000000200000000000000000000000001804c8ab1f12e6bbf3894d4083f33e07309d1f3800000000000000000000000000000000000000000000000000000000000000000000000000000000000000000000000000000000000000000000000000000001000000000000000000000000159649a2b75f45349b525be7ab30f2e88f796ac2000000000000000000000000000000000000000000000000000000000bebc200000000000000000000000000000000000000000000000000000000000000002497a657c9000000000000000000000000000000000000000000000000000000000000000000000000000000000000000000000000000000000000000000000000",
        "nonce": "0x123",
        "chainId": "0x2105"
      },
      "additionalContracts": [],
      "isFixedGasLimit": false
    }
  ],
  "receipts": [
    {
      "status": "0x1",
      "cumulativeGasUsed": "0x2200cb4",
      "logs": [
        {
          "address": "0x159649a2b75f45349b525be7ab30f2e88f796ac2",
          "topics": [
            "0x8c5be1e5ebec7d5bd14f71427d1e84f3dd0314c0f7b2291e5b200ac8c7c3b925",
            "0x00000000000000000000000094aba23b9bbfe7bb62a9eb8b1215d72b5f6f33a1",
            "0x000000000000000000000000881e3a65b4d4a04dd529061dd0071cf975f58bcd"
          ],
          "data": "0x000000000000000000000000000000000000000000000000000000000bebc200",
          "blockHash": "0x6f37f36aa60c37499e80ecc7e43afe1b558a5fac2f7525d4496a983d565253f3",
          "blockNumber": "0x19e8396",
          "transactionHash": "0x50086819069187ebed551b9583b4effd90e4de2a6aa19b0691b1be1560db5058",
          "transactionIndex": "0x5e",
          "logIndex": "0x1d1",
          "removed": false
        }
      ],
      "logsBloom": "0x00000000000000000000000000000000000100000000000000000000000000000000000000000000000000000000000000000020000000000000000000200000000000080002000000000000000000000000000000000000000001000000000000000000000000000000000000000000000000000400000000000000000000000000000000000000000000000000000000000000000000000000000000000000020000000000000000000000000000000000000000000000000000000000000000000000000000000000000000000000000000000000000000000000000000000010000000000000001000004008000000000000000000000000000000000000",
      "type": "0x2",
      "transactionHash": "0x50086819069187ebed551b9583b4effd90e4de2a6aa19b0691b1be1560db5058",
      "transactionIndex": "0x5e",
      "blockHash": "0x6f37f36aa60c37499e80ecc7e43afe1b558a5fac2f7525d4496a983d565253f3",
      "blockNumber": "0x19e8396",
      "gasUsed": "0xb77e",
      "effectiveGasPrice": "0x2dd6de",
      "from": "0x94aba23b9bbfe7bb62a9eb8b1215d72b5f6f33a1",
      "to": "0x159649a2b75f45349b525be7ab30f2e88f796ac2",
      "contractAddress": null,
      "l1BaseFeeScalar": "0x8dd",
      "l1BlobBaseFee": "0x8c33acc",
      "l1BlobBaseFeeScalar": "0x101c12",
      "l1Fee": "0x4d3689e83",
      "l1GasPrice": "0x5577f210",
      "l1GasUsed": "0x640"
    },
    {
      "status": "0x1",
      "cumulativeGasUsed": "0x2232a44",
      "logs": [
        {
          "address": "0x4200000000000000000000000000000000000006",
          "topics": [
            "0xe1fffcc4923d04b559f4d29a8bfc6cda04eb5b0d3c460751c2402c5c5cc9109c",
            "0x000000000000000000000000881e3a65b4d4a04dd529061dd0071cf975f58bcd"
          ],
          "data": "0x00000000000000000000000000000000000000000000000000006cc92104263a",
          "blockHash": "0x6f37f36aa60c37499e80ecc7e43afe1b558a5fac2f7525d4496a983d565253f3",
          "blockNumber": "0x19e8396",
          "transactionHash": "0x4f150314184cadef8d7cf7c3d9c94fabf5b76937bc77851646e9d0da04b63cee",
          "transactionIndex": "0x5f",
          "logIndex": "0x1d2",
          "removed": false
        },
        {
          "address": "0x4200000000000000000000000000000000000006",
          "topics": [
            "0xddf252ad1be2c89b69c2b068fc378daa952ba7f163c4a11628f55a4df523b3ef",
            "0x000000000000000000000000881e3a65b4d4a04dd529061dd0071cf975f58bcd",
            "0x000000000000000000000000362e6be957c18e268ad91046ca6b47eb09ad98c1"
          ],
          "data": "0x00000000000000000000000000000000000000000000000000006cc92104263a",
          "blockHash": "0x6f37f36aa60c37499e80ecc7e43afe1b558a5fac2f7525d4496a983d565253f3",
          "blockNumber": "0x19e8396",
          "transactionHash": "0x4f150314184cadef8d7cf7c3d9c94fabf5b76937bc77851646e9d0da04b63cee",
          "transactionIndex": "0x5f",
          "logIndex": "0x1d3",
          "removed": false
        },
        {
          "address": "0x159649a2b75f45349b525be7ab30f2e88f796ac2",
          "topics": [
            "0x8c5be1e5ebec7d5bd14f71427d1e84f3dd0314c0f7b2291e5b200ac8c7c3b925",
            "0x00000000000000000000000094aba23b9bbfe7bb62a9eb8b1215d72b5f6f33a1",
            "0x000000000000000000000000881e3a65b4d4a04dd529061dd0071cf975f58bcd"
          ],
          "data": "0x0000000000000000000000000000000000000000000000000000000000000000",
          "blockHash": "0x6f37f36aa60c37499e80ecc7e43afe1b558a5fac2f7525d4496a983d565253f3",
          "blockNumber": "0x19e8396",
          "transactionHash": "0x4f150314184cadef8d7cf7c3d9c94fabf5b76937bc77851646e9d0da04b63cee",
          "transactionIndex": "0x5f",
          "logIndex": "0x1d4",
          "removed": false
        },
        {
          "address": "0x159649a2b75f45349b525be7ab30f2e88f796ac2",
          "topics": [
            "0xddf252ad1be2c89b69c2b068fc378daa952ba7f163c4a11628f55a4df523b3ef",
            "0x00000000000000000000000094aba23b9bbfe7bb62a9eb8b1215d72b5f6f33a1",
            "0x000000000000000000000000ad6f2f39b82d9e3a2c516a34349e1db7175e5214"
          ],
          "data": "0x000000000000000000000000000000000000000000000000000000000bebc200",
          "blockHash": "0x6f37f36aa60c37499e80ecc7e43afe1b558a5fac2f7525d4496a983d565253f3",
          "blockNumber": "0x19e8396",
          "transactionHash": "0x4f150314184cadef8d7cf7c3d9c94fabf5b76937bc77851646e9d0da04b63cee",
          "transactionIndex": "0x5f",
          "logIndex": "0x1d5",
          "removed": false
        },
        {
          "address": "0x159649a2b75f45349b525be7ab30f2e88f796ac2",
          "topics": [
            "0xddf252ad1be2c89b69c2b068fc378daa952ba7f163c4a11628f55a4df523b3ef",
            "0x000000000000000000000000ad6f2f39b82d9e3a2c516a34349e1db7175e5214",
            "0x0000000000000000000000000000000000000000000000000000000000000000"
          ],
          "data": "0x000000000000000000000000000000000000000000000000000000000bebc200",
          "blockHash": "0x6f37f36aa60c37499e80ecc7e43afe1b558a5fac2f7525d4496a983d565253f3",
          "blockNumber": "0x19e8396",
          "transactionHash": "0x4f150314184cadef8d7cf7c3d9c94fabf5b76937bc77851646e9d0da04b63cee",
          "transactionIndex": "0x5f",
          "logIndex": "0x1d6",
          "removed": false
        },
        {
          "address": "0xad6f2f39b82d9e3a2c516a34349e1db7175e5214",
          "topics": [
            "0x696de425f79f4a40bc6d2122ca50507f0efbeabbff86a84871b7196ab8ea8df7",
            "0x000000000000000000000000362e6be957c18e268ad91046ca6b47eb09ad98c1"
          ],
          "data": "0x000000000000000000000000000000000000000000000000000000000bebc200",
          "blockHash": "0x6f37f36aa60c37499e80ecc7e43afe1b558a5fac2f7525d4496a983d565253f3",
          "blockNumber": "0x19e8396",
          "transactionHash": "0x4f150314184cadef8d7cf7c3d9c94fabf5b76937bc77851646e9d0da04b63cee",
          "transactionIndex": "0x5f",
          "logIndex": "0x1d7",
          "removed": false
        },
        {
          "address": "0x362e6be957c18e268ad91046ca6b47eb09ad98c1",
          "topics": [
            "0xd0c3c799bf9e2639de44391e7f524d229b2b55f5b1ea94b2bf7da42f7243dddd"
          ],
          "data": "0x0000000000000000000000000000000000000000000000000000000000000020000000000000000000000000000000000000000000000000dda641cfe44aff8200000000000000000000000094aba23b9bbfe7bb62a9eb8b1215d72b5f6f33a10000000000000000000000001804c8ab1f12e6bbf3894d4083f33e07309d1f380000000000000000000000000000000000000000000000000000000000000352000000000000000000000000000000000000000000000000000000000000000000000000000000000000000000000000000000000000000000000000000000000000000000000000000000000000000000000000000000000000000000000003000000000000000000000000420000000000000000000000000000000000000600000000000000000000000000000000000000000000000000006cc92104263a00000000000000000000000000000000000000000000000000000000000001a000000000000000000000000000000000000000000000000000000000000001c0000000000000000000000000000000000000000000000000000000000000022090a65bb8382468ad3e43e8b36bd215124be27eec7b45b83f0b49774de5f0177000000000000000000000000000000000000000000000000000000000000000000000000000000000000000000000000000000000000000000000000000000001000000000000000000000000159649a2b75f45349b525be7ab30f2e88f796ac2000000000000000000000000000000000000000000000000000000000bebc2000000000000000000000000000000000000000000000000000000000000000001000000000000000000000000000000000000000000000000000000000000002000000000000000000000000000000000000000000000000000000000000001600000000000000000000000000000000000000000000000000000000000000020000000000000000000000000000000000000000000000000000000000000008000000000000000000000000000000000000000000000000000000000000000c000000000000000000000000000000000000000000000000000000000000001000000000000000000000000000000000000000000000000000000000000015f900000000000000000000000000000000000000000000000000000000000000020000000000000000000000000ad6f2f39b82d9e3a2c516a34349e1db7175e52140000000000000000000000000000000000000000000000000000000000000020000000000000000000000000a3c8461375527bda3180265a80be2e4090471b7a00000000000000000000000000000000000000000000000000000000000000200000000000000000000000000000000000000000000000000000000000000006",
          "blockHash": "0x6f37f36aa60c37499e80ecc7e43afe1b558a5fac2f7525d4496a983d565253f3",
          "blockNumber": "0x19e8396",
          "transactionHash": "0x4f150314184cadef8d7cf7c3d9c94fabf5b76937bc77851646e9d0da04b63cee",
          "transactionIndex": "0x5f",
          "logIndex": "0x1d8",
          "removed": false
        }
      ],
      "logsBloom": "0x0000000000000000000020000000000000010000000000000004000000000000000100000000000000200010000000000000002000000100000000000020000000000008000a000000000008000000000000000000000000000001018000000000000000060000000000000000000802000000000400000000000010000000000000000000000000000004000000000000000001002000000000000000000000020000400000000400000000000000000100008010000000000108000000000000000002000000000000000000000000000000000000000000000000100020000010000000000000001000004008000004000000000000400000000000000000",
      "type": "0x2",
      "transactionHash": "0x4f150314184cadef8d7cf7c3d9c94fabf5b76937bc77851646e9d0da04b63cee",
      "transactionIndex": "0x5f",
      "blockHash": "0x6f37f36aa60c37499e80ecc7e43afe1b558a5fac2f7525d4496a983d565253f3",
      "blockNumber": "0x19e8396",
      "gasUsed": "0x31d90",
      "effectiveGasPrice": "0x2dd6de",
      "from": "0x94aba23b9bbfe7bb62a9eb8b1215d72b5f6f33a1",
      "to": "0x881e3a65b4d4a04dd529061dd0071cf975f58bcd",
      "contractAddress": null,
      "l1BaseFeeScalar": "0x8dd",
      "l1BlobBaseFee": "0x8c33acc",
      "l1BlobBaseFeeScalar": "0x101c12",
      "l1Fee": "0x87b1e49c4",
      "l1GasPrice": "0x5577f210",
      "l1GasUsed": "0xafb"
    }
  ],
  "libraries": [],
  "pending": [],
  "returns": {},
  "timestamp": 1741120489,
  "chain": 8453,
  "commit": "783800d"
}