{
  "transactions": [
    {
      "hash": "0x382bf92de7203870c93b860f87655fb3becd5edb918aea6f53ceff97913b031e",
      "transactionType": "CALL",
      "contractName": null,
      "contractAddress": "0x159649a2b75f45349b525be7ab30f2e88f796ac2",
      "function": "approve(address,uint256)",
      "arguments": [
        "0x881e3A65B4d4a04dD529061dd0071cf975F58bCD",
        "50000000"
      ],
      "transaction": {
        "from": "0x94aba23b9bbfe7bb62a9eb8b1215d72b5f6f33a1",
        "to": "0x159649a2b75f45349b525be7ab30f2e88f796ac2",
        "gas": "0x10c6c",
        "value": "0x0",
        "input": "0x095ea7b3000000000000000000000000881e3a65b4d4a04dd529061dd0071cf975f58bcd0000000000000000000000000000000000000000000000000000000002faf080",
        "nonce": "0x124",
        "chainId": "0x2105"
      },
      "additionalContracts": [],
      "isFixedGasLimit": false
    },
    {
      "hash": "0xb95c00f5f5600c3399a635f1dbe922e9ff00f6df96c9b1a73c037532429bfe56",
      "transactionType": "CALL",
      "contractName": null,
      "contractAddress": "0x881e3a65b4d4a04dd529061dd0071cf975f58bcd",
      "function": "ccipSend(uint64,(bytes,bytes,(address,uint256)[],address,bytes))",
      "arguments": [
        "3734403246176062136",
        "(0x00000000000000000000000094aba23b9bbfe7bb62a9eb8b1215d72b5f6f33a1, 0x, [(0x159649a2B75F45349B525be7ab30F2E88f796Ac2, 50000000)], 0x0000000000000000000000000000000000000000, 0x97a657c90000000000000000000000000000000000000000000000000000000000000000)"
      ],
      "transaction": {
        "from": "0x94aba23b9bbfe7bb62a9eb8b1215d72b5f6f33a1",
        "to": "0x881e3a65b4d4a04dd529061dd0071cf975f58bcd",
        "gas": "0x44db1",
        "value": "0x6cc92104263a",
        "input": "0x96f4e9f900000000000000000000000000000000000000000000000033d343f77863cab8000000000000000000000000000000000000000000000000000000000000004000000000000000000000000000000000000000000000000000000000000000a000000000000000000000000000000000000000000000000000000000000000e0000000000000000000000000000000000000000000000000000000000000010000000000000000000000000000000000000000000000000000000000000000000000000000000000000000000000000000000000000000000000000000000160000000000000000000000000000000000000000000000000000000000000002000000000000000000000000094aba23b9bbfe7bb62a9eb8b1215d72b5f6f33a100000000000000000000000000000000000000000000000000000000000000000000000000000000000000000000000000000000000000000000000000000001000000000000000000000000159649a2b75f45349b525be7ab30f2e88f796ac20000000000000000000000000000000000000000000000000000000002faf080000000000000000000000000000000000000000000000000000000000000002497a657c9000000000000000000000000000000000000000000000000000000000000000000000000000000000000000000000000000000000000000000000000",
        "nonce": "0x125",
        "chainId": "0x2105"
      },
      "additionalContracts": [],
      "isFixedGasLimit": false
    }
  ],
  "receipts": [
    {
      "status": "0x1",
      "cumulativeGasUsed": "0x342507f",
      "logs": [
        {
          "address": "0x159649a2b75f45349b525be7ab30f2e88f796ac2",
          "topics": [
            "0x8c5be1e5ebec7d5bd14f71427d1e84f3dd0314c0f7b2291e5b200ac8c7c3b925",
            "0x00000000000000000000000094aba23b9bbfe7bb62a9eb8b1215d72b5f6f33a1",
            "0x000000000000000000000000881e3a65b4d4a04dd529061dd0071cf975f58bcd"
          ],
          "data": "0x0000000000000000000000000000000000000000000000000000000002faf080",
          "blockHash": "0x4e77b7ac6dd59341f38ac124c7386b3a834f1fea53299628031e3b46ee3f2c49",
          "blockNumber": "0x19e868a",
          "transactionHash": "0x382bf92de7203870c93b860f87655fb3becd5edb918aea6f53ceff97913b031e",
          "transactionIndex": "0x75",
          "logIndex": "0x4d7",
          "removed": false
        }
      ],
      "logsBloom": "0x00000000000000000000000000000000000100000000000000000000000000000000000000000000000000000000000000000020000000000000000000200000000000080002000000000000000000000000000000000000000001000000000000000000000000000000000000000000000000000400000000000000000000000000000000000000000000000000000000000000000000000000000000000000020000000000000000000000000000000000000000000000000000000000000000000000000000000000000000000000000000000000000000000000000000000010000000000000001000004008000000000000000000000000000000000000",
      "type": "0x2",
      "transactionHash": "0x382bf92de7203870c93b860f87655fb3becd5edb918aea6f53ceff97913b031e",
      "transactionIndex": "0x75",
      "blockHash": "0x4e77b7ac6dd59341f38ac124c7386b3a834f1fea53299628031e3b46ee3f2c49",
      "blockNumber": "0x19e868a",
      "gasUsed": "0xb78a",
      "effectiveGasPrice": "0x305cd7",
      "from": "0x94aba23b9bbfe7bb62a9eb8b1215d72b5f6f33a1",
      "to": "0x159649a2b75f45349b525be7ab30f2e88f796ac2",
      "contractAddress": null,
      "l1BaseFeeScalar": "0x8dd",
      "l1BlobBaseFee": "0x91d0d8a",
      "l1BlobBaseFeeScalar": "0x101c12",
      "l1Fee": "0x4ad3cb759",
      "l1GasPrice": "0x40c01883",
      "l1GasUsed": "0x640"
    },
    {
      "status": "0x1",
      "cumulativeGasUsed": "0x3456e1b",
      "logs": [
        {
          "address": "0x4200000000000000000000000000000000000006",
          "topics": [
            "0xe1fffcc4923d04b559f4d29a8bfc6cda04eb5b0d3c460751c2402c5c5cc9109c",
            "0x000000000000000000000000881e3a65b4d4a04dd529061dd0071cf975f58bcd"
          ],
          "data": "0x00000000000000000000000000000000000000000000000000006cc92104263a",
          "blockHash": "0x4e77b7ac6dd59341f38ac124c7386b3a834f1fea53299628031e3b46ee3f2c49",
          "blockNumber": "0x19e868a",
          "transactionHash": "0xb95c00f5f5600c3399a635f1dbe922e9ff00f6df96c9b1a73c037532429bfe56",
          "transactionIndex": "0x76",
          "logIndex": "0x4d8",
          "removed": false
        },
        {
          "address": "0x4200000000000000000000000000000000000006",
          "topics": [
            "0xddf252ad1be2c89b69c2b068fc378daa952ba7f163c4a11628f55a4df523b3ef",
            "0x000000000000000000000000881e3a65b4d4a04dd529061dd0071cf975f58bcd",
            "0x000000000000000000000000362e6be957c18e268ad91046ca6b47eb09ad98c1"
          ],
          "data": "0x00000000000000000000000000000000000000000000000000006cc92104263a",
          "blockHash": "0x4e77b7ac6dd59341f38ac124c7386b3a834f1fea53299628031e3b46ee3f2c49",
          "blockNumber": "0x19e868a",
          "transactionHash": "0xb95c00f5f5600c3399a635f1dbe922e9ff00f6df96c9b1a73c037532429bfe56",
          "transactionIndex": "0x76",
          "logIndex": "0x4d9",
          "removed": false
        },
        {
          "address": "0x159649a2b75f45349b525be7ab30f2e88f796ac2",
          "topics": [
            "0x8c5be1e5ebec7d5bd14f71427d1e84f3dd0314c0f7b2291e5b200ac8c7c3b925",
            "0x00000000000000000000000094aba23b9bbfe7bb62a9eb8b1215d72b5f6f33a1",
            "0x000000000000000000000000881e3a65b4d4a04dd529061dd0071cf975f58bcd"
          ],
          "data": "0x0000000000000000000000000000000000000000000000000000000000000000",
          "blockHash": "0x4e77b7ac6dd59341f38ac124c7386b3a834f1fea53299628031e3b46ee3f2c49",
          "blockNumber": "0x19e868a",
          "transactionHash": "0xb95c00f5f5600c3399a635f1dbe922e9ff00f6df96c9b1a73c037532429bfe56",
          "transactionIndex": "0x76",
          "logIndex": "0x4da",
          "removed": false
        },
        {
          "address": "0x159649a2b75f45349b525be7ab30f2e88f796ac2",
          "topics": [
            "0xddf252ad1be2c89b69c2b068fc378daa952ba7f163c4a11628f55a4df523b3ef",
            "0x00000000000000000000000094aba23b9bbfe7bb62a9eb8b1215d72b5f6f33a1",
            "0x000000000000000000000000ad6f2f39b82d9e3a2c516a34349e1db7175e5214"
          ],
          "data": "0x0000000000000000000000000000000000000000000000000000000002faf080",
          "blockHash": "0x4e77b7ac6dd59341f38ac124c7386b3a834f1fea53299628031e3b46ee3f2c49",
          "blockNumber": "0x19e868a",
          "transactionHash": "0xb95c00f5f5600c3399a635f1dbe922e9ff00f6df96c9b1a73c037532429bfe56",
          "transactionIndex": "0x76",
          "logIndex": "0x4db",
          "removed": false
        },
        {
          "address": "0x159649a2b75f45349b525be7ab30f2e88f796ac2",
          "topics": [
            "0xddf252ad1be2c89b69c2b068fc378daa952ba7f163c4a11628f55a4df523b3ef",
            "0x000000000000000000000000ad6f2f39b82d9e3a2c516a34349e1db7175e5214",
            "0x0000000000000000000000000000000000000000000000000000000000000000"
          ],
          "data": "0x0000000000000000000000000000000000000000000000000000000002faf080",
          "blockHash": "0x4e77b7ac6dd59341f38ac124c7386b3a834f1fea53299628031e3b46ee3f2c49",
          "blockNumber": "0x19e868a",
          "transactionHash": "0xb95c00f5f5600c3399a635f1dbe922e9ff00f6df96c9b1a73c037532429bfe56",
          "transactionIndex": "0x76",
          "logIndex": "0x4dc",
          "removed": false
        },
        {
          "address": "0xad6f2f39b82d9e3a2c516a34349e1db7175e5214",
          "topics": [
            "0x696de425f79f4a40bc6d2122ca50507f0efbeabbff86a84871b7196ab8ea8df7",
            "0x000000000000000000000000362e6be957c18e268ad91046ca6b47eb09ad98c1"
          ],
          "data": "0x0000000000000000000000000000000000000000000000000000000002faf080",
          "blockHash": "0x4e77b7ac6dd59341f38ac124c7386b3a834f1fea53299628031e3b46ee3f2c49",
          "blockNumber": "0x19e868a",
          "transactionHash": "0xb95c00f5f5600c3399a635f1dbe922e9ff00f6df96c9b1a73c037532429bfe56",
          "transactionIndex": "0x76",
          "logIndex": "0x4dd",
          "removed": false
        },
        {
          "address": "0x362e6be957c18e268ad91046ca6b47eb09ad98c1",
          "topics": [
            "0xd0c3c799bf9e2639de44391e7f524d229b2b55f5b1ea94b2bf7da42f7243dddd"
          ],
          "data": "0x0000000000000000000000000000000000000000000000000000000000000020000000000000000000000000000000000000000000000000dda641cfe44aff8200000000000000000000000094aba23b9bbfe7bb62a9eb8b1215d72b5f6f33a100000000000000000000000094aba23b9bbfe7bb62a9eb8b1215d72b5f6f33a10000000000000000000000000000000000000000000000000000000000000353000000000000000000000000000000000000000000000000000000000000000000000000000000000000000000000000000000000000000000000000000000000000000000000000000000000000000000000000000000000000000000000004000000000000000000000000420000000000000000000000000000000000000600000000000000000000000000000000000000000000000000006cc92104263a00000000000000000000000000000000000000000000000000000000000001a000000000000000000000000000000000000000000000000000000000000001c000000000000000000000000000000000000000000000000000000000000002201aff7676bf5643856079fdbbb7437e5e671ec9b173bb903a851acb6cacc8a1d700000000000000000000000000000000000000000000000000000000000000000000000000000000000000000000000000000000000000000000000000000001000000000000000000000000159649a2b75f45349b525be7ab30f2e88f796ac20000000000000000000000000000000000000000000000000000000002faf0800000000000000000000000000000000000000000000000000000000000000001000000000000000000000000000000000000000000000000000000000000002000000000000000000000000000000000000000000000000000000000000001600000000000000000000000000000000000000000000000000000000000000020000000000000000000000000000000000000000000000000000000000000008000000000000000000000000000000000000000000000000000000000000000c000000000000000000000000000000000000000000000000000000000000001000000000000000000000000000000000000000000000000000000000000015f900000000000000000000000000000000000000000000000000000000000000020000000000000000000000000ad6f2f39b82d9e3a2c516a34349e1db7175e52140000000000000000000000000000000000000000000000000000000000000020000000000000000000000000a3c8461375527bda3180265a80be2e4090471b7a00000000000000000000000000000000000000000000000000000000000000200000000000000000000000000000000000000000000000000000000000000006",
          "blockHash": "0x4e77b7ac6dd59341f38ac124c7386b3a834f1fea53299628031e3b46ee3f2c49",
          "blockNumber": "0x19e868a",
          "transactionHash": "0xb95c00f5f5600c3399a635f1dbe922e9ff00f6df96c9b1a73c037532429bfe56",
          "transactionIndex": "0x76",
          "logIndex": "0x4de",
          "removed": false
        }
      ],
      "logsBloom": "0x0000000000000000000020000000000000010000000000000004000000000000000100000000000000200010000000000000002000000100000000000020000000000008000a000000000008000000000000000000000000000001018000000000000000060000000000000000000802000000000400000000000010000000000000000000000000000004000000000000000001002000000000000000000000020000400000000400000000000000000100008010000000000108000000000000000002000000000000000000000000000000000000000000000000100020000010000000000000001000004008000004000000000000400000000000000000",
      "type": "0x2",
      "transactionHash": "0xb95c00f5f5600c3399a635f1dbe922e9ff00f6df96c9b1a73c037532429bfe56",
      "transactionIndex": "0x76",
      "blockHash": "0x4e77b7ac6dd59341f38ac124c7386b3a834f1fea53299628031e3b46ee3f2c49",
      "blockNumber": "0x19e868a",
      "gasUsed": "0x31d9c",
      "effectiveGasPrice": "0x305cd7",
      "from": "0x94aba23b9bbfe7bb62a9eb8b1215d72b5f6f33a1",
      "to": "0x881e3a65b4d4a04dd529061dd0071cf975f58bcd",
      "contractAddress": null,
      "l1BaseFeeScalar": "0x8dd",
      "l1BlobBaseFee": "0x91d0d8a",
      "l1BlobBaseFeeScalar": "0x101c12",
      "l1Fee": "0x84c10ae59",
      "l1GasPrice": "0x40c01883",
      "l1GasUsed": "0xb16"
    }
  ],
  "libraries": [],
  "pending": [],
  "returns": {},
  "timestamp": 1741122002,
  "chain": 8453,
  "commit": "783800d"
}