{
  "transactions": [
    {
      "hash": "0x139b36a7ce706b21e947cddd4cc4a3d2fab9c71bff22a1136d137163afd94d8e",
      "transactionType": "CALL",
      "contractName": null,
      "contractAddress": "0x6bb845773744bfecfa8e87162ecd11e50cb936ad",
      "function": "applyChainUpdates(uint64[],(uint64,bytes[],bytes,(bool,uint128,uint128),(bool,uint128,uint128))[])",
      "arguments": [
        "[3734403246176062136]",
        "[(3734403246176062136, [0x00000000000000000000000052cd6fae0a199519c0816c1e49ff49c6a4b70081], 0x0000000000000000000000005f969101235d919a8e2c8685398163d4905c300b, (false, 0, 0), (false, 0, 0))]"
      ],
      "transaction": {
        "from": "0x94aba23b9bbfe7bb62a9eb8b1215d72b5f6f33a1",
        "to": "0x6bb845773744bfecfa8e87162ecd11e50cb936ad",
        "gas": "0x1c78d",
        "value": "0x0",
        "input": "0xe8a1da1700000000000000000000000000000000000000000000000000000000000000400000000000000000000000000000000000000000000000000000000000000080000000000000000000000000000000000000000000000000000000000000000100000000000000000000000000000000000000000000000033d343f77863cab80000000000000000000000000000000000000000000000000000000000000001000000000000000000000000000000000000000000000000000000000000002000000000000000000000000000000000000000000000000033d343f77863cab8000000000000000000000000000000000000000000000000000000000000012000000000000000000000000000000000000000000000000000000000000001a000000000000000000000000000000000000000000000000000000000000000000000000000000000000000000000000000000000000000000000000000000000000000000000000000000000000000000000000000000000000000000000000000000000000000000000000000000000000000000000000000000000000000000000000000000000000000000000000000000000000000000000000000000000000000000000000000000000000000000000000000000000000000000000000000000000000000000000000000000000000000000000000000000000000000010000000000000000000000000000000000000000000000000000000000000020000000000000000000000000000000000000000000000000000000000000002000000000000000000000000052cd6fae0a199519c0816c1e49ff49c6a4b7008100000000000000000000000000000000000000000000000000000000000000200000000000000000000000005f969101235d919a8e2c8685398163d4905c300b",
        "nonce": "0x10b",
        "chainId": "0x2105"
      },
      "additionalContracts": [],
      "isFixedGasLimit": false
    }
  ],
  "receipts": [
    {
      "status": "0x1",
      "cumulativeGasUsed": "0x175c72c",
      "logs": [
        {
          "address": "0x6bb845773744bfecfa8e87162ecd11e50cb936ad",
          "topics": [
            "0x5204aec90a3c794d8e90fded8b46ae9c7c552803e7e832e0c1d358396d859916"
          ],
          "data": "0x00000000000000000000000000000000000000000000000033d343f77863cab8",
          "blockHash": "0xd2d2b5f3b9b5c8382a6b023f6fbd42be42fe35d7f6c52d296117ace71287e1d1",
          "blockNumber": "0x192d0a4",
          "transactionHash": "0x139b36a7ce706b21e947cddd4cc4a3d2fab9c71bff22a1136d137163afd94d8e",
          "transactionIndex": "0x4b",
          "logIndex": "0xb7",
          "removed": false
        },
        {
          "address": "0x6bb845773744bfecfa8e87162ecd11e50cb936ad",
          "topics": [
            "0x7d628c9a1796743d365ab521a8b2a4686e419b3269919dc9145ea2ce853b54ea",
            "0x00000000000000000000000000000000000000000000000033d343f77863cab8"
          ],
          "data": "0x0000000000000000000000000000000000000000000000000000000000000020000000000000000000000000000000000000000000000000000000000000002000000000000000000000000052cd6fae0a199519c0816c1e49ff49c6a4b70081",
          "blockHash": "0xd2d2b5f3b9b5c8382a6b023f6fbd42be42fe35d7f6c52d296117ace71287e1d1",
          "blockNumber": "0x192d0a4",
          "transactionHash": "0x139b36a7ce706b21e947cddd4cc4a3d2fab9c71bff22a1136d137163afd94d8e",
          "transactionIndex": "0x4b",
          "logIndex": "0xb8",
          "removed": false
        },
        {
          "address": "0x6bb845773744bfecfa8e87162ecd11e50cb936ad",
          "topics": [
            "0x8d340f17e19058004c20453540862a9c62778504476f6756755cb33bcd6c38c2"
          ],
          "data": "0x00000000000000000000000000000000000000000000000033d343f77863cab8000000000000000000000000000000000000000000000000000000000000010000000000000000000000000000000000000000000000000000000000000000000000000000000000000000000000000000000000000000000000000000000000000000000000000000000000000000000000000000000000000000000000000000000000000000000000000000000000000000000000000000000000000000000000000000000000000000000000000000000000000000000000000000000000000000000000000000000000000000000000000000000000000000000000000000000000000000000000000000000000000000000000000000000000000000200000000000000000000000005f969101235d919a8e2c8685398163d4905c300b",
          "blockHash": "0xd2d2b5f3b9b5c8382a6b023f6fbd42be42fe35d7f6c52d296117ace71287e1d1",
          "blockNumber": "0x192d0a4",
          "transactionHash": "0x139b36a7ce706b21e947cddd4cc4a3d2fab9c71bff22a1136d137163afd94d8e",
          "transactionIndex": "0x4b",
          "logIndex": "0xb9",
          "removed": false
        }
      ],
      "logsBloom": "0x00000000000000400000000000000000000000000000000002000000000000000000000000000000000000000000000000000000800000000004000000000004000000000000000000000000000000000000000000000010000000000000000000000000000000000000000000000000000000000000000000000100000000400000000000000000000000000000000000000000000000000000000000000000000200000000000000000000000000000000000000000000000000000000080000000000040000000004000000000000000000000000000000000000000000000000000000000000000000000000000000000200008000000100000000000000",
      "type": "0x2",
      "transactionHash": "0x139b36a7ce706b21e947cddd4cc4a3d2fab9c71bff22a1136d137163afd94d8e",
      "transactionIndex": "0x4b",
      "blockHash": "0xd2d2b5f3b9b5c8382a6b023f6fbd42be42fe35d7f6c52d296117ace71287e1d1",
      "blockNumber": "0x192d0a4",
      "gasUsed": "0x149d0",
      "effectiveGasPrice": "0x2e9880",
      "from": "0x94aba23b9bbfe7bb62a9eb8b1215d72b5f6f33a1",
      "to": "0x6bb845773744bfecfa8e87162ecd11e50cb936ad",
      "contractAddress": null,
      "l1BaseFeeScalar": "0x8dd",
      "l1BlobBaseFee": "0x14",
      "l1BlobBaseFeeScalar": "0x101c12",
      "l1Fee": "0xff8e2f88",
      "l1GasPrice": "0x2aea3140",
      "l1GasUsed": "0xa40"
    }
  ],
  "libraries": [],
  "pending": [],
  "returns": {},
  "timestamp": 1739587082,
  "chain": 8453,
  "commit": "783800d"
}