{
  "transactions": [
    {
      "hash": "0xe06c74a6ebc97c7ed5a3befa00cabbcd0f1545fdcf52930c6a890fb440e49b31",
      "transactionType": "CALL",
      "contractName": null,
      "contractAddress": "0x6bb845773744bfecfa8e87162ecd11e50cb936ad",
      "function": "applyChainUpdates(uint64[],(uint64,bytes[],bytes,(bool,uint128,uint128),(bool,uint128,uint128))[])",
      "arguments": [
        "[3734403246176062136]",
        "[(3734403246176062136, [0x00000000000000000000000052cd6fae0a199519c0816c1e49ff49c6a4b70081], 0x0000000000000000000000005f969101235d919a8e2c8685398163d4905c300b, (false, 0, 0), (false, 0, 0))]"
      ],
      "transaction": {
        "from": "0x94aba23b9bbfe7bb62a9eb8b1215d72b5f6f33a1",
        "to": "0x6bb845773744bfecfa8e87162ecd11e50cb936ad",
        "gas": "0x47b7a",
        "value": "0x0",
        "input": "0xe8a1da1700000000000000000000000000000000000000000000000000000000000000400000000000000000000000000000000000000000000000000000000000000080000000000000000000000000000000000000000000000000000000000000000100000000000000000000000000000000000000000000000033d343f77863cab80000000000000000000000000000000000000000000000000000000000000001000000000000000000000000000000000000000000000000000000000000002000000000000000000000000000000000000000000000000033d343f77863cab8000000000000000000000000000000000000000000000000000000000000012000000000000000000000000000000000000000000000000000000000000001a000000000000000000000000000000000000000000000000000000000000000000000000000000000000000000000000000000000000000000000000000000000000000000000000000000000000000000000000000000000000000000000000000000000000000000000000000000000000000000000000000000000000000000000000000000000000000000000000000000000000000000000000000000000000000000000000000000000000000000000000000000000000000000000000000000000000000000000000000000000000000000000000000000000000000010000000000000000000000000000000000000000000000000000000000000020000000000000000000000000000000000000000000000000000000000000002000000000000000000000000052cd6fae0a199519c0816c1e49ff49c6a4b7008100000000000000000000000000000000000000000000000000000000000000200000000000000000000000005f969101235d919a8e2c8685398163d4905c300b",
        "nonce": "0x10a",
        "chainId": "0x2105"
      },
      "additionalContracts": [],
      "isFixedGasLimit": false
    }
  ],
  "receipts": [
    {
      "status": "0x1",
      "cumulativeGasUsed": "0x1ef0639",
      "logs": [
        {
          "address": "0x6bb845773744bfecfa8e87162ecd11e50cb936ad",
          "topics": [
            "0x5204aec90a3c794d8e90fded8b46ae9c7c552803e7e832e0c1d358396d859916"
          ],
          "data": "0x00000000000000000000000000000000000000000000000033d343f77863cab8",
          "blockHash": "0x9abaf00b445a436493fddafd67a5581229919331f1de05cf05f41f9e6986110f",
          "blockNumber": "0x192a63f",
          "transactionHash": "0xe06c74a6ebc97c7ed5a3befa00cabbcd0f1545fdcf52930c6a890fb440e49b31",
          "transactionIndex": "0x59",
          "logIndex": "0x118",
          "removed": false
        },
        {
          "address": "0x6bb845773744bfecfa8e87162ecd11e50cb936ad",
          "topics": [
            "0x7d628c9a1796743d365ab521a8b2a4686e419b3269919dc9145ea2ce853b54ea",
            "0x00000000000000000000000000000000000000000000000033d343f77863cab8"
          ],
          "data": "0x0000000000000000000000000000000000000000000000000000000000000020000000000000000000000000000000000000000000000000000000000000002000000000000000000000000052cd6fae0a199519c0816c1e49ff49c6a4b70081",
          "blockHash": "0x9abaf00b445a436493fddafd67a5581229919331f1de05cf05f41f9e6986110f",
          "blockNumber": "0x192a63f",
          "transactionHash": "0xe06c74a6ebc97c7ed5a3befa00cabbcd0f1545fdcf52930c6a890fb440e49b31",
          "transactionIndex": "0x59",
          "logIndex": "0x119",
          "removed": false
        },
        {
          "address": "0x6bb845773744bfecfa8e87162ecd11e50cb936ad",
          "topics": [
            "0x8d340f17e19058004c20453540862a9c62778504476f6756755cb33bcd6c38c2"
          ],
          "data": "0x00000000000000000000000000000000000000000000000033d343f77863cab8000000000000000000000000000000000000000000000000000000000000010000000000000000000000000000000000000000000000000000000000000000000000000000000000000000000000000000000000000000000000000000000000000000000000000000000000000000000000000000000000000000000000000000000000000000000000000000000000000000000000000000000000000000000000000000000000000000000000000000000000000000000000000000000000000000000000000000000000000000000000000000000000000000000000000000000000000000000000000000000000000000000000000000000000000000200000000000000000000000005f969101235d919a8e2c8685398163d4905c300b",
          "blockHash": "0x9abaf00b445a436493fddafd67a5581229919331f1de05cf05f41f9e6986110f",
          "blockNumber": "0x192a63f",
          "transactionHash": "0xe06c74a6ebc97c7ed5a3befa00cabbcd0f1545fdcf52930c6a890fb440e49b31",
          "transactionIndex": "0x59",
          "logIndex": "0x11a",
          "removed": false
        }
      ],
      "logsBloom": "0x00000000000000400000000000000000000000000000000002000000000000000000000000000000000000000000000000000000800000000004000000000004000000000000000000000000000000000000000000000010000000000000000000000000000000000000000000000000000000000000000000000100000000400000000000000000000000000000000000000000000000000000000000000000000200000000000000000000000000000000000000000000000000000000080000000000040000000004000000000000000000000000000000000000000000000000000000000000000000000000000000000200008000000100000000000000",
      "type": "0x2",
      "transactionHash": "0xe06c74a6ebc97c7ed5a3befa00cabbcd0f1545fdcf52930c6a890fb440e49b31",
      "transactionIndex": "0x59",
      "blockHash": "0x9abaf00b445a436493fddafd67a5581229919331f1de05cf05f41f9e6986110f",
      "blockNumber": "0x192a63f",
      "gasUsed": "0x3109a",
      "effectiveGasPrice": "0x994134",
      "from": "0x94aba23b9bbfe7bb62a9eb8b1215d72b5f6f33a1",
      "to": "0x6bb845773744bfecfa8e87162ecd11e50cb936ad",
      "contractAddress": null,
      "l1BaseFeeScalar": "0x8dd",
      "l1BlobBaseFee": "0x3d7925e",
      "l1BlobBaseFeeScalar": "0x101c12",
      "l1Fee": "0x3a6087e33",
      "l1GasPrice": "0x2c527fa6",
      "l1GasUsed": "0xa4d"
    }
  ],
  "libraries": [],
  "pending": [],
  "returns": {},
  "timestamp": 1739565375,
  "chain": 8453,
  "commit": "783800d"
}