{
  "transactions": [
    {
      "hash": "0xd586d7ad8699ef23ae9b7805d9ed5a0726ac2a3a2e0ecb2e7020783323786d92",
      "transactionType": "CALL",
      "contractName": null,
      "contractAddress": "0x132b7ed2ed014d37ba9ad96ad3d72cc3f0c75917",
      "function": "applyChainUpdates(uint64[],(uint64,bytes[],bytes,(bool,uint128,uint128),(bool,uint128,uint128))[])",
      "arguments": [
        "[]",
        "[(15971525489660198786, [0x000000000000000000000000ad6f2f39b82d9e3a2c516a34349e1db7175e5214], 0x000000000000000000000000159649a2b75f45349b525be7ab30f2e88f796ac2, (false, 0, 0), (false, 0, 0))]"
      ],
      "transaction": {
        "from": "0x94aba23b9bbfe7bb62a9eb8b1215d72b5f6f33a1",
        "to": "0x132b7ed2ed014d37ba9ad96ad3d72cc3f0c75917",
        "gas": "0x6a300",
        "value": "0x0",
        "input": "0xe8a1da1700000000000000000000000000000000000000000000000000000000000000400000000000000000000000000000000000000000000000000000000000000060000000000000000000000000000000000000000000000000000000000000000000000000000000000000000000000000000000000000000000000000000000010000000000000000000000000000000000000000000000000000000000000020000000000000000000000000000000000000000000000000dda641cfe44aff82000000000000000000000000000000000000000000000000000000000000012000000000000000000000000000000000000000000000000000000000000001a0000000000000000000000000000000000000000000000000000000000000000000000000000000000000000000000000000000000000000000000000000000000000000000000000000000000000000000000000000000000000000000000000000000000000000000000000000000000000000000000000000000000000000000000000000000000000000000000000000000000000000000000000000000000000000000000000000000000000000000000000000000000000000000000000000000000000000000000000000000000000000000000000000000000000000100000000000000000000000000000000000000000000000000000000000000200000000000000000000000000000000000000000000000000000000000000020000000000000000000000000ad6f2f39b82d9e3a2c516a34349e1db7175e52140000000000000000000000000000000000000000000000000000000000000020000000000000000000000000159649a2b75f45349b525be7ab30f2e88f796ac2",
        "nonce": "0x9b",
        "chainId": "0xa"
      },
      "additionalContracts": [],
      "isFixedGasLimit": false
    }
  ],
  "receipts": [
    {
      "status": "0x1",
      "cumulativeGasUsed": "0x7962eb",
      "logs": [
        {
          "address": "0x132b7ed2ed014d37ba9ad96ad3d72cc3f0c75917",
          "topics": [
            "0x7d628c9a1796743d365ab521a8b2a4686e419b3269919dc9145ea2ce853b54ea",
            "0x000000000000000000000000000000000000000000000000dda641cfe44aff82"
          ],
          "data": "0x00000000000000000000000000000000000000000000000000000000000000200000000000000000000000000000000000000000000000000000000000000020000000000000000000000000ad6f2f39b82d9e3a2c516a34349e1db7175e5214",
          "blockHash": "0x301529296c3c605a01ce8fea1d2252e29d27a13fb9d0deffbcf1e7819c88bfec",
          "blockNumber": "0x7e9c162",
          "transactionHash": "0xd586d7ad8699ef23ae9b7805d9ed5a0726ac2a3a2e0ecb2e7020783323786d92",
          "transactionIndex": "0x1e",
          "logIndex": "0x55",
          "removed": false
        },
        {
          "address": "0x132b7ed2ed014d37ba9ad96ad3d72cc3f0c75917",
          "topics": [
            "0x8d340f17e19058004c20453540862a9c62778504476f6756755cb33bcd6c38c2"
          ],
          "data": "0x000000000000000000000000000000000000000000000000dda641cfe44aff8200000000000000000000000000000000000000000000000000000000000001000000000000000000000000000000000000000000000000000000000000000000000000000000000000000000000000000000000000000000000000000000000000000000000000000000000000000000000000000000000000000000000000000000000000000000000000000000000000000000000000000000000000000000000000000000000000000000000000000000000000000000000000000000000000000000000000000000000000000000000000000000000000000000000000000000000000000000000000000000000000000000000000000000000000000020000000000000000000000000159649a2b75f45349b525be7ab30f2e88f796ac2",
          "blockHash": "0x301529296c3c605a01ce8fea1d2252e29d27a13fb9d0deffbcf1e7819c88bfec",
          "blockNumber": "0x7e9c162",
          "transactionHash": "0xd586d7ad8699ef23ae9b7805d9ed5a0726ac2a3a2e0ecb2e7020783323786d92",
          "transactionIndex": "0x1e",
          "logIndex": "0x56",
          "removed": false
        }
      ],
      "logsBloom": "0x00000000000000400000000000000000000000000000000000008000000000000000000000000000000000000000000000000000000000000004000000000004000000000000000000000000000000000000000000000000002000000000000000000000000000000000000000000000000000000000000000000000000000400000000000000000000000000000000000000000000000000000000000000000000000000000000000000000000000000000000000000000000000000000000000000040000000000000000000000000000000000000000000000000002000000000000000000000000000001000000000000000008000000100000000800000",
      "type": "0x2",
      "transactionHash": "0xd586d7ad8699ef23ae9b7805d9ed5a0726ac2a3a2e0ecb2e7020783323786d92",
      "transactionIndex": "0x1e",
      "blockHash": "0x301529296c3c605a01ce8fea1d2252e29d27a13fb9d0deffbcf1e7819c88bfec",
      "blockNumber": "0x7e9c162",
      "gasUsed": "0x4ce0d",
      "effectiveGasPrice": "0x18d3c",
      "from": "0x94aba23b9bbfe7bb62a9eb8b1215d72b5f6f33a1",
      "to": "0x132b7ed2ed014d37ba9ad96ad3d72cc3f0c75917",
      "contractAddress": null,
      "l1BaseFeeScalar": "0x146b",
      "l1BlobBaseFee": "0xc79f940",
      "l1BlobBaseFeeScalar": "0xf79c5",
      "l1Fee": "0xad2e5a999",
      "l1GasPrice": "0x4106b85f",
      "l1GasUsed": "0x992"
    }
  ],
  "libraries": [],
  "pending": [],
  "returns": {},
  "timestamp": 1741118553,
  "chain": 10,
  "commit": "783800d"
}