{
  "transactions": [
    {
      "hash": "0xff92a01de53178d7662c241c21094c329249314a8e819e5502978577b40baa2d",
      "transactionType": "CALL",
      "contractName": null,
      "contractAddress": "0x6f6c373d09c07425baae72317863d7f6bb731e37",
      "function": "acceptAdminRole(address)",
      "arguments": [
        "0x159649a2B75F45349B525be7ab30F2E88f796Ac2"
      ],
      "transaction": {
        "from": "0x94aba23b9bbfe7bb62a9eb8b1215d72b5f6f33a1",
        "to": "0x6f6c373d09c07425baae72317863d7f6bb731e37",
        "gas": "0x10611",
        "value": "0x0",
        "input": "0x156194da000000000000000000000000159649a2b75f45349b525be7ab30f2e88f796ac2",
        "nonce": "0x11c",
        "chainId": "0x2105"
      },
      "additionalContracts": [],
      "isFixedGasLimit": false
    }
  ],
  "receipts": [
    {
      "status": "0x1",
      "cumulativeGasUsed": "0x1c16a06",
      "logs": [
        {
          "address": "0x6f6c373d09c07425baae72317863d7f6bb731e37",
          "topics": [
            "0x399b55200f7f639a63d76efe3dcfa9156ce367058d6b673041b84a628885f5a7",
            "0x000000000000000000000000159649a2b75f45349b525be7ab30f2e88f796ac2",
            "0x00000000000000000000000094aba23b9bbfe7bb62a9eb8b1215d72b5f6f33a1"
          ],
          "data": "0x",
          "blockHash": "0x01abbf1a55587ae0d124ac6c85551afca310aebb5542659de6a72e5a4a47496a",
          "blockNumber": "0x19e7491",
          "transactionHash": "0xff92a01de53178d7662c241c21094c329249314a8e819e5502978577b40baa2d",
          "transactionIndex": "0x67",
          "logIndex": "0x119",
          "removed": false
        }
      ],
      "logsBloom": "0x00000000000000000000000040000000000000002000001000000000000000000000000000000000000000000000000000000000000000000000000000000000000000080002000000000004000000000000000000000000000000000000000000000000000000000000000000010000000000000000000000000000000000000000000000000000000000000000000000000000000008000000000000000000000000000000000000000000000000000000000000000000000000000000000000000000000004000000000000000000000000000000000000000000000000000000000000000000001000000000000000000000000400000000000000000080",
      "type": "0x2",
      "transactionHash": "0xff92a01de53178d7662c241c21094c329249314a8e819e5502978577b40baa2d",
      "transactionIndex": "0x67",
      "blockHash": "0x01abbf1a55587ae0d124ac6c85551afca310aebb5542659de6a72e5a4a47496a",
      "blockNumber": "0x19e7491",
      "gasUsed": "0xb331",
      "effectiveGasPrice": "0x2ea6d5",
      "from": "0x94aba23b9bbfe7bb62a9eb8b1215d72b5f6f33a1",
      "to": "0x6f6c373d09c07425baae72317863d7f6bb731e37",
      "contractAddress": null,
      "l1BaseFeeScalar": "0x8dd",
      "l1BlobBaseFee": "0xdb2e5553",
      "l1BlobBaseFeeScalar": "0x101c12",
      "l1Fee": "0x5b929ec173",
      "l1GasPrice": "0x5346955d",
      "l1GasUsed": "0x640"
    }
  ],
  "libraries": [],
  "pending": [],
  "returns": {},
  "timestamp": 1741112800,
  "chain": 8453,
  "commit": "783800d"
}