{
  "transactions": [
    {
      "hash": "0x3516df71322f67d5aefdddf10b6325ed11b2a76c6af46d8f6a4fbdb8b53352e0",
      "transactionType": "CALL",
      "contractName": null,
      "contractAddress": "0x5a44dce25ab945b625e6a92f9e95beac953033df",
      "function": "grantBurnRole(address)",
      "arguments": [
        "0x6b4e324d91bc3ffE7b398B674B3A8f32bF43cB1A"
      ],
      "transaction": {
        "from": "0x94aba23b9bbfe7bb62a9eb8b1215d72b5f6f33a1",
        "to": "0x5a44dce25ab945b625e6a92f9e95beac953033df",
        "gas": "0x19413",
        "value": "0x0",
        "input": "0xc64d0ebc0000000000000000000000006b4e324d91bc3ffe7b398b674b3a8f32bf43cb1a",
        "nonce": "0xd4",
        "chainId": "0x2105"
      },
      "additionalContracts": [],
      "isFixedGasLimit": false
    },
    {
      "hash": "0xd02539b42140dd4716b3721683efe9979b8cf804c56b9996c65be3f5d7f1ae19",
      "transactionType": "CALL",
      "contractName": null,
      "contractAddress": "0x5a44dce25ab945b625e6a92f9e95beac953033df",
      "function": "mint(address,uint256)",
      "arguments": [
        "0x94aBa23b9Bbfe7bb62A9eB8b1215D72b5f6F33a1",
        "100000000"
      ],
      "transaction": {
        "from": "0x94aba23b9bbfe7bb62a9eb8b1215d72b5f6f33a1",
        "to": "0x5a44dce25ab945b625e6a92f9e95beac953033df",
        "gas": "0x188d0",
        "value": "0x0",
        "input": "0x40c10f1900000000000000000000000094aba23b9bbfe7bb62a9eb8b1215d72b5f6f33a10000000000000000000000000000000000000000000000000000000005f5e100",
        "nonce": "0xd5",
        "chainId": "0x2105"
      },
      "additionalContracts": [],
      "isFixedGasLimit": false
    },
    {
      "hash": "0x783f7bed6b8561b7b1394717435930c9e8b9d956ae63e4ecd2ab29a0d781f4b2",
      "transactionType": "CALL",
      "contractName": null,
      "contractAddress": "0x5a44dce25ab945b625e6a92f9e95beac953033df",
      "function": "approve(address,uint256)",
      "arguments": [
        "0x881e3A65B4d4a04dD529061dd0071cf975F58bCD",
        "100000000"
      ],
      "transaction": {
        "from": "0x94aba23b9bbfe7bb62a9eb8b1215d72b5f6f33a1",
        "to": "0x5a44dce25ab945b625e6a92f9e95beac953033df",
        "gas": "0xfa1c",
        "value": "0x0",
        "input": "0x095ea7b3000000000000000000000000881e3a65b4d4a04dd529061dd0071cf975f58bcd0000000000000000000000000000000000000000000000000000000005f5e100",
        "nonce": "0xd6",
        "chainId": "0x2105"
      },
      "additionalContracts": [],
      "isFixedGasLimit": false
    },
    {
      "hash": "0x25cce84893b44075397f944d44ac1b50ab72b31787413c5d1b1268897a43a3c3",
      "transactionType": "CALL",
      "contractName": null,
      "contractAddress": "0x881e3a65b4d4a04dd529061dd0071cf975f58bcd",
      "function": "ccipSend(uint64,(bytes,bytes,(address,uint256)[],address,bytes))",
      "arguments": [
        "4051577828743386545",
        "(0x00000000000000000000000094aba23b9bbfe7bb62a9eb8b1215d72b5f6f33a1, 0x, [(0x5a44dCE25ab945b625e6A92f9E95Beac953033df, 100000000)], 0x0000000000000000000000000000000000000000, 0x181dcf100000000000000000000000000000000000000000000000000000000000030d400000000000000000000000000000000000000000000000000000000000000000)"
      ],
      "transaction": {
        "from": "0x94aba23b9bbfe7bb62a9eb8b1215d72b5f6f33a1",
        "to": "0x881e3a65b4d4a04dd529061dd0071cf975f58bcd",
        "gas": "0x47a28",
        "value": "0x58f56da8d633",
        "input": "0x96f4e9f9000000000000000000000000000000000000000000000000383a1891ae1915b1000000000000000000000000000000000000000000000000000000000000004000000000000000000000000000000000000000000000000000000000000000a000000000000000000000000000000000000000000000000000000000000000e0000000000000000000000000000000000000000000000000000000000000010000000000000000000000000000000000000000000000000000000000000000000000000000000000000000000000000000000000000000000000000000000160000000000000000000000000000000000000000000000000000000000000002000000000000000000000000094aba23b9bbfe7bb62a9eb8b1215d72b5f6f33a1000000000000000000000000000000000000000000000000000000000000000000000000000000000000000000000000000000000000000000000000000000010000000000000000000000005a44dce25ab945b625e6a92f9e95beac953033df0000000000000000000000000000000000000000000000000000000005f5e1000000000000000000000000000000000000000000000000000000000000000044181dcf100000000000000000000000000000000000000000000000000000000000030d40000000000000000000000000000000000000000000000000000000000000000000000000000000000000000000000000000000000000000000000000",
        "nonce": "0xd7",
        "chainId": "0x2105"
      },
      "additionalContracts": [],
      "isFixedGasLimit": false
    }
  ],
  "receipts": [
    {
      "status": "0x1",
      "cumulativeGasUsed": "0x21db0d1",
      "logs": [
        {
          "address": "0x5a44dce25ab945b625e6a92f9e95beac953033df",
          "topics": [
            "0x92308bb7573b2a3d17ddb868b39d8ebec433f3194421abc22d084f89658c9bad",
            "0x0000000000000000000000006b4e324d91bc3ffe7b398b674b3a8f32bf43cb1a"
          ],
          "data": "0x",
          "blockHash": "0x9cc2d25908a8c466c9a8eea48c133a65a613d137e286960b0ccbfb5fdd9f630b",
          "blockNumber": "0x18eadbb",
          "blockTimestamp": "0x67a7b859",
          "transactionHash": "0x3516df71322f67d5aefdddf10b6325ed11b2a76c6af46d8f6a4fbdb8b53352e0",
          "transactionIndex": "0x87",
          "logIndex": "0x17d",
          "removed": false
        }
      ],
      "logsBloom": "0x00000000000000000000000000000000000000000000000000000000000008000000000000000000000000000000000000000000000000000000000000000000000000000000000000000000000000000000000008000000000000000000000000000000000000000000000000000000000000000000000000000000000000020000000000000000000000000000000000000000000000000000000000000000000000000000000000000000000400000008000000000000000000000000400000000100000000000000000000000000000000000000000000000000000000002000000000000000000000000000000000000000000200000000000000000000",
      "type": "0x2",
      "transactionHash": "0x3516df71322f67d5aefdddf10b6325ed11b2a76c6af46d8f6a4fbdb8b53352e0",
      "transactionIndex": "0x87",
      "blockHash": "0x9cc2d25908a8c466c9a8eea48c133a65a613d137e286960b0ccbfb5fdd9f630b",
      "blockNumber": "0x18eadbb",
      "gasUsed": "0x1248c",
      "effectiveGasPrice": "0x3d1141",
      "from": "0x94aba23b9bbfe7bb62a9eb8b1215d72b5f6f33a1",
      "to": "0x5a44dce25ab945b625e6a92f9e95beac953033df",
      "contractAddress": null,
      "l1BaseFeeScalar": "0x8dd",
      "l1BlobBaseFee": "0x40897",
      "l1BlobBaseFeeScalar": "0x101c12",
      "l1Fee": "0xb6012179",
      "l1GasPrice": "0x31acdbcd",
      "l1GasUsed": "0x640"
    },
    {
      "status": "0x1",
      "cumulativeGasUsed": "0x21ecd35",
      "logs": [
        {
          "address": "0x5a44dce25ab945b625e6a92f9e95beac953033df",
          "topics": [
            "0xddf252ad1be2c89b69c2b068fc378daa952ba7f163c4a11628f55a4df523b3ef",
            "0x0000000000000000000000000000000000000000000000000000000000000000",
            "0x00000000000000000000000094aba23b9bbfe7bb62a9eb8b1215d72b5f6f33a1"
          ],
          "data": "0x0000000000000000000000000000000000000000000000000000000005f5e100",
          "blockHash": "0x9cc2d25908a8c466c9a8eea48c133a65a613d137e286960b0ccbfb5fdd9f630b",
          "blockNumber": "0x18eadbb",
          "blockTimestamp": "0x67a7b859",
          "transactionHash": "0xd02539b42140dd4716b3721683efe9979b8cf804c56b9996c65be3f5d7f1ae19",
          "transactionIndex": "0x88",
          "logIndex": "0x17e",
          "removed": false
        }
      ],
      "logsBloom": "0x00000000000000000000000000000000000000000000000000000000000008000000000000000000000000000000000000000000000000000000000000000000000000080002000000000008000000000000000000000000000000000000000000000000020000000000000000000800000000000000000000000010000000000000000000000000000000000000000000000000000000000000000000000000000000000000000000000000000000000000000000000000000000000000400000000102000000000000000000000000000000000000000000000000000020000000000000000000001000000000000000000000000000000000000000000000",
      "type": "0x2",
      "transactionHash": "0xd02539b42140dd4716b3721683efe9979b8cf804c56b9996c65be3f5d7f1ae19",
      "transactionIndex": "0x88",
      "blockHash": "0x9cc2d25908a8c466c9a8eea48c133a65a613d137e286960b0ccbfb5fdd9f630b",
      "blockNumber": "0x18eadbb",
      "gasUsed": "0x11c64",
      "effectiveGasPrice": "0x3d1141",
      "from": "0x94aba23b9bbfe7bb62a9eb8b1215d72b5f6f33a1",
      "to": "0x5a44dce25ab945b625e6a92f9e95beac953033df",
      "contractAddress": null,
      "l1BaseFeeScalar": "0x8dd",
      "l1BlobBaseFee": "0x40897",
      "l1BlobBaseFeeScalar": "0x101c12",
      "l1Fee": "0xb6012179",
      "l1GasPrice": "0x31acdbcd",
      "l1GasUsed": "0x640"
    },
    {
      "status": "0x1",
      "cumulativeGasUsed": "0x21f8249",
      "logs": [
        {
          "address": "0x5a44dce25ab945b625e6a92f9e95beac953033df",
          "topics": [
            "0x8c5be1e5ebec7d5bd14f71427d1e84f3dd0314c0f7b2291e5b200ac8c7c3b925",
            "0x00000000000000000000000094aba23b9bbfe7bb62a9eb8b1215d72b5f6f33a1",
            "0x000000000000000000000000881e3a65b4d4a04dd529061dd0071cf975f58bcd"
          ],
          "data": "0x0000000000000000000000000000000000000000000000000000000005f5e100",
          "blockHash": "0x9cc2d25908a8c466c9a8eea48c133a65a613d137e286960b0ccbfb5fdd9f630b",
          "blockNumber": "0x18eadbb",
          "blockTimestamp": "0x67a7b859",
          "transactionHash": "0x783f7bed6b8561b7b1394717435930c9e8b9d956ae63e4ecd2ab29a0d781f4b2",
          "transactionIndex": "0x89",
          "logIndex": "0x17f",
          "removed": false
        }
      ],
      "logsBloom": "0x00000000000000000000000000000000000100000000000000000000000008000000000000000000000000000000000000000000000000000000000000200000000000080002000000000000000000000000000000000000000000000000000000000000000000000000000000000000000000000400000000000000000000000000000000000000000000000000000000000000000000000000000000000000020000000000000000000000000000000000000000000000000000000000400000000100000000000000000000000000000000000000000000000000000000000010000000000000001000000008000000000000000000000000000000000000",
      "type": "0x2",
      "transactionHash": "0x783f7bed6b8561b7b1394717435930c9e8b9d956ae63e4ecd2ab29a0d781f4b2",
      "transactionIndex": "0x89",
      "blockHash": "0x9cc2d25908a8c466c9a8eea48c133a65a613d137e286960b0ccbfb5fdd9f630b",
      "blockNumber": "0x18eadbb",
      "gasUsed": "0xb514",
      "effectiveGasPrice": "0x3d1141",
      "from": "0x94aba23b9bbfe7bb62a9eb8b1215d72b5f6f33a1",
      "to": "0x5a44dce25ab945b625e6a92f9e95beac953033df",
      "contractAddress": null,
      "l1BaseFeeScalar": "0x8dd",
      "l1BlobBaseFee": "0x40897",
      "l1BlobBaseFeeScalar": "0x101c12",
      "l1Fee": "0xb6012179",
      "l1GasPrice": "0x31acdbcd",
      "l1GasUsed": "0x640"
    },
    {
      "status": "0x1",
      "cumulativeGasUsed": "0x222c016",
      "logs": [
        {
          "address": "0x4200000000000000000000000000000000000006",
          "topics": [
            "0xe1fffcc4923d04b559f4d29a8bfc6cda04eb5b0d3c460751c2402c5c5cc9109c",
            "0x000000000000000000000000881e3a65b4d4a04dd529061dd0071cf975f58bcd"
          ],
          "data": "0x000000000000000000000000000000000000000000000000000058f56da8d633",
          "blockHash": "0x9cc2d25908a8c466c9a8eea48c133a65a613d137e286960b0ccbfb5fdd9f630b",
          "blockNumber": "0x18eadbb",
          "blockTimestamp": "0x67a7b859",
          "transactionHash": "0x25cce84893b44075397f944d44ac1b50ab72b31787413c5d1b1268897a43a3c3",
          "transactionIndex": "0x8a",
          "logIndex": "0x180",
          "removed": false
        },
        {
          "address": "0x4200000000000000000000000000000000000006",
          "topics": [
            "0xddf252ad1be2c89b69c2b068fc378daa952ba7f163c4a11628f55a4df523b3ef",
            "0x000000000000000000000000881e3a65b4d4a04dd529061dd0071cf975f58bcd",
            "0x000000000000000000000000d3bde678bb706cf727a512515c254bcf021dd203"
          ],
          "data": "0x000000000000000000000000000000000000000000000000000058f56da8d633",
          "blockHash": "0x9cc2d25908a8c466c9a8eea48c133a65a613d137e286960b0ccbfb5fdd9f630b",
          "blockNumber": "0x18eadbb",
          "blockTimestamp": "0x67a7b859",
          "transactionHash": "0x25cce84893b44075397f944d44ac1b50ab72b31787413c5d1b1268897a43a3c3",
          "transactionIndex": "0x8a",
          "logIndex": "0x181",
          "removed": false
        },
        {
          "address": "0x5a44dce25ab945b625e6a92f9e95beac953033df",
          "topics": [
            "0x8c5be1e5ebec7d5bd14f71427d1e84f3dd0314c0f7b2291e5b200ac8c7c3b925",
            "0x00000000000000000000000094aba23b9bbfe7bb62a9eb8b1215d72b5f6f33a1",
            "0x000000000000000000000000881e3a65b4d4a04dd529061dd0071cf975f58bcd"
          ],
          "data": "0x0000000000000000000000000000000000000000000000000000000000000000",
          "blockHash": "0x9cc2d25908a8c466c9a8eea48c133a65a613d137e286960b0ccbfb5fdd9f630b",
          "blockNumber": "0x18eadbb",
          "blockTimestamp": "0x67a7b859",
          "transactionHash": "0x25cce84893b44075397f944d44ac1b50ab72b31787413c5d1b1268897a43a3c3",
          "transactionIndex": "0x8a",
          "logIndex": "0x182",
          "removed": false
        },
        {
          "address": "0x5a44dce25ab945b625e6a92f9e95beac953033df",
          "topics": [
            "0xddf252ad1be2c89b69c2b068fc378daa952ba7f163c4a11628f55a4df523b3ef",
            "0x00000000000000000000000094aba23b9bbfe7bb62a9eb8b1215d72b5f6f33a1",
            "0x0000000000000000000000006b4e324d91bc3ffe7b398b674b3a8f32bf43cb1a"
          ],
          "data": "0x0000000000000000000000000000000000000000000000000000000005f5e100",
          "blockHash": "0x9cc2d25908a8c466c9a8eea48c133a65a613d137e286960b0ccbfb5fdd9f630b",
          "blockNumber": "0x18eadbb",
          "blockTimestamp": "0x67a7b859",
          "transactionHash": "0x25cce84893b44075397f944d44ac1b50ab72b31787413c5d1b1268897a43a3c3",
          "transactionIndex": "0x8a",
          "logIndex": "0x183",
          "removed": false
        },
        {
          "address": "0x5a44dce25ab945b625e6a92f9e95beac953033df",
          "topics": [
            "0xddf252ad1be2c89b69c2b068fc378daa952ba7f163c4a11628f55a4df523b3ef",
            "0x0000000000000000000000006b4e324d91bc3ffe7b398b674b3a8f32bf43cb1a",
            "0x0000000000000000000000000000000000000000000000000000000000000000"
          ],
          "data": "0x0000000000000000000000000000000000000000000000000000000005f5e100",
          "blockHash": "0x9cc2d25908a8c466c9a8eea48c133a65a613d137e286960b0ccbfb5fdd9f630b",
          "blockNumber": "0x18eadbb",
          "blockTimestamp": "0x67a7b859",
          "transactionHash": "0x25cce84893b44075397f944d44ac1b50ab72b31787413c5d1b1268897a43a3c3",
          "transactionIndex": "0x8a",
          "logIndex": "0x184",
          "removed": false
        },
        {
          "address": "0x6b4e324d91bc3ffe7b398b674b3a8f32bf43cb1a",
          "topics": [
            "0x696de425f79f4a40bc6d2122ca50507f0efbeabbff86a84871b7196ab8ea8df7",
            "0x000000000000000000000000d3bde678bb706cf727a512515c254bcf021dd203"
          ],
          "data": "0x0000000000000000000000000000000000000000000000000000000005f5e100",
          "blockHash": "0x9cc2d25908a8c466c9a8eea48c133a65a613d137e286960b0ccbfb5fdd9f630b",
          "blockNumber": "0x18eadbb",
          "blockTimestamp": "0x67a7b859",
          "transactionHash": "0x25cce84893b44075397f944d44ac1b50ab72b31787413c5d1b1268897a43a3c3",
          "transactionIndex": "0x8a",
          "logIndex": "0x185",
          "removed": false
        },
        {
          "address": "0xd3bde678bb706cf727a512515c254bcf021dd203",
          "topics": [
            "0xd0c3c799bf9e2639de44391e7f524d229b2b55f5b1ea94b2bf7da42f7243dddd"
          ],
          "data": "0x0000000000000000000000000000000000000000000000000000000000000020000000000000000000000000000000000000000000000000dda641cfe44aff8200000000000000000000000094aba23b9bbfe7bb62a9eb8b1215d72b5f6f33a100000000000000000000000094aba23b9bbfe7bb62a9eb8b1215d72b5f6f33a10000000000000000000000000000000000000000000000000000000000000cbd0000000000000000000000000000000000000000000000000000000000030d40000000000000000000000000000000000000000000000000000000000000000000000000000000000000000000000000000000000000000000000000000000010000000000000000000000004200000000000000000000000000000000000006000000000000000000000000000000000000000000000000000058f56da8d63300000000000000000000000000000000000000000000000000000000000001a000000000000000000000000000000000000000000000000000000000000001c00000000000000000000000000000000000000000000000000000000000000220d4172af0821355433d4aa6930f71478a03b1ad4819f70a0e337ffd89e035ca60000000000000000000000000000000000000000000000000000000000000000000000000000000000000000000000000000000000000000000000000000000010000000000000000000000005a44dce25ab945b625e6a92f9e95beac953033df0000000000000000000000000000000000000000000000000000000005f5e1000000000000000000000000000000000000000000000000000000000000000001000000000000000000000000000000000000000000000000000000000000002000000000000000000000000000000000000000000000000000000000000001600000000000000000000000000000000000000000000000000000000000000020000000000000000000000000000000000000000000000000000000000000008000000000000000000000000000000000000000000000000000000000000000c000000000000000000000000000000000000000000000000000000000000001000000000000000000000000000000000000000000000000000000000000015f9000000000000000000000000000000000000000000000000000000000000000200000000000000000000000006b4e324d91bc3ffe7b398b674b3a8f32bf43cb1a0000000000000000000000000000000000000000000000000000000000000020000000000000000000000000063540daf095a99feab73f3b24241ac362a1fc5800000000000000000000000000000000000000000000000000000000000000200000000000000000000000000000000000000000000000000000000000000006",
          "blockHash": "0x9cc2d25908a8c466c9a8eea48c133a65a613d137e286960b0ccbfb5fdd9f630b",
          "blockNumber": "0x18eadbb",
          "blockTimestamp": "0x67a7b859",
          "transactionHash": "0x25cce84893b44075397f944d44ac1b50ab72b31787413c5d1b1268897a43a3c3",
          "transactionIndex": "0x8a",
          "logIndex": "0x186",
          "removed": false
        }
      ],
      "logsBloom": "0x00000000000000000000000000000000000100000000000000040000000088000000000020000000002000100000000000000000000000002000000000200000000000080002000000000008020000000000000000000000000000008000000000000000860000020000000000000802000000000400000000000010000000020000000000000000000000000000000000000001002000000000000000010000020000000000000400000000000000000008000000000000000100000000400000000102000000000000000000000000000000000000000000000000000020000010000002000000001000000008010004000000000200400000000000000000",
      "type": "0x2",
      "transactionHash": "0x25cce84893b44075397f944d44ac1b50ab72b31787413c5d1b1268897a43a3c3",
      "transactionIndex": "0x8a",
      "blockHash": "0x9cc2d25908a8c466c9a8eea48c133a65a613d137e286960b0ccbfb5fdd9f630b",
      "blockNumber": "0x18eadbb",
      "gasUsed": "0x33dcd",
      "effectiveGasPrice": "0x3d1141",
      "from": "0x94aba23b9bbfe7bb62a9eb8b1215d72b5f6f33a1",
      "to": "0x881e3a65b4d4a04dd529061dd0071cf975f58bcd",
      "contractAddress": null,
      "l1BaseFeeScalar": "0x8dd",
      "l1BlobBaseFee": "0x40897",
      "l1BlobBaseFeeScalar": "0x101c12",
      "l1Fee": "0x14d8ef381",
      "l1GasPrice": "0x31acdbcd",
      "l1GasUsed": "0xb74"
    }
  ],
  "libraries": [],
  "pending": [],
  "returns": {},
  "timestamp": 1739044921,
  "chain": 8453,
  "commit": "5626a86"
}