{
  "transactions": [
    {
      "hash": "0x4d22cafe69369c4e382b3ab6603e23aaa3edca84eca394fe16e3968bc04d6486",
      "transactionType": "CALL",
      "contractName": null,
      "contractAddress": "0x5a44dce25ab945b625e6a92f9e95beac953033df",
      "function": "mint(address,uint256)",
      "arguments": [
        "0x94aBa23b9Bbfe7bb62A9eB8b1215D72b5f6F33a1",
        "100000000"
      ],
      "transaction": {
        "from": "0x94aba23b9bbfe7bb62a9eb8b1215d72b5f6f33a1",
        "to": "0x5a44dce25ab945b625e6a92f9e95beac953033df",
        "gas": "0x188d0",
        "value": "0x0",
        "input": "0x40c10f1900000000000000000000000094aba23b9bbfe7bb62a9eb8b1215d72b5f6f33a10000000000000000000000000000000000000000000000000000000005f5e100",
        "nonce": "0xd9",
        "chainId": "0x2105"
      },
      "additionalContracts": [],
      "isFixedGasLimit": false
    },
    {
      "hash": "0x743b927347a2e0ec932c5eb0f7727a386fa3c325131d04198065101778edde33",
      "transactionType": "CALL",
      "contractName": null,
      "contractAddress": "0x5a44dce25ab945b625e6a92f9e95beac953033df",
      "function": "approve(address,uint256)",
      "arguments": [
        "0x881e3A65B4d4a04dD529061dd0071cf975F58bCD",
        "100000000"
      ],
      "transaction": {
        "from": "0x94aba23b9bbfe7bb62a9eb8b1215d72b5f6f33a1",
        "to": "0x5a44dce25ab945b625e6a92f9e95beac953033df",
        "gas": "0xfa1c",
        "value": "0x0",
        "input": "0x095ea7b3000000000000000000000000881e3a65b4d4a04dd529061dd0071cf975f58bcd0000000000000000000000000000000000000000000000000000000005f5e100",
        "nonce": "0xda",
        "chainId": "0x2105"
      },
      "additionalContracts": [],
      "isFixedGasLimit": false
    },
    {
      "hash": "0x2b6e9171525734ff560f773cf1e3531b64140db87b7ce58bf4038f88acf4c415",
      "transactionType": "CALL",
      "contractName": null,
      "contractAddress": "0x881e3a65b4d4a04dd529061dd0071cf975f58bcd",
      "function": "ccipSend(uint64,(bytes,bytes,(address,uint256)[],address,bytes))",
      "arguments": [
        "3734403246176062136",
        "(0x00000000000000000000000094aba23b9bbfe7bb62a9eb8b1215d72b5f6f33a1, 0x, [(0x5a44dCE25ab945b625e6A92f9E95Beac953033df, 100000000)], 0x0000000000000000000000000000000000000000, 0x181dcf100000000000000000000000000000000000000000000000000000000000030d400000000000000000000000000000000000000000000000000000000000000000)"
      ],
      "transaction": {
        "from": "0x94aba23b9bbfe7bb62a9eb8b1215d72b5f6f33a1",
        "to": "0x881e3a65b4d4a04dd529061dd0071cf975f58bcd",
        "gas": "0x4c6c0",
        "value": "0x56d455af9deb",
        "input": "0x96f4e9f900000000000000000000000000000000000000000000000033d343f77863cab8000000000000000000000000000000000000000000000000000000000000004000000000000000000000000000000000000000000000000000000000000000a000000000000000000000000000000000000000000000000000000000000000e0000000000000000000000000000000000000000000000000000000000000010000000000000000000000000000000000000000000000000000000000000000000000000000000000000000000000000000000000000000000000000000000160000000000000000000000000000000000000000000000000000000000000002000000000000000000000000094aba23b9bbfe7bb62a9eb8b1215d72b5f6f33a1000000000000000000000000000000000000000000000000000000000000000000000000000000000000000000000000000000000000000000000000000000010000000000000000000000005a44dce25ab945b625e6a92f9e95beac953033df0000000000000000000000000000000000000000000000000000000005f5e1000000000000000000000000000000000000000000000000000000000000000044181dcf100000000000000000000000000000000000000000000000000000000000030d40000000000000000000000000000000000000000000000000000000000000000000000000000000000000000000000000000000000000000000000000",
        "nonce": "0xdb",
        "chainId": "0x2105"
      },
      "additionalContracts": [],
      "isFixedGasLimit": false
    }
  ],
  "receipts": [
    {
      "status": "0x1",
      "cumulativeGasUsed": "0x25ad22e",
      "logs": [
        {
          "address": "0x5a44dce25ab945b625e6a92f9e95beac953033df",
          "topics": [
            "0xddf252ad1be2c89b69c2b068fc378daa952ba7f163c4a11628f55a4df523b3ef",
            "0x0000000000000000000000000000000000000000000000000000000000000000",
            "0x00000000000000000000000094aba23b9bbfe7bb62a9eb8b1215d72b5f6f33a1"
          ],
          "data": "0x0000000000000000000000000000000000000000000000000000000005f5e100",
          "blockHash": "0xbbaf0b44af998fd37cd3e9fa14ea637628f90b92ac5a90cdf085bd7d67cff685",
          "blockNumber": "0x18eb5d8",
          "blockTimestamp": "0x67a7c893",
          "transactionHash": "0x4d22cafe69369c4e382b3ab6603e23aaa3edca84eca394fe16e3968bc04d6486",
          "transactionIndex": "0x7c",
          "logIndex": "0x129",
          "removed": false
        }
      ],
      "logsBloom": "0x00000000000000000000000000000000000000000000000000000000000008000000000000000000000000000000000000000000000000000000000000000000000000080002000000000008000000000000000000000000000000000000000000000000020000000000000000000800000000000000000000000010000000000000000000000000000000000000000000000000000000000000000000000000000000000000000000000000000000000000000000000000000000000000400000000102000000000000000000000000000000000000000000000000000020000000000000000000001000000000000000000000000000000000000000000000",
      "type": "0x2",
      "transactionHash": "0x4d22cafe69369c4e382b3ab6603e23aaa3edca84eca394fe16e3968bc04d6486",
      "transactionIndex": "0x7c",
      "blockHash": "0xbbaf0b44af998fd37cd3e9fa14ea637628f90b92ac5a90cdf085bd7d67cff685",
      "blockNumber": "0x18eb5d8",
      "gasUsed": "0x11c64",
      "effectiveGasPrice": "0x3fea3f",
      "from": "0x94aba23b9bbfe7bb62a9eb8b1215d72b5f6f33a1",
      "to": "0x5a44dce25ab945b625e6a92f9e95beac953033df",
      "contractAddress": null,
      "l1BaseFeeScalar": "0x8dd",
      "l1BlobBaseFee": "0x1cfe",
      "l1BlobBaseFeeScalar": "0x101c12",
      "l1Fee": "0xab70719f",
      "l1GasPrice": "0x2f35dad4",
      "l1GasUsed": "0x640"
    },
    {
      "status": "0x1",
      "cumulativeGasUsed": "0x25b8742",
      "logs": [
        {
          "address": "0x5a44dce25ab945b625e6a92f9e95beac953033df",
          "topics": [
            "0x8c5be1e5ebec7d5bd14f71427d1e84f3dd0314c0f7b2291e5b200ac8c7c3b925",
            "0x00000000000000000000000094aba23b9bbfe7bb62a9eb8b1215d72b5f6f33a1",
            "0x000000000000000000000000881e3a65b4d4a04dd529061dd0071cf975f58bcd"
          ],
          "data": "0x0000000000000000000000000000000000000000000000000000000005f5e100",
          "blockHash": "0xbbaf0b44af998fd37cd3e9fa14ea637628f90b92ac5a90cdf085bd7d67cff685",
          "blockNumber": "0x18eb5d8",
          "blockTimestamp": "0x67a7c893",
          "transactionHash": "0x743b927347a2e0ec932c5eb0f7727a386fa3c325131d04198065101778edde33",
          "transactionIndex": "0x7d",
          "logIndex": "0x12a",
          "removed": false
        }
      ],
      "logsBloom": "0x00000000000000000000000000000000000100000000000000000000000008000000000000000000000000000000000000000000000000000000000000200000000000080002000000000000000000000000000000000000000000000000000000000000000000000000000000000000000000000400000000000000000000000000000000000000000000000000000000000000000000000000000000000000020000000000000000000000000000000000000000000000000000000000400000000100000000000000000000000000000000000000000000000000000000000010000000000000001000000008000000000000000000000000000000000000",
      "type": "0x2",
      "transactionHash": "0x743b927347a2e0ec932c5eb0f7727a386fa3c325131d04198065101778edde33",
      "transactionIndex": "0x7d",
      "blockHash": "0xbbaf0b44af998fd37cd3e9fa14ea637628f90b92ac5a90cdf085bd7d67cff685",
      "blockNumber": "0x18eb5d8",
      "gasUsed": "0xb514",
      "effectiveGasPrice": "0x3fea3f",
      "from": "0x94aba23b9bbfe7bb62a9eb8b1215d72b5f6f33a1",
      "to": "0x5a44dce25ab945b625e6a92f9e95beac953033df",
      "contractAddress": null,
      "l1BaseFeeScalar": "0x8dd",
      "l1BlobBaseFee": "0x1cfe",
      "l1BlobBaseFeeScalar": "0x101c12",
      "l1Fee": "0xab70719f",
      "l1GasPrice": "0x2f35dad4",
      "l1GasUsed": "0x640"
    },
    {
      "status": "0x1",
      "cumulativeGasUsed": "0x25ecb54",
      "logs": [
        {
          "address": "0x4200000000000000000000000000000000000006",
          "topics": [
            "0xe1fffcc4923d04b559f4d29a8bfc6cda04eb5b0d3c460751c2402c5c5cc9109c",
            "0x000000000000000000000000881e3a65b4d4a04dd529061dd0071cf975f58bcd"
          ],
          "data": "0x000000000000000000000000000000000000000000000000000056d455af9deb",
          "blockHash": "0xbbaf0b44af998fd37cd3e9fa14ea637628f90b92ac5a90cdf085bd7d67cff685",
          "blockNumber": "0x18eb5d8",
          "blockTimestamp": "0x67a7c893",
          "transactionHash": "0x2b6e9171525734ff560f773cf1e3531b64140db87b7ce58bf4038f88acf4c415",
          "transactionIndex": "0x7e",
          "logIndex": "0x12b",
          "removed": false
        },
        {
          "address": "0x4200000000000000000000000000000000000006",
          "topics": [
            "0xddf252ad1be2c89b69c2b068fc378daa952ba7f163c4a11628f55a4df523b3ef",
            "0x000000000000000000000000881e3a65b4d4a04dd529061dd0071cf975f58bcd",
            "0x000000000000000000000000362e6be957c18e268ad91046ca6b47eb09ad98c1"
          ],
          "data": "0x000000000000000000000000000000000000000000000000000056d455af9deb",
          "blockHash": "0xbbaf0b44af998fd37cd3e9fa14ea637628f90b92ac5a90cdf085bd7d67cff685",
          "blockNumber": "0x18eb5d8",
          "blockTimestamp": "0x67a7c893",
          "transactionHash": "0x2b6e9171525734ff560f773cf1e3531b64140db87b7ce58bf4038f88acf4c415",
          "transactionIndex": "0x7e",
          "logIndex": "0x12c",
          "removed": false
        },
        {
          "address": "0x5a44dce25ab945b625e6a92f9e95beac953033df",
          "topics": [
            "0x8c5be1e5ebec7d5bd14f71427d1e84f3dd0314c0f7b2291e5b200ac8c7c3b925",
            "0x00000000000000000000000094aba23b9bbfe7bb62a9eb8b1215d72b5f6f33a1",
            "0x000000000000000000000000881e3a65b4d4a04dd529061dd0071cf975f58bcd"
          ],
          "data": "0x0000000000000000000000000000000000000000000000000000000000000000",
          "blockHash": "0xbbaf0b44af998fd37cd3e9fa14ea637628f90b92ac5a90cdf085bd7d67cff685",
          "blockNumber": "0x18eb5d8",
          "blockTimestamp": "0x67a7c893",
          "transactionHash": "0x2b6e9171525734ff560f773cf1e3531b64140db87b7ce58bf4038f88acf4c415",
          "transactionIndex": "0x7e",
          "logIndex": "0x12d",
          "removed": false
        },
        {
          "address": "0x5a44dce25ab945b625e6a92f9e95beac953033df",
          "topics": [
            "0xddf252ad1be2c89b69c2b068fc378daa952ba7f163c4a11628f55a4df523b3ef",
            "0x00000000000000000000000094aba23b9bbfe7bb62a9eb8b1215d72b5f6f33a1",
            "0x0000000000000000000000006b4e324d91bc3ffe7b398b674b3a8f32bf43cb1a"
          ],
          "data": "0x0000000000000000000000000000000000000000000000000000000005f5e100",
          "blockHash": "0xbbaf0b44af998fd37cd3e9fa14ea637628f90b92ac5a90cdf085bd7d67cff685",
          "blockNumber": "0x18eb5d8",
          "blockTimestamp": "0x67a7c893",
          "transactionHash": "0x2b6e9171525734ff560f773cf1e3531b64140db87b7ce58bf4038f88acf4c415",
          "transactionIndex": "0x7e",
          "logIndex": "0x12e",
          "removed": false
        },
        {
          "address": "0x5a44dce25ab945b625e6a92f9e95beac953033df",
          "topics": [
            "0xddf252ad1be2c89b69c2b068fc378daa952ba7f163c4a11628f55a4df523b3ef",
            "0x0000000000000000000000006b4e324d91bc3ffe7b398b674b3a8f32bf43cb1a",
            "0x0000000000000000000000000000000000000000000000000000000000000000"
          ],
          "data": "0x0000000000000000000000000000000000000000000000000000000005f5e100",
          "blockHash": "0xbbaf0b44af998fd37cd3e9fa14ea637628f90b92ac5a90cdf085bd7d67cff685",
          "blockNumber": "0x18eb5d8",
          "blockTimestamp": "0x67a7c893",
          "transactionHash": "0x2b6e9171525734ff560f773cf1e3531b64140db87b7ce58bf4038f88acf4c415",
          "transactionIndex": "0x7e",
          "logIndex": "0x12f",
          "removed": false
        },
        {
          "address": "0x6b4e324d91bc3ffe7b398b674b3a8f32bf43cb1a",
          "topics": [
            "0x696de425f79f4a40bc6d2122ca50507f0efbeabbff86a84871b7196ab8ea8df7",
            "0x000000000000000000000000362e6be957c18e268ad91046ca6b47eb09ad98c1"
          ],
          "data": "0x0000000000000000000000000000000000000000000000000000000005f5e100",
          "blockHash": "0xbbaf0b44af998fd37cd3e9fa14ea637628f90b92ac5a90cdf085bd7d67cff685",
          "blockNumber": "0x18eb5d8",
          "blockTimestamp": "0x67a7c893",
          "transactionHash": "0x2b6e9171525734ff560f773cf1e3531b64140db87b7ce58bf4038f88acf4c415",
          "transactionIndex": "0x7e",
          "logIndex": "0x130",
          "removed": false
        },
        {
          "address": "0x362e6be957c18e268ad91046ca6b47eb09ad98c1",
          "topics": [
            "0xd0c3c799bf9e2639de44391e7f524d229b2b55f5b1ea94b2bf7da42f7243dddd"
          ],
          "data": "0x0000000000000000000000000000000000000000000000000000000000000020000000000000000000000000000000000000000000000000dda641cfe44aff8200000000000000000000000094aba23b9bbfe7bb62a9eb8b1215d72b5f6f33a100000000000000000000000094aba23b9bbfe7bb62a9eb8b1215d72b5f6f33a100000000000000000000000000000000000000000000000000000000000002800000000000000000000000000000000000000000000000000000000000030d40000000000000000000000000000000000000000000000000000000000000000000000000000000000000000000000000000000000000000000000000000000010000000000000000000000004200000000000000000000000000000000000006000000000000000000000000000000000000000000000000000056d455af9deb00000000000000000000000000000000000000000000000000000000000001a000000000000000000000000000000000000000000000000000000000000001c000000000000000000000000000000000000000000000000000000000000002209a0902937e08ca6aa44253142048258475f29870132e60f4c9557bc834295d20000000000000000000000000000000000000000000000000000000000000000000000000000000000000000000000000000000000000000000000000000000010000000000000000000000005a44dce25ab945b625e6a92f9e95beac953033df0000000000000000000000000000000000000000000000000000000005f5e1000000000000000000000000000000000000000000000000000000000000000001000000000000000000000000000000000000000000000000000000000000002000000000000000000000000000000000000000000000000000000000000001600000000000000000000000000000000000000000000000000000000000000020000000000000000000000000000000000000000000000000000000000000008000000000000000000000000000000000000000000000000000000000000000c000000000000000000000000000000000000000000000000000000000000001000000000000000000000000000000000000000000000000000000000000015f9000000000000000000000000000000000000000000000000000000000000000200000000000000000000000006b4e324d91bc3ffe7b398b674b3a8f32bf43cb1a0000000000000000000000000000000000000000000000000000000000000020000000000000000000000000c151a8a6a14a746b64c7a5dd7ad1022de3ecf45800000000000000000000000000000000000000000000000000000000000000200000000000000000000000000000000000000000000000000000000000000006",
          "blockHash": "0xbbaf0b44af998fd37cd3e9fa14ea637628f90b92ac5a90cdf085bd7d67cff685",
          "blockNumber": "0x18eb5d8",
          "blockTimestamp": "0x67a7c893",
          "transactionHash": "0x2b6e9171525734ff560f773cf1e3531b64140db87b7ce58bf4038f88acf4c415",
          "transactionIndex": "0x7e",
          "logIndex": "0x131",
          "removed": false
        }
      ],
      "logsBloom": "0x0000000000000000000020000000000000010000000000000004000000008800000000002000000000200010000000000000000000000000000000000020000000000008000a000000000008000000000000000000000000000000018000000000000000060000000000000000000802000000000400000000000010000000020000000000000000000000000000000000000001002000000000000000010000020000400000000400000000000000000008000010000000000108000000400000000102000000000000000000000000000000000000000000000000000020000010000000000000001000000008000004000000000200400000000000000000",
      "type": "0x2",
      "transactionHash": "0x2b6e9171525734ff560f773cf1e3531b64140db87b7ce58bf4038f88acf4c415",
      "transactionIndex": "0x7e",
      "blockHash": "0xbbaf0b44af998fd37cd3e9fa14ea637628f90b92ac5a90cdf085bd7d67cff685",
      "blockNumber": "0x18eb5d8",
      "gasUsed": "0x34412",
      "effectiveGasPrice": "0x3fea3f",
      "from": "0x94aba23b9bbfe7bb62a9eb8b1215d72b5f6f33a1",
      "to": "0x881e3a65b4d4a04dd529061dd0071cf975f58bcd",
      "contractAddress": null,
      "l1BaseFeeScalar": "0x8dd",
      "l1BlobBaseFee": "0x1cfe",
      "l1BlobBaseFeeScalar": "0x101c12",
      "l1Fee": "0x13a321672",
      "l1GasPrice": "0x2f35dad4",
      "l1GasUsed": "0xb74"
    }
  ],
  "libraries": [],
  "pending": [],
  "returns": {},
  "timestamp": 1739049075,
  "chain": 8453,
  "commit": "5626a86"
}