{
  "transactions": [
    {
      "hash": "0x448af5f14c834ad7099dbcd4795ce388e7ef7d9a620b8e225284fe1e4595ca71",
      "transactionType": "CALL",
      "contractName": null,
      "contractAddress": "0x5a44dce25ab945b625e6a92f9e95beac953033df",
      "function": "mint(address,uint256)",
      "arguments": [
        "0x94aBa23b9Bbfe7bb62A9eB8b1215D72b5f6F33a1",
        "100000000"
      ],
      "transaction": {
        "from": "0x94aba23b9bbfe7bb62a9eb8b1215d72b5f6f33a1",
        "to": "0x5a44dce25ab945b625e6a92f9e95beac953033df",
        "gas": "0x188d0",
        "value": "0x0",
        "input": "0x40c10f1900000000000000000000000094aba23b9bbfe7bb62a9eb8b1215d72b5f6f33a10000000000000000000000000000000000000000000000000000000005f5e100",
        "nonce": "0xdc",
        "chainId": "0x2105"
      },
      "additionalContracts": [],
      "isFixedGasLimit": false
    },
    {
      "hash": "0x58b4d2091c07499d06fa26c82146f6c7f40bd129806b71b698af19680a4ce6e3",
      "transactionType": "CALL",
      "contractName": null,
      "contractAddress": "0x5a44dce25ab945b625e6a92f9e95beac953033df",
      "function": "approve(address,uint256)",
      "arguments": [
        "0x881e3A65B4d4a04dD529061dd0071cf975F58bCD",
        "100000000"
      ],
      "transaction": {
        "from": "0x94aba23b9bbfe7bb62a9eb8b1215d72b5f6f33a1",
        "to": "0x5a44dce25ab945b625e6a92f9e95beac953033df",
        "gas": "0xfa1c",
        "value": "0x0",
        "input": "0x095ea7b3000000000000000000000000881e3a65b4d4a04dd529061dd0071cf975f58bcd0000000000000000000000000000000000000000000000000000000005f5e100",
        "nonce": "0xdd",
        "chainId": "0x2105"
      },
      "additionalContracts": [],
      "isFixedGasLimit": false
    },
    {
      "hash": "0x34378d0a3011fef194f065a346e33d8ad2c50a449793173f3f66f1e5e3b5317a",
      "transactionType": "CALL",
      "contractName": null,
      "contractAddress": "0x881e3a65b4d4a04dd529061dd0071cf975f58bcd",
      "function": "ccipSend(uint64,(bytes,bytes,(address,uint256)[],address,bytes))",
      "arguments": [
        "3734403246176062136",
        "(0x00000000000000000000000094aba23b9bbfe7bb62a9eb8b1215d72b5f6f33a1, 0x, [(0x5a44dCE25ab945b625e6A92f9E95Beac953033df, 100000000)], 0x0000000000000000000000000000000000000000, 0x181dcf100000000000000000000000000000000000000000000000000000000000030d400000000000000000000000000000000000000000000000000000000000000000)"
      ],
      "transaction": {
        "from": "0x94aba23b9bbfe7bb62a9eb8b1215d72b5f6f33a1",
        "to": "0x881e3a65b4d4a04dd529061dd0071cf975f58bcd",
        "gas": "0x40643",
        "value": "0x57450ea35e59",
        "input": "0x96f4e9f900000000000000000000000000000000000000000000000033d343f77863cab8000000000000000000000000000000000000000000000000000000000000004000000000000000000000000000000000000000000000000000000000000000a000000000000000000000000000000000000000000000000000000000000000e0000000000000000000000000000000000000000000000000000000000000010000000000000000000000000000000000000000000000000000000000000000000000000000000000000000000000000000000000000000000000000000000160000000000000000000000000000000000000000000000000000000000000002000000000000000000000000094aba23b9bbfe7bb62a9eb8b1215d72b5f6f33a1000000000000000000000000000000000000000000000000000000000000000000000000000000000000000000000000000000000000000000000000000000010000000000000000000000005a44dce25ab945b625e6a92f9e95beac953033df0000000000000000000000000000000000000000000000000000000005f5e1000000000000000000000000000000000000000000000000000000000000000044181dcf100000000000000000000000000000000000000000000000000000000000030d40000000000000000000000000000000000000000000000000000000000000000000000000000000000000000000000000000000000000000000000000",
        "nonce": "0xde",
        "chainId": "0x2105"
      },
      "additionalContracts": [],
      "isFixedGasLimit": false
    }
  ],
  "receipts": [
    {
      "status": "0x1",
      "cumulativeGasUsed": "0x1dfcf85",
      "logs": [
        {
          "address": "0x5a44dce25ab945b625e6a92f9e95beac953033df",
          "topics": [
            "0xddf252ad1be2c89b69c2b068fc378daa952ba7f163c4a11628f55a4df523b3ef",
            "0x0000000000000000000000000000000000000000000000000000000000000000",
            "0x00000000000000000000000094aba23b9bbfe7bb62a9eb8b1215d72b5f6f33a1"
          ],
          "data": "0x0000000000000000000000000000000000000000000000000000000005f5e100",
          "blockHash": "0x76e93dc42478d3131f527d2dcd5e62b47ca619f373a5120a47c8ab2d63b68590",
          "blockNumber": "0x18ec420",
          "blockTimestamp": "0x67a7e523",
          "transactionHash": "0x448af5f14c834ad7099dbcd4795ce388e7ef7d9a620b8e225284fe1e4595ca71",
          "transactionIndex": "0x77",
          "logIndex": "0x8e",
          "removed": false
        }
      ],
      "logsBloom": "0x00000000000000000000000000000000000000000000000000000000000008000000000000000000000000000000000000000000000000000000000000000000000000080002000000000008000000000000000000000000000000000000000000000000020000000000000000000800000000000000000000000010000000000000000000000000000000000000000000000000000000000000000000000000000000000000000000000000000000000000000000000000000000000000400000000102000000000000000000000000000000000000000000000000000020000000000000000000001000000000000000000000000000000000000000000000",
      "type": "0x2",
      "transactionHash": "0x448af5f14c834ad7099dbcd4795ce388e7ef7d9a620b8e225284fe1e4595ca71",
      "transactionIndex": "0x77",
      "blockHash": "0x76e93dc42478d3131f527d2dcd5e62b47ca619f373a5120a47c8ab2d63b68590",
      "blockNumber": "0x18ec420",
      "gasUsed": "0x11c64",
      "effectiveGasPrice": "0x4031a7",
      "from": "0x94aba23b9bbfe7bb62a9eb8b1215d72b5f6f33a1",
      "to": "0x5a44dce25ab945b625e6a92f9e95beac953033df",
      "contractAddress": null,
      "l1BaseFeeScalar": "0x8dd",
      "l1BlobBaseFee": "0x16",
      "l1BlobBaseFeeScalar": "0x101c12",
      "l1Fee": "0xae3b4ce3",
      "l1GasPrice": "0x2ffe0c06",
      "l1GasUsed": "0x640"
    },
    {
      "status": "0x1",
      "cumulativeGasUsed": "0x1f0d450",
      "logs": [
        {
          "address": "0x5a44dce25ab945b625e6a92f9e95beac953033df",
          "topics": [
            "0x8c5be1e5ebec7d5bd14f71427d1e84f3dd0314c0f7b2291e5b200ac8c7c3b925",
            "0x00000000000000000000000094aba23b9bbfe7bb62a9eb8b1215d72b5f6f33a1",
            "0x000000000000000000000000881e3a65b4d4a04dd529061dd0071cf975f58bcd"
          ],
          "data": "0x0000000000000000000000000000000000000000000000000000000005f5e100",
          "blockHash": "0x76e93dc42478d3131f527d2dcd5e62b47ca619f373a5120a47c8ab2d63b68590",
          "blockNumber": "0x18ec420",
          "blockTimestamp": "0x67a7e523",
          "transactionHash": "0x58b4d2091c07499d06fa26c82146f6c7f40bd129806b71b698af19680a4ce6e3",
          "transactionIndex": "0x7c",
          "logIndex": "0x9b",
          "removed": false
        }
      ],
      "logsBloom": "0x00000000000000000000000000000000000100000000000000000000000008000000000000000000000000000000000000000000000000000000000000200000000000080002000000000000000000000000000000000000000000000000000000000000000000000000000000000000000000000400000000000000000000000000000000000000000000000000000000000000000000000000000000000000020000000000000000000000000000000000000000000000000000000000400000000100000000000000000000000000000000000000000000000000000000000010000000000000001000000008000000000000000000000000000000000000",
      "type": "0x2",
      "transactionHash": "0x58b4d2091c07499d06fa26c82146f6c7f40bd129806b71b698af19680a4ce6e3",
      "transactionIndex": "0x7c",
      "blockHash": "0x76e93dc42478d3131f527d2dcd5e62b47ca619f373a5120a47c8ab2d63b68590",
      "blockNumber": "0x18ec420",
      "gasUsed": "0xb514",
      "effectiveGasPrice": "0x4031a7",
      "from": "0x94aba23b9bbfe7bb62a9eb8b1215d72b5f6f33a1",
      "to": "0x5a44dce25ab945b625e6a92f9e95beac953033df",
      "contractAddress": null,
      "l1BaseFeeScalar": "0x8dd",
      "l1BlobBaseFee": "0x16",
      "l1BlobBaseFeeScalar": "0x101c12",
      "l1Fee": "0xae3b4ce3",
      "l1GasPrice": "0x2ffe0c06",
      "l1GasUsed": "0x640"
    },
    {
      "status": "0x1",
      "cumulativeGasUsed": "0x1f3be35",
      "logs": [
        {
          "address": "0x4200000000000000000000000000000000000006",
          "topics": [
            "0xe1fffcc4923d04b559f4d29a8bfc6cda04eb5b0d3c460751c2402c5c5cc9109c",
            "0x000000000000000000000000881e3a65b4d4a04dd529061dd0071cf975f58bcd"
          ],
          "data": "0x000000000000000000000000000000000000000000000000000057450ea35e59",
          "blockHash": "0x76e93dc42478d3131f527d2dcd5e62b47ca619f373a5120a47c8ab2d63b68590",
          "blockNumber": "0x18ec420",
          "blockTimestamp": "0x67a7e523",
          "transactionHash": "0x34378d0a3011fef194f065a346e33d8ad2c50a449793173f3f66f1e5e3b5317a",
          "transactionIndex": "0x7d",
          "logIndex": "0x9c",
          "removed": false
        },
        {
          "address": "0x4200000000000000000000000000000000000006",
          "topics": [
            "0xddf252ad1be2c89b69c2b068fc378daa952ba7f163c4a11628f55a4df523b3ef",
            "0x000000000000000000000000881e3a65b4d4a04dd529061dd0071cf975f58bcd",
            "0x000000000000000000000000362e6be957c18e268ad91046ca6b47eb09ad98c1"
          ],
          "data": "0x000000000000000000000000000000000000000000000000000057450ea35e59",
          "blockHash": "0x76e93dc42478d3131f527d2dcd5e62b47ca619f373a5120a47c8ab2d63b68590",
          "blockNumber": "0x18ec420",
          "blockTimestamp": "0x67a7e523",
          "transactionHash": "0x34378d0a3011fef194f065a346e33d8ad2c50a449793173f3f66f1e5e3b5317a",
          "transactionIndex": "0x7d",
          "logIndex": "0x9d",
          "removed": false
        },
        {
          "address": "0x5a44dce25ab945b625e6a92f9e95beac953033df",
          "topics": [
            "0x8c5be1e5ebec7d5bd14f71427d1e84f3dd0314c0f7b2291e5b200ac8c7c3b925",
            "0x00000000000000000000000094aba23b9bbfe7bb62a9eb8b1215d72b5f6f33a1",
            "0x000000000000000000000000881e3a65b4d4a04dd529061dd0071cf975f58bcd"
          ],
          "data": "0x0000000000000000000000000000000000000000000000000000000000000000",
          "blockHash": "0x76e93dc42478d3131f527d2dcd5e62b47ca619f373a5120a47c8ab2d63b68590",
          "blockNumber": "0x18ec420",
          "blockTimestamp": "0x67a7e523",
          "transactionHash": "0x34378d0a3011fef194f065a346e33d8ad2c50a449793173f3f66f1e5e3b5317a",
          "transactionIndex": "0x7d",
          "logIndex": "0x9e",
          "removed": false
        },
        {
          "address": "0x5a44dce25ab945b625e6a92f9e95beac953033df",
          "topics": [
            "0xddf252ad1be2c89b69c2b068fc378daa952ba7f163c4a11628f55a4df523b3ef",
            "0x00000000000000000000000094aba23b9bbfe7bb62a9eb8b1215d72b5f6f33a1",
            "0x0000000000000000000000006b4e324d91bc3ffe7b398b674b3a8f32bf43cb1a"
          ],
          "data": "0x0000000000000000000000000000000000000000000000000000000005f5e100",
          "blockHash": "0x76e93dc42478d3131f527d2dcd5e62b47ca619f373a5120a47c8ab2d63b68590",
          "blockNumber": "0x18ec420",
          "blockTimestamp": "0x67a7e523",
          "transactionHash": "0x34378d0a3011fef194f065a346e33d8ad2c50a449793173f3f66f1e5e3b5317a",
          "transactionIndex": "0x7d",
          "logIndex": "0x9f",
          "removed": false
        },
        {
          "address": "0x5a44dce25ab945b625e6a92f9e95beac953033df",
          "topics": [
            "0xddf252ad1be2c89b69c2b068fc378daa952ba7f163c4a11628f55a4df523b3ef",
            "0x0000000000000000000000006b4e324d91bc3ffe7b398b674b3a8f32bf43cb1a",
            "0x0000000000000000000000000000000000000000000000000000000000000000"
          ],
          "data": "0x0000000000000000000000000000000000000000000000000000000005f5e100",
          "blockHash": "0x76e93dc42478d3131f527d2dcd5e62b47ca619f373a5120a47c8ab2d63b68590",
          "blockNumber": "0x18ec420",
          "blockTimestamp": "0x67a7e523",
          "transactionHash": "0x34378d0a3011fef194f065a346e33d8ad2c50a449793173f3f66f1e5e3b5317a",
          "transactionIndex": "0x7d",
          "logIndex": "0xa0",
          "removed": false
        },
        {
          "address": "0x6b4e324d91bc3ffe7b398b674b3a8f32bf43cb1a",
          "topics": [
            "0x696de425f79f4a40bc6d2122ca50507f0efbeabbff86a84871b7196ab8ea8df7",
            "0x000000000000000000000000362e6be957c18e268ad91046ca6b47eb09ad98c1"
          ],
          "data": "0x0000000000000000000000000000000000000000000000000000000005f5e100",
          "blockHash": "0x76e93dc42478d3131f527d2dcd5e62b47ca619f373a5120a47c8ab2d63b68590",
          "blockNumber": "0x18ec420",
          "blockTimestamp": "0x67a7e523",
          "transactionHash": "0x34378d0a3011fef194f065a346e33d8ad2c50a449793173f3f66f1e5e3b5317a",
          "transactionIndex": "0x7d",
          "logIndex": "0xa1",
          "removed": false
        },
        {
          "address": "0x362e6be957c18e268ad91046ca6b47eb09ad98c1",
          "topics": [
            "0xd0c3c799bf9e2639de44391e7f524d229b2b55f5b1ea94b2bf7da42f7243dddd"
          ],
          "data": "0x0000000000000000000000000000000000000000000000000000000000000020000000000000000000000000000000000000000000000000dda641cfe44aff8200000000000000000000000094aba23b9bbfe7bb62a9eb8b1215d72b5f6f33a100000000000000000000000094aba23b9bbfe7bb62a9eb8b1215d72b5f6f33a100000000000000000000000000000000000000000000000000000000000002810000000000000000000000000000000000000000000000000000000000030d40000000000000000000000000000000000000000000000000000000000000000000000000000000000000000000000000000000000000000000000000000000020000000000000000000000004200000000000000000000000000000000000006000000000000000000000000000000000000000000000000000057450ea35e5900000000000000000000000000000000000000000000000000000000000001a000000000000000000000000000000000000000000000000000000000000001c0000000000000000000000000000000000000000000000000000000000000022060c03291985053ca2d517829c91ef28f973ff639a1a8c4336ba06615fca7790e000000000000000000000000000000000000000000000000000000000000000000000000000000000000000000000000000000000000000000000000000000010000000000000000000000005a44dce25ab945b625e6a92f9e95beac953033df0000000000000000000000000000000000000000000000000000000005f5e1000000000000000000000000000000000000000000000000000000000000000001000000000000000000000000000000000000000000000000000000000000002000000000000000000000000000000000000000000000000000000000000001600000000000000000000000000000000000000000000000000000000000000020000000000000000000000000000000000000000000000000000000000000008000000000000000000000000000000000000000000000000000000000000000c000000000000000000000000000000000000000000000000000000000000001000000000000000000000000000000000000000000000000000000000000015f9000000000000000000000000000000000000000000000000000000000000000200000000000000000000000006b4e324d91bc3ffe7b398b674b3a8f32bf43cb1a0000000000000000000000000000000000000000000000000000000000000020000000000000000000000000c151a8a6a14a746b64c7a5dd7ad1022de3ecf45800000000000000000000000000000000000000000000000000000000000000200000000000000000000000000000000000000000000000000000000000000006",
          "blockHash": "0x76e93dc42478d3131f527d2dcd5e62b47ca619f373a5120a47c8ab2d63b68590",
          "blockNumber": "0x18ec420",
          "blockTimestamp": "0x67a7e523",
          "transactionHash": "0x34378d0a3011fef194f065a346e33d8ad2c50a449793173f3f66f1e5e3b5317a",
          "transactionIndex": "0x7d",
          "logIndex": "0xa2",
          "removed": false
        }
      ],
      "logsBloom": "0x0000000000000000000020000000000000010000000000000004000000008800000000002000000000200010000000000000000000000000000000000020000000000008000a000000000008000000000000000000000000000000018000000000000000060000000000000000000802000000000400000000000010000000020000000000000000000000000000000000000001002000000000000000010000020000400000000400000000000000000008000010000000000108000000400000000102000000000000000000000000000000000000000000000000000020000010000000000000001000000008000004000000000200400000000000000000",
      "type": "0x2",
      "transactionHash": "0x34378d0a3011fef194f065a346e33d8ad2c50a449793173f3f66f1e5e3b5317a",
      "transactionIndex": "0x7d",
      "blockHash": "0x76e93dc42478d3131f527d2dcd5e62b47ca619f373a5120a47c8ab2d63b68590",
      "blockNumber": "0x18ec420",
      "gasUsed": "0x2e9e5",
      "effectiveGasPrice": "0x4031a7",
      "from": "0x94aba23b9bbfe7bb62a9eb8b1215d72b5f6f33a1",
      "to": "0x881e3a65b4d4a04dd529061dd0071cf975f58bcd",
      "contractAddress": null,
      "l1BaseFeeScalar": "0x8dd",
      "l1BlobBaseFee": "0x16",
      "l1BlobBaseFeeScalar": "0x101c12",
      "l1Fee": "0x13f503370",
      "l1GasPrice": "0x2ffe0c06",
      "l1GasUsed": "0xb74"
    }
  ],
  "libraries": [],
  "pending": [],
  "returns": {},
  "timestamp": 1739056387,
  "chain": 8453,
  "commit": "5626a86"
}