{
  "transactions": [
    {
      "hash": "0xeae5ce491b5bf166f7c4c5e7b2f1512f4a894f1d01c7baa75ab9d60ec1643e5c",
      "transactionType": "CALL",
      "contractName": null,
      "contractAddress": "0x063540daf095a99feab73f3b24241ac362a1fc58",
      "function": "approve(address,uint256)",
      "arguments": [
        "0x849c5ED5a80F5B408Dd4969b78c2C8fdf0565Bfe",
        "100000000"
      ],
      "transaction": {
        "from": "0x94aba23b9bbfe7bb62a9eb8b1215d72b5f6f33a1",
        "to": "0x063540daf095a99feab73f3b24241ac362a1fc58",
        "gas": "0xf9d0",
        "value": "0x0",
        "input": "0x095ea7b3000000000000000000000000849c5ed5a80f5b408dd4969b78c2c8fdf0565bfe0000000000000000000000000000000000000000000000000000000005f5e100",
        "nonce": "0x1d8",
        "chainId": "0x89"
      },
      "additionalContracts": [],
      "isFixedGasLimit": false
    },
    {
      "hash": "0xa9e148a83e98597a79cb9eb5a0fa9d11931c919870d74ed24d439a865e03a721",
      "transactionType": "CALL",
      "contractName": null,
      "contractAddress": "0x849c5ed5a80f5b408dd4969b78c2c8fdf0565bfe",
      "function": "ccipSend(uint64,(bytes,bytes,(address,uint256)[],address,bytes))",
      "arguments": [
        "15971525489660198786",
        "(0x00000000000000000000000094aba23b9bbfe7bb62a9eb8b1215d72b5f6f33a1, 0x, [(0x063540DAf095A99FeAb73F3B24241Ac362a1FC58, 100000000)], 0x0000000000000000000000000000000000000000, 0x181dcf100000000000000000000000000000000000000000000000000000000000030d400000000000000000000000000000000000000000000000000000000000000000)"
      ],
      "transaction": {
        "from": "0x94aba23b9bbfe7bb62a9eb8b1215d72b5f6f33a1",
        "to": "0x849c5ed5a80f5b408dd4969b78c2c8fdf0565bfe",
        "gas": "0x4bab0",
        "value": "0xbab3a109ecf794f",
        "input": "0x96f4e9f9000000000000000000000000000000000000000000000000dda641cfe44aff82000000000000000000000000000000000000000000000000000000000000004000000000000000000000000000000000000000000000000000000000000000a000000000000000000000000000000000000000000000000000000000000000e0000000000000000000000000000000000000000000000000000000000000010000000000000000000000000000000000000000000000000000000000000000000000000000000000000000000000000000000000000000000000000000000160000000000000000000000000000000000000000000000000000000000000002000000000000000000000000094aba23b9bbfe7bb62a9eb8b1215d72b5f6f33a100000000000000000000000000000000000000000000000000000000000000000000000000000000000000000000000000000000000000000000000000000001000000000000000000000000063540daf095a99feab73f3b24241ac362a1fc580000000000000000000000000000000000000000000000000000000005f5e1000000000000000000000000000000000000000000000000000000000000000044181dcf100000000000000000000000000000000000000000000000000000000000030d40000000000000000000000000000000000000000000000000000000000000000000000000000000000000000000000000000000000000000000000000",
        "nonce": "0x1d9",
        "chainId": "0x89"
      },
      "additionalContracts": [],
      "isFixedGasLimit": false
    }
  ],
  "receipts": [
    {
      "status": "0x1",
      "cumulativeGasUsed": "0xa66562",
      "logs": [
        {
          "address": "0x063540daf095a99feab73f3b24241ac362a1fc58",
          "topics": [
            "0x8c5be1e5ebec7d5bd14f71427d1e84f3dd0314c0f7b2291e5b200ac8c7c3b925",
            "0x00000000000000000000000094aba23b9bbfe7bb62a9eb8b1215d72b5f6f33a1",
            "0x000000000000000000000000849c5ed5a80f5b408dd4969b78c2c8fdf0565bfe"
          ],
          "data": "0x0000000000000000000000000000000000000000000000000000000005f5e100",
          "blockHash": "0x1ea75d227c50dbc2f1e52cbf5c0b2f00f603abc58ee3b3324ef3ec23b215576f",
          "blockNumber": "0x408fc11",
          "transactionHash": "0xeae5ce491b5bf166f7c4c5e7b2f1512f4a894f1d01c7baa75ab9d60ec1643e5c",
          "transactionIndex": "0x6a",
          "logIndex": "0x16e",
          "removed": false
        },
        {
          "address": "0x0000000000000000000000000000000000001010",
          "topics": [
            "0x4dfe1bbbcf077ddc3e01291eea2d5c70c2b422b415d95645b9adcfd678cb1d63",
            "0x0000000000000000000000000000000000000000000000000000000000001010",
            "0x00000000000000000000000094aba23b9bbfe7bb62a9eb8b1215d72b5f6f33a1",
            "0x00000000000000000000000083d69448f88bf9c701c1b93f43e1f753d39b2632"
          ],
          "data": "0x000000000000000000000000000000000000000000000000000491346ab62df10000000000000000000000000000000000000000000000001ec572031a435e4a000000000000000000000000000000000000000000000d16025a06b353433db30000000000000000000000000000000000000000000000001ec0e0ceaf8d3059000000000000000000000000000000000000000000000d16025e97e7bdf96ba4",
          "blockHash": "0x1ea75d227c50dbc2f1e52cbf5c0b2f00f603abc58ee3b3324ef3ec23b215576f",
          "blockNumber": "0x408fc11",
          "transactionHash": "0xeae5ce491b5bf166f7c4c5e7b2f1512f4a894f1d01c7baa75ab9d60ec1643e5c",
          "transactionIndex": "0x6a",
          "logIndex": "0x16f",
          "removed": false
        }
      ],
      "logsBloom": "0x00000000000000000000000000000000000080000000000000000200000000000000000000000000000000000000000000008000080000000000000000200000000000080002008000000000000000800000000000000000000100000000000000000000000000000000000000000000000000000800100080000000000000000000000000000200000000000000000000800000000000000000000000000000220000000000000000000000010000000000000000000000000000000000004000000000000000000001000000000000000000000000000000100000000000000010000000000000001000000000000000000000000000000000000000100000",
      "type": "0x2",
      "transactionHash": "0xeae5ce491b5bf166f7c4c5e7b2f1512f4a894f1d01c7baa75ab9d60ec1643e5c",
      "transactionIndex": "0x6a",
      "blockHash": "0x1ea75d227c50dbc2f1e52cbf5c0b2f00f603abc58ee3b3324ef3ec23b215576f",
      "blockNumber": "0x408fc11",
      "gasUsed": "0xb4dd",
      "effectiveGasPrice": "0x6771bb5b9",
      "from": "0x94aba23b9bbfe7bb62a9eb8b1215d72b5f6f33a1",
      "to": "0x063540daf095a99feab73f3b24241ac362a1fc58",
      "contractAddress": null
    },
    {
      "status": "0x1",
      "cumulativeGasUsed": "0xa9a135",
      "logs": [
        {
          "address": "0x0000000000000000000000000000000000001010",
          "topics": [
            "0xe6497e3ee548a3372136af2fcb0696db31fc6cf20260707645068bd3fe97f3c4",
            "0x0000000000000000000000000000000000000000000000000000000000001010",
            "0x00000000000000000000000094aba23b9bbfe7bb62a9eb8b1215d72b5f6f33a1",
            "0x000000000000000000000000849c5ed5a80f5b408dd4969b78c2c8fdf0565bfe"
          ],
          "data": "0x0000000000000000000000000000000000000000000000000bab3a109ecf794f0000000000000000000000000000000000000000000000001ea24d43ef981065000000000000000000000000000000000000000000000000000000000000000000000000000000000000000000000000000000000000000012f7133350c897160000000000000000000000000000000000000000000000000bab3a109ecf794f",
          "blockHash": "0x1ea75d227c50dbc2f1e52cbf5c0b2f00f603abc58ee3b3324ef3ec23b215576f",
          "blockNumber": "0x408fc11",
          "transactionHash": "0xa9e148a83e98597a79cb9eb5a0fa9d11931c919870d74ed24d439a865e03a721",
          "transactionIndex": "0x6b",
          "logIndex": "0x170",
          "removed": false
        },
        {
          "address": "0x0000000000000000000000000000000000001010",
          "topics": [
            "0xe6497e3ee548a3372136af2fcb0696db31fc6cf20260707645068bd3fe97f3c4",
            "0x0000000000000000000000000000000000000000000000000000000000001010",
            "0x000000000000000000000000849c5ed5a80f5b408dd4969b78c2c8fdf0565bfe",
            "0x0000000000000000000000000d500b1d8e8ef31e21c99d1db9a6444d3adf1270"
          ],
          "data": "0x0000000000000000000000000000000000000000000000000bab3a109ecf794f0000000000000000000000000000000000000000000000000bab3a109ecf794f0000000000000000000000000000000000000000007c874b2d2ab3c0afac19a900000000000000000000000000000000000000000000000000000000000000000000000000000000000000000000000000000000007c874b38d5edd14e7b92f8",
          "blockHash": "0x1ea75d227c50dbc2f1e52cbf5c0b2f00f603abc58ee3b3324ef3ec23b215576f",
          "blockNumber": "0x408fc11",
          "transactionHash": "0xa9e148a83e98597a79cb9eb5a0fa9d11931c919870d74ed24d439a865e03a721",
          "transactionIndex": "0x6b",
          "logIndex": "0x171",
          "removed": false
        },
        {
          "address": "0x0d500b1d8e8ef31e21c99d1db9a6444d3adf1270",
          "topics": [
            "0xe1fffcc4923d04b559f4d29a8bfc6cda04eb5b0d3c460751c2402c5c5cc9109c",
            "0x000000000000000000000000849c5ed5a80f5b408dd4969b78c2c8fdf0565bfe"
          ],
          "data": "0x0000000000000000000000000000000000000000000000000bab3a109ecf794f",
          "blockHash": "0x1ea75d227c50dbc2f1e52cbf5c0b2f00f603abc58ee3b3324ef3ec23b215576f",
          "blockNumber": "0x408fc11",
          "transactionHash": "0xa9e148a83e98597a79cb9eb5a0fa9d11931c919870d74ed24d439a865e03a721",
          "transactionIndex": "0x6b",
          "logIndex": "0x172",
          "removed": false
        },
        {
          "address": "0x0d500b1d8e8ef31e21c99d1db9a6444d3adf1270",
          "topics": [
            "0xddf252ad1be2c89b69c2b068fc378daa952ba7f163c4a11628f55a4df523b3ef",
            "0x000000000000000000000000849c5ed5a80f5b408dd4969b78c2c8fdf0565bfe",
            "0x000000000000000000000000d26a4e0c664e72e3c29e634867191cb1cb9af570"
          ],
          "data": "0x0000000000000000000000000000000000000000000000000bab3a109ecf794f",
          "blockHash": "0x1ea75d227c50dbc2f1e52cbf5c0b2f00f603abc58ee3b3324ef3ec23b215576f",
          "blockNumber": "0x408fc11",
          "transactionHash": "0xa9e148a83e98597a79cb9eb5a0fa9d11931c919870d74ed24d439a865e03a721",
          "transactionIndex": "0x6b",
          "logIndex": "0x173",
          "removed": false
        },
        {
          "address": "0x063540daf095a99feab73f3b24241ac362a1fc58",
          "topics": [
            "0x8c5be1e5ebec7d5bd14f71427d1e84f3dd0314c0f7b2291e5b200ac8c7c3b925",
            "0x00000000000000000000000094aba23b9bbfe7bb62a9eb8b1215d72b5f6f33a1",
            "0x000000000000000000000000849c5ed5a80f5b408dd4969b78c2c8fdf0565bfe"
          ],
          "data": "0x0000000000000000000000000000000000000000000000000000000000000000",
          "blockHash": "0x1ea75d227c50dbc2f1e52cbf5c0b2f00f603abc58ee3b3324ef3ec23b215576f",
          "blockNumber": "0x408fc11",
          "transactionHash": "0xa9e148a83e98597a79cb9eb5a0fa9d11931c919870d74ed24d439a865e03a721",
          "transactionIndex": "0x6b",
          "logIndex": "0x174",
          "removed": false
        },
        {
          "address": "0x063540daf095a99feab73f3b24241ac362a1fc58",
          "topics": [
            "0xddf252ad1be2c89b69c2b068fc378daa952ba7f163c4a11628f55a4df523b3ef",
            "0x00000000000000000000000094aba23b9bbfe7bb62a9eb8b1215d72b5f6f33a1",
            "0x000000000000000000000000aa0bda1e1859ee7cd18777ef26df46e59e9ad244"
          ],
          "data": "0x0000000000000000000000000000000000000000000000000000000005f5e100",
          "blockHash": "0x1ea75d227c50dbc2f1e52cbf5c0b2f00f603abc58ee3b3324ef3ec23b215576f",
          "blockNumber": "0x408fc11",
          "transactionHash": "0xa9e148a83e98597a79cb9eb5a0fa9d11931c919870d74ed24d439a865e03a721",
          "transactionIndex": "0x6b",
          "logIndex": "0x175",
          "removed": false
        },
        {
          "address": "0x063540daf095a99feab73f3b24241ac362a1fc58",
          "topics": [
            "0xddf252ad1be2c89b69c2b068fc378daa952ba7f163c4a11628f55a4df523b3ef",
            "0x000000000000000000000000aa0bda1e1859ee7cd18777ef26df46e59e9ad244",
            "0x0000000000000000000000000000000000000000000000000000000000000000"
          ],
          "data": "0x0000000000000000000000000000000000000000000000000000000005f5e100",
          "blockHash": "0x1ea75d227c50dbc2f1e52cbf5c0b2f00f603abc58ee3b3324ef3ec23b215576f",
          "blockNumber": "0x408fc11",
          "transactionHash": "0xa9e148a83e98597a79cb9eb5a0fa9d11931c919870d74ed24d439a865e03a721",
          "transactionIndex": "0x6b",
          "logIndex": "0x176",
          "removed": false
        },
        {
          "address": "0xaa0bda1e1859ee7cd18777ef26df46e59e9ad244",
          "topics": [
            "0x696de425f79f4a40bc6d2122ca50507f0efbeabbff86a84871b7196ab8ea8df7",
            "0x000000000000000000000000d26a4e0c664e72e3c29e634867191cb1cb9af570"
          ],
          "data": "0x0000000000000000000000000000000000000000000000000000000005f5e100",
          "blockHash": "0x1ea75d227c50dbc2f1e52cbf5c0b2f00f603abc58ee3b3324ef3ec23b215576f",
          "blockNumber": "0x408fc11",
          "transactionHash": "0xa9e148a83e98597a79cb9eb5a0fa9d11931c919870d74ed24d439a865e03a721",
          "transactionIndex": "0x6b",
          "logIndex": "0x177",
          "removed": false
        },
        {
          "address": "0xd26a4e0c664e72e3c29e634867191cb1cb9af570",
          "topics": [
            "0xd0c3c799bf9e2639de44391e7f524d229b2b55f5b1ea94b2bf7da42f7243dddd"
          ],
          "data": "0x0000000000000000000000000000000000000000000000000000000000000020000000000000000000000000000000000000000000000000383a1891ae1915b100000000000000000000000094aba23b9bbfe7bb62a9eb8b1215d72b5f6f33a100000000000000000000000094aba23b9bbfe7bb62a9eb8b1215d72b5f6f33a10000000000000000000000000000000000000000000000000000000000000ac20000000000000000000000000000000000000000000000000000000000030d40000000000000000000000000000000000000000000000000000000000000000000000000000000000000000000000000000000000000000000000000000000010000000000000000000000000d500b1d8e8ef31e21c99d1db9a6444d3adf12700000000000000000000000000000000000000000000000000bab3a109ecf794f00000000000000000000000000000000000000000000000000000000000001a000000000000000000000000000000000000000000000000000000000000001c00000000000000000000000000000000000000000000000000000000000000220f8767c581cb6b2385ef2dd43dda97bdf4721d95a9eef7d0c34966549430caa7700000000000000000000000000000000000000000000000000000000000000000000000000000000000000000000000000000000000000000000000000000001000000000000000000000000063540daf095a99feab73f3b24241ac362a1fc580000000000000000000000000000000000000000000000000000000005f5e1000000000000000000000000000000000000000000000000000000000000000001000000000000000000000000000000000000000000000000000000000000002000000000000000000000000000000000000000000000000000000000000001600000000000000000000000000000000000000000000000000000000000000020000000000000000000000000000000000000000000000000000000000000008000000000000000000000000000000000000000000000000000000000000000c000000000000000000000000000000000000000000000000000000000000001000000000000000000000000000000000000000000000000000000000000015f900000000000000000000000000000000000000000000000000000000000000020000000000000000000000000aa0bda1e1859ee7cd18777ef26df46e59e9ad24400000000000000000000000000000000000000000000000000000000000000200000000000000000000000005a44dce25ab945b625e6a92f9e95beac953033df00000000000000000000000000000000000000000000000000000000000000200000000000000000000000000000000000000000000000000000000000000006",
          "blockHash": "0x1ea75d227c50dbc2f1e52cbf5c0b2f00f603abc58ee3b3324ef3ec23b215576f",
          "blockNumber": "0x408fc11",
          "transactionHash": "0xa9e148a83e98597a79cb9eb5a0fa9d11931c919870d74ed24d439a865e03a721",
          "transactionIndex": "0x6b",
          "logIndex": "0x178",
          "removed": false
        },
        {
          "address": "0x0000000000000000000000000000000000001010",
          "topics": [
            "0x4dfe1bbbcf077ddc3e01291eea2d5c70c2b422b415d95645b9adcfd678cb1d63",
            "0x0000000000000000000000000000000000000000000000000000000000001010",
            "0x00000000000000000000000094aba23b9bbfe7bb62a9eb8b1215d72b5f6f33a1",
            "0x00000000000000000000000083d69448f88bf9c701c1b93f43e1f753d39b2632"
          ],
          "data": "0x0000000000000000000000000000000000000000000000000014e788b8bffb7f0000000000000000000000000000000000000000000000001ec0e0aecb916995000000000000000000000000000000000000000000000d16025e97e7bdf96ba40000000000000000000000000000000000000000000000001eabf92612d16e16000000000000000000000000000000000000000000000d1602737f7076b96723",
          "blockHash": "0x1ea75d227c50dbc2f1e52cbf5c0b2f00f603abc58ee3b3324ef3ec23b215576f",
          "blockNumber": "0x408fc11",
          "transactionHash": "0xa9e148a83e98597a79cb9eb5a0fa9d11931c919870d74ed24d439a865e03a721",
          "transactionIndex": "0x6b",
          "logIndex": "0x179",
          "removed": false
        }
      ],
      "logsBloom": "0x00000000000000000000000000000000000080800000000000002200000000000000000000000000002000100000000000008000080000000000000000200400000000080002408000000008000000800000040000000000000100008004020000000000160000000000000000000802000000000808120080000010000000000000000400000200000000000000000002800001000000000000000000000000220080000000000400000000010000004040000000000000000100000000004000000002000000000001000000000000200000000000800000108000000020000010000000000000001000000000000004000000000000400000000000102800",
      "type": "0x2",
      "transactionHash": "0xa9e148a83e98597a79cb9eb5a0fa9d11931c919870d74ed24d439a865e03a721",
      "transactionIndex": "0x6b",
      "blockHash": "0x1ea75d227c50dbc2f1e52cbf5c0b2f00f603abc58ee3b3324ef3ec23b215576f",
      "blockNumber": "0x408fc11",
      "gasUsed": "0x33bd3",
      "effectiveGasPrice": "0x6771bb5b9",
      "from": "0x94aba23b9bbfe7bb62a9eb8b1215d72b5f6f33a1",
      "to": "0x849c5ed5a80f5b408dd4969b78c2c8fdf0565bfe",
      "contractAddress": null
    }
  ],
  "libraries": [],
  "pending": [],
  "returns": {},
  "timestamp": 1739047277,
  "chain": 137,
  "commit": "5626a86"
}