{
  "transactions": [
    {
      "hash": "0xe873d537dadbe5d4464a3142f246dce800f8d46fe713755a886b98cb8c042072",
      "transactionType": "CALL",
      "contractName": null,
      "contractAddress": "0xc151a8a6a14a746b64c7a5dd7ad1022de3ecf458",
      "function": "approve(address,uint256)",
      "arguments": [
        "0x3206695CaE29952f4b0c22a169725a865bc8Ce0f",
        "100000000"
      ],
      "transaction": {
        "from": "0x94aba23b9bbfe7bb62a9eb8b1215d72b5f6f33a1",
        "to": "0xc151a8a6a14a746b64c7a5dd7ad1022de3ecf458",
        "gas": "0xf9d0",
        "value": "0x0",
        "input": "0x095ea7b30000000000000000000000003206695cae29952f4b0c22a169725a865bc8ce0f0000000000000000000000000000000000000000000000000000000005f5e100",
        "nonce": "0x6e",
        "chainId": "0xa"
      },
      "additionalContracts": [],
      "isFixedGasLimit": false
    },
    {
      "hash": "0xd509dca356d4ea06bc6f3294d7d8c56f2a0b5db2e888083f4e57b738d60b5626",
      "transactionType": "CALL",
      "contractName": null,
      "contractAddress": "0x3206695cae29952f4b0c22a169725a865bc8ce0f",
      "function": "ccipSend(uint64,(bytes,bytes,(address,uint256)[],address,bytes))",
      "arguments": [
        "15971525489660198786",
        "(0x00000000000000000000000094aba23b9bbfe7bb62a9eb8b1215d72b5f6f33a1, 0x, [(0xC151a8a6A14a746b64C7A5Dd7AD1022de3EcF458, 100000000)], 0x0000000000000000000000000000000000000000, 0x181dcf100000000000000000000000000000000000000000000000000000000000030d400000000000000000000000000000000000000000000000000000000000000000)"
      ],
      "transaction": {
        "from": "0x94aba23b9bbfe7bb62a9eb8b1215d72b5f6f33a1",
        "to": "0x3206695cae29952f4b0c22a169725a865bc8ce0f",
        "gas": "0x4a8b1",
        "value": "0x59b26cc1fe8f",
        "input": "0x96f4e9f9000000000000000000000000000000000000000000000000dda641cfe44aff82000000000000000000000000000000000000000000000000000000000000004000000000000000000000000000000000000000000000000000000000000000a000000000000000000000000000000000000000000000000000000000000000e0000000000000000000000000000000000000000000000000000000000000010000000000000000000000000000000000000000000000000000000000000000000000000000000000000000000000000000000000000000000000000000000160000000000000000000000000000000000000000000000000000000000000002000000000000000000000000094aba23b9bbfe7bb62a9eb8b1215d72b5f6f33a100000000000000000000000000000000000000000000000000000000000000000000000000000000000000000000000000000000000000000000000000000001000000000000000000000000c151a8a6a14a746b64c7a5dd7ad1022de3ecf4580000000000000000000000000000000000000000000000000000000005f5e1000000000000000000000000000000000000000000000000000000000000000044181dcf100000000000000000000000000000000000000000000000000000000000030d40000000000000000000000000000000000000000000000000000000000000000000000000000000000000000000000000000000000000000000000000",
        "nonce": "0x6f",
        "chainId": "0xa"
      },
      "additionalContracts": [],
      "isFixedGasLimit": false
    }
  ],
  "receipts": [
    {
      "status": "0x1",
      "cumulativeGasUsed": "0x44f980",
      "logs": [
        {
          "address": "0xc151a8a6a14a746b64c7a5dd7ad1022de3ecf458",
          "topics": [
            "0x8c5be1e5ebec7d5bd14f71427d1e84f3dd0314c0f7b2291e5b200ac8c7c3b925",
            "0x00000000000000000000000094aba23b9bbfe7bb62a9eb8b1215d72b5f6f33a1",
            "0x0000000000000000000000003206695cae29952f4b0c22a169725a865bc8ce0f"
          ],
          "data": "0x0000000000000000000000000000000000000000000000000000000005f5e100",
          "blockHash": "0xbbb334703a9050b863266b69c4ca4e707e6f13be436fc4fbb19274a5949144f1",
          "blockNumber": "0x7d9fcf1",
          "transactionHash": "0xe873d537dadbe5d4464a3142f246dce800f8d46fe713755a886b98cb8c042072",
          "transactionIndex": "0xc",
          "logIndex": "0x19",
          "removed": false
        }
      ],
      "logsBloom": "0x00000000000000002000000000000000000000400000000000000000000000000000000000000000000000000000000000000000000000000000000000200000000000080002000000000008000000000000000000000000000000000000000000000000000000000000000000000000000000000000000000000002000000001000000000000000000000000000000000000000000000000000000000000000020000000000000000000000000000000000000000000000000000000000000000000000000000000000000000000000000000000000000000000000000000000010000400000000001000000000000000000000000000000000000000000000",
      "type": "0x2",
      "transactionHash": "0xe873d537dadbe5d4464a3142f246dce800f8d46fe713755a886b98cb8c042072",
      "transactionIndex": "0xc",
      "blockHash": "0xbbb334703a9050b863266b69c4ca4e707e6f13be436fc4fbb19274a5949144f1",
      "blockNumber": "0x7d9fcf1",
      "gasUsed": "0xb4dd",
      "effectiveGasPrice": "0xcc86",
      "from": "0x94aba23b9bbfe7bb62a9eb8b1215d72b5f6f33a1",
      "to": "0xc151a8a6a14a746b64c7a5dd7ad1022de3ecf458",
      "contractAddress": null,
      "l1BaseFeeScalar": "0x146b",
      "l1BlobBaseFee": "0x1c9",
      "l1BlobBaseFeeScalar": "0xf79c5",
      "l1Fee": "0x1ade3b79c",
      "l1GasPrice": "0x3366f5a1",
      "l1GasUsed": "0x640"
    },
    {
      "status": "0x1",
      "cumulativeGasUsed": "0x4858fe",
      "logs": [
        {
          "address": "0x4200000000000000000000000000000000000006",
          "topics": [
            "0xe1fffcc4923d04b559f4d29a8bfc6cda04eb5b0d3c460751c2402c5c5cc9109c",
            "0x0000000000000000000000003206695cae29952f4b0c22a169725a865bc8ce0f"
          ],
          "data": "0x000000000000000000000000000000000000000000000000000059b26cc1fe8f",
          "blockHash": "0xbbb334703a9050b863266b69c4ca4e707e6f13be436fc4fbb19274a5949144f1",
          "blockNumber": "0x7d9fcf1",
          "transactionHash": "0xd509dca356d4ea06bc6f3294d7d8c56f2a0b5db2e888083f4e57b738d60b5626",
          "transactionIndex": "0xd",
          "logIndex": "0x1a",
          "removed": false
        },
        {
          "address": "0x4200000000000000000000000000000000000006",
          "topics": [
            "0xddf252ad1be2c89b69c2b068fc378daa952ba7f163c4a11628f55a4df523b3ef",
            "0x0000000000000000000000003206695cae29952f4b0c22a169725a865bc8ce0f",
            "0x000000000000000000000000fe11cfc957cca331192eac60040b442303cca0a9"
          ],
          "data": "0x000000000000000000000000000000000000000000000000000059b26cc1fe8f",
          "blockHash": "0xbbb334703a9050b863266b69c4ca4e707e6f13be436fc4fbb19274a5949144f1",
          "blockNumber": "0x7d9fcf1",
          "transactionHash": "0xd509dca356d4ea06bc6f3294d7d8c56f2a0b5db2e888083f4e57b738d60b5626",
          "transactionIndex": "0xd",
          "logIndex": "0x1b",
          "removed": false
        },
        {
          "address": "0xc151a8a6a14a746b64c7a5dd7ad1022de3ecf458",
          "topics": [
            "0x8c5be1e5ebec7d5bd14f71427d1e84f3dd0314c0f7b2291e5b200ac8c7c3b925",
            "0x00000000000000000000000094aba23b9bbfe7bb62a9eb8b1215d72b5f6f33a1",
            "0x0000000000000000000000003206695cae29952f4b0c22a169725a865bc8ce0f"
          ],
          "data": "0x0000000000000000000000000000000000000000000000000000000000000000",
          "blockHash": "0xbbb334703a9050b863266b69c4ca4e707e6f13be436fc4fbb19274a5949144f1",
          "blockNumber": "0x7d9fcf1",
          "transactionHash": "0xd509dca356d4ea06bc6f3294d7d8c56f2a0b5db2e888083f4e57b738d60b5626",
          "transactionIndex": "0xd",
          "logIndex": "0x1c",
          "removed": false
        },
        {
          "address": "0xc151a8a6a14a746b64c7a5dd7ad1022de3ecf458",
          "topics": [
            "0xddf252ad1be2c89b69c2b068fc378daa952ba7f163c4a11628f55a4df523b3ef",
            "0x00000000000000000000000094aba23b9bbfe7bb62a9eb8b1215d72b5f6f33a1",
            "0x00000000000000000000000000bb7d031fbbe133f2d12eb7f12df55ec58dbc9d"
          ],
          "data": "0x0000000000000000000000000000000000000000000000000000000005f5e100",
          "blockHash": "0xbbb334703a9050b863266b69c4ca4e707e6f13be436fc4fbb19274a5949144f1",
          "blockNumber": "0x7d9fcf1",
          "transactionHash": "0xd509dca356d4ea06bc6f3294d7d8c56f2a0b5db2e888083f4e57b738d60b5626",
          "transactionIndex": "0xd",
          "logIndex": "0x1d",
          "removed": false
        },
        {
          "address": "0xc151a8a6a14a746b64c7a5dd7ad1022de3ecf458",
          "topics": [
            "0xddf252ad1be2c89b69c2b068fc378daa952ba7f163c4a11628f55a4df523b3ef",
            "0x00000000000000000000000000bb7d031fbbe133f2d12eb7f12df55ec58dbc9d",
            "0x0000000000000000000000000000000000000000000000000000000000000000"
          ],
          "data": "0x0000000000000000000000000000000000000000000000000000000005f5e100",
          "blockHash": "0xbbb334703a9050b863266b69c4ca4e707e6f13be436fc4fbb19274a5949144f1",
          "blockNumber": "0x7d9fcf1",
          "transactionHash": "0xd509dca356d4ea06bc6f3294d7d8c56f2a0b5db2e888083f4e57b738d60b5626",
          "transactionIndex": "0xd",
          "logIndex": "0x1e",
          "removed": false
        },
        {
          "address": "0x00bb7d031fbbe133f2d12eb7f12df55ec58dbc9d",
          "topics": [
            "0x696de425f79f4a40bc6d2122ca50507f0efbeabbff86a84871b7196ab8ea8df7",
            "0x000000000000000000000000fe11cfc957cca331192eac60040b442303cca0a9"
          ],
          "data": "0x0000000000000000000000000000000000000000000000000000000005f5e100",
          "blockHash": "0xbbb334703a9050b863266b69c4ca4e707e6f13be436fc4fbb19274a5949144f1",
          "blockNumber": "0x7d9fcf1",
          "transactionHash": "0xd509dca356d4ea06bc6f3294d7d8c56f2a0b5db2e888083f4e57b738d60b5626",
          "transactionIndex": "0xd",
          "logIndex": "0x1f",
          "removed": false
        },
        {
          "address": "0xfe11cfc957cca331192eac60040b442303cca0a9",
          "topics": [
            "0xd0c3c799bf9e2639de44391e7f524d229b2b55f5b1ea94b2bf7da42f7243dddd"
          ],
          "data": "0x000000000000000000000000000000000000000000000000000000000000002000000000000000000000000000000000000000000000000033d343f77863cab800000000000000000000000094aba23b9bbfe7bb62a9eb8b1215d72b5f6f33a100000000000000000000000094aba23b9bbfe7bb62a9eb8b1215d72b5f6f33a100000000000000000000000000000000000000000000000000000000000002470000000000000000000000000000000000000000000000000000000000030d40000000000000000000000000000000000000000000000000000000000000000000000000000000000000000000000000000000000000000000000000000000010000000000000000000000004200000000000000000000000000000000000006000000000000000000000000000000000000000000000000000059b26cc1fe8f00000000000000000000000000000000000000000000000000000000000001a000000000000000000000000000000000000000000000000000000000000001c00000000000000000000000000000000000000000000000000000000000000220b8efc074d33f7d278842885b2cec0cbc3c04f67afc7f8adb46ed86719c48e9e900000000000000000000000000000000000000000000000000000000000000000000000000000000000000000000000000000000000000000000000000000001000000000000000000000000c151a8a6a14a746b64c7a5dd7ad1022de3ecf4580000000000000000000000000000000000000000000000000000000005f5e1000000000000000000000000000000000000000000000000000000000000000001000000000000000000000000000000000000000000000000000000000000002000000000000000000000000000000000000000000000000000000000000001600000000000000000000000000000000000000000000000000000000000000020000000000000000000000000000000000000000000000000000000000000008000000000000000000000000000000000000000000000000000000000000000c000000000000000000000000000000000000000000000000000000000000001000000000000000000000000000000000000000000000000000000000000015f90000000000000000000000000000000000000000000000000000000000000002000000000000000000000000000bb7d031fbbe133f2d12eb7f12df55ec58dbc9d00000000000000000000000000000000000000000000000000000000000000200000000000000000000000005a44dce25ab945b625e6a92f9e95beac953033df00000000000000000000000000000000000000000000000000000000000000200000000000000000000000000000000000000000000000000000000000000012",
          "blockHash": "0xbbb334703a9050b863266b69c4ca4e707e6f13be436fc4fbb19274a5949144f1",
          "blockNumber": "0x7d9fcf1",
          "transactionHash": "0xd509dca356d4ea06bc6f3294d7d8c56f2a0b5db2e888083f4e57b738d60b5626",
          "transactionIndex": "0xd",
          "logIndex": "0x20",
          "removed": false
        }
      ],
      "logsBloom": "0x00000000000000002000100000000020000000400000000000040000000000000000000010000000002000100000000000000000000000000000000000200000000000080002000000000008000000000000000000000000000000008000000000000000060000000000000000000812000000000000000000004812000000001000000000000000000000000080000000000001002000000000010000000000020000000000000400000000000000000000000000000000000100000000100000000002000000000000000000000000000000000000000000000000000020800010000400000800001000000000000004000000000000400000000000080000",
      "type": "0x2",
      "transactionHash": "0xd509dca356d4ea06bc6f3294d7d8c56f2a0b5db2e888083f4e57b738d60b5626",
      "transactionIndex": "0xd",
      "blockHash": "0xbbb334703a9050b863266b69c4ca4e707e6f13be436fc4fbb19274a5949144f1",
      "blockNumber": "0x7d9fcf1",
      "gasUsed": "0x35f7e",
      "effectiveGasPrice": "0xcc86",
      "from": "0x94aba23b9bbfe7bb62a9eb8b1215d72b5f6f33a1",
      "to": "0x3206695cae29952f4b0c22a169725a865bc8ce0f",
      "contractAddress": null,
      "l1BaseFeeScalar": "0x146b",
      "l1BlobBaseFee": "0x1c9",
      "l1BlobBaseFeeScalar": "0xf79c5",
      "l1Fee": "0x301e03572",
      "l1GasPrice": "0x3366f5a1",
      "l1GasUsed": "0xb31"
    }
  ],
  "libraries": [],
  "pending": [],
  "returns": {},
  "timestamp": 1739051899,
  "chain": 10,
  "commit": "5626a86"
}