{
  "transactions": [
    {
      "hash": "0x9977167dd9a53068627987381595452e3ad7b3f36db377a3a70f9577a0ec8924",
      "transactionType": "CALL",
      "contractName": null,
      "contractAddress": "0xc151a8a6a14a746b64c7a5dd7ad1022de3ecf458",
      "function": "approve(address,uint256)",
      "arguments": [
        "0x3206695CaE29952f4b0c22a169725a865bc8Ce0f",
        "100000000"
      ],
      "transaction": {
        "from": "0x94aba23b9bbfe7bb62a9eb8b1215d72b5f6f33a1",
        "to": "0xc151a8a6a14a746b64c7a5dd7ad1022de3ecf458",
        "value": "0x0",
        "input": "0x095ea7b30000000000000000000000003206695cae29952f4b0c22a169725a865bc8ce0f0000000000000000000000000000000000000000000000000000000005f5e100",
        "nonce": "0x70",
        "chainId": "0xa"
      },
      "additionalContracts": [],
      "isFixedGasLimit": false
    },
    {
      "hash": "0xc3667a7e61ef0916df40cdd9eef993cb023c3f4217734d0be2fb08e60e546eb6",
      "transactionType": "CALL",
      "contractName": null,
      "contractAddress": "0x3206695cae29952f4b0c22a169725a865bc8ce0f",
      "function": "ccipSend(uint64,(bytes,bytes,(address,uint256)[],address,bytes))",
      "arguments": [
        "15971525489660198786",
        "(0x00000000000000000000000094aba23b9bbfe7bb62a9eb8b1215d72b5f6f33a1, 0x, [(0xC151a8a6A14a746b64C7A5Dd7AD1022de3EcF458, 100000000)], 0x0000000000000000000000000000000000000000, 0x181dcf100000000000000000000000000000000000000000000000000000000000030d400000000000000000000000000000000000000000000000000000000000000000)"
      ],
      "transaction": {
        "from": "0x94aba23b9bbfe7bb62a9eb8b1215d72b5f6f33a1",
        "to": "0x3206695cae29952f4b0c22a169725a865bc8ce0f",
        "value": "0x58cc0d3b0af5",
        "input": "0x96f4e9f9000000000000000000000000000000000000000000000000dda641cfe44aff82000000000000000000000000000000000000000000000000000000000000004000000000000000000000000000000000000000000000000000000000000000a000000000000000000000000000000000000000000000000000000000000000e0000000000000000000000000000000000000000000000000000000000000010000000000000000000000000000000000000000000000000000000000000000000000000000000000000000000000000000000000000000000000000000000160000000000000000000000000000000000000000000000000000000000000002000000000000000000000000094aba23b9bbfe7bb62a9eb8b1215d72b5f6f33a100000000000000000000000000000000000000000000000000000000000000000000000000000000000000000000000000000000000000000000000000000001000000000000000000000000c151a8a6a14a746b64c7a5dd7ad1022de3ecf4580000000000000000000000000000000000000000000000000000000005f5e1000000000000000000000000000000000000000000000000000000000000000044181dcf100000000000000000000000000000000000000000000000000000000000030d40000000000000000000000000000000000000000000000000000000000000000000000000000000000000000000000000000000000000000000000000",
        "nonce": "0x71",
        "chainId": "0xa"
      },
      "additionalContracts": [],
      "isFixedGasLimit": false
    }
  ],
  "receipts": [
    {
      "status": "0x1",
      "cumulativeGasUsed": "0x3e075f",
      "logs": [
        {
          "address": "0xc151a8a6a14a746b64c7a5dd7ad1022de3ecf458",
          "topics": [
            "0x8c5be1e5ebec7d5bd14f71427d1e84f3dd0314c0f7b2291e5b200ac8c7c3b925",
            "0x00000000000000000000000094aba23b9bbfe7bb62a9eb8b1215d72b5f6f33a1",
            "0x0000000000000000000000003206695cae29952f4b0c22a169725a865bc8ce0f"
          ],
          "data": "0x0000000000000000000000000000000000000000000000000000000005f5e100",
          "blockHash": "0x6fcdf947060219be6e382c9e9b09274bf5420589b278883887cfe9b49d9f1091",
          "blockNumber": "0x7da0a13",
          "transactionHash": "0x9977167dd9a53068627987381595452e3ad7b3f36db377a3a70f9577a0ec8924",
          "transactionIndex": "0x6",
          "logIndex": "0xc",
          "removed": false
        }
      ],
      "logsBloom": "0x00000000000000002000000000000000000000400000000000000000000000000000000000000000000000000000000000000000000000000000000000200000000000080002000000000008000000000000000000000000000000000000000000000000000000000000000000000000000000000000000000000002000000001000000000000000000000000000000000000000000000000000000000000000020000000000000000000000000000000000000000000000000000000000000000000000000000000000000000000000000000000000000000000000000000000010000400000000001000000000000000000000000000000000000000000000",
      "type": "0x2",
      "transactionHash": "0x9977167dd9a53068627987381595452e3ad7b3f36db377a3a70f9577a0ec8924",
      "transactionIndex": "0x6",
      "blockHash": "0x6fcdf947060219be6e382c9e9b09274bf5420589b278883887cfe9b49d9f1091",
      "blockNumber": "0x7da0a13",
      "gasUsed": "0xb4dd",
      "effectiveGasPrice": "0xca92",
      "from": "0x94aba23b9bbfe7bb62a9eb8b1215d72b5f6f33a1",
      "to": "0xc151a8a6a14a746b64c7a5dd7ad1022de3ecf458",
      "contractAddress": null,
      "l1BaseFeeScalar": "0x146b",
      "l1BlobBaseFee": "0x2",
      "l1BlobBaseFeeScalar": "0xf79c5",
      "l1Fee": "0x1c05fc455",
      "l1GasPrice": "0x359cdc9c",
      "l1GasUsed": "0x640"
    },
    {
      "status": "0x1",
      "cumulativeGasUsed": "0x4d968c",
      "logs": [
        {
          "address": "0x4200000000000000000000000000000000000006",
          "topics": [
            "0xe1fffcc4923d04b559f4d29a8bfc6cda04eb5b0d3c460751c2402c5c5cc9109c",
            "0x0000000000000000000000003206695cae29952f4b0c22a169725a865bc8ce0f"
          ],
          "data": "0x000000000000000000000000000000000000000000000000000058cc0d3b0af5",
          "blockHash": "0xa2b77903b67806086d5f46b23724bc00f9504118e7e805b0423125f6eb590e0f",
          "blockNumber": "0x7da0a15",
          "transactionHash": "0xc3667a7e61ef0916df40cdd9eef993cb023c3f4217734d0be2fb08e60e546eb6",
          "transactionIndex": "0x8",
          "logIndex": "0x6",
          "removed": false
        },
        {
          "address": "0x4200000000000000000000000000000000000006",
          "topics": [
            "0xddf252ad1be2c89b69c2b068fc378daa952ba7f163c4a11628f55a4df523b3ef",
            "0x0000000000000000000000003206695cae29952f4b0c22a169725a865bc8ce0f",
            "0x000000000000000000000000fe11cfc957cca331192eac60040b442303cca0a9"
          ],
          "data": "0x000000000000000000000000000000000000000000000000000058cc0d3b0af5",
          "blockHash": "0xa2b77903b67806086d5f46b23724bc00f9504118e7e805b0423125f6eb590e0f",
          "blockNumber": "0x7da0a15",
          "transactionHash": "0xc3667a7e61ef0916df40cdd9eef993cb023c3f4217734d0be2fb08e60e546eb6",
          "transactionIndex": "0x8",
          "logIndex": "0x7",
          "removed": false
        },
        {
          "address": "0xc151a8a6a14a746b64c7a5dd7ad1022de3ecf458",
          "topics": [
            "0x8c5be1e5ebec7d5bd14f71427d1e84f3dd0314c0f7b2291e5b200ac8c7c3b925",
            "0x00000000000000000000000094aba23b9bbfe7bb62a9eb8b1215d72b5f6f33a1",
            "0x0000000000000000000000003206695cae29952f4b0c22a169725a865bc8ce0f"
          ],
          "data": "0x0000000000000000000000000000000000000000000000000000000000000000",
          "blockHash": "0xa2b77903b67806086d5f46b23724bc00f9504118e7e805b0423125f6eb590e0f",
          "blockNumber": "0x7da0a15",
          "transactionHash": "0xc3667a7e61ef0916df40cdd9eef993cb023c3f4217734d0be2fb08e60e546eb6",
          "transactionIndex": "0x8",
          "logIndex": "0x8",
          "removed": false
        },
        {
          "address": "0xc151a8a6a14a746b64c7a5dd7ad1022de3ecf458",
          "topics": [
            "0xddf252ad1be2c89b69c2b068fc378daa952ba7f163c4a11628f55a4df523b3ef",
            "0x00000000000000000000000094aba23b9bbfe7bb62a9eb8b1215d72b5f6f33a1",
            "0x00000000000000000000000000bb7d031fbbe133f2d12eb7f12df55ec58dbc9d"
          ],
          "data": "0x0000000000000000000000000000000000000000000000000000000005f5e100",
          "blockHash": "0xa2b77903b67806086d5f46b23724bc00f9504118e7e805b0423125f6eb590e0f",
          "blockNumber": "0x7da0a15",
          "transactionHash": "0xc3667a7e61ef0916df40cdd9eef993cb023c3f4217734d0be2fb08e60e546eb6",
          "transactionIndex": "0x8",
          "logIndex": "0x9",
          "removed": false
        },
        {
          "address": "0xc151a8a6a14a746b64c7a5dd7ad1022de3ecf458",
          "topics": [
            "0xddf252ad1be2c89b69c2b068fc378daa952ba7f163c4a11628f55a4df523b3ef",
            "0x00000000000000000000000000bb7d031fbbe133f2d12eb7f12df55ec58dbc9d",
            "0x0000000000000000000000000000000000000000000000000000000000000000"
          ],
          "data": "0x0000000000000000000000000000000000000000000000000000000005f5e100",
          "blockHash": "0xa2b77903b67806086d5f46b23724bc00f9504118e7e805b0423125f6eb590e0f",
          "blockNumber": "0x7da0a15",
          "transactionHash": "0xc3667a7e61ef0916df40cdd9eef993cb023c3f4217734d0be2fb08e60e546eb6",
          "transactionIndex": "0x8",
          "logIndex": "0xa",
          "removed": false
        },
        {
          "address": "0x00bb7d031fbbe133f2d12eb7f12df55ec58dbc9d",
          "topics": [
            "0x696de425f79f4a40bc6d2122ca50507f0efbeabbff86a84871b7196ab8ea8df7",
            "0x000000000000000000000000fe11cfc957cca331192eac60040b442303cca0a9"
          ],
          "data": "0x0000000000000000000000000000000000000000000000000000000005f5e100",
          "blockHash": "0xa2b77903b67806086d5f46b23724bc00f9504118e7e805b0423125f6eb590e0f",
          "blockNumber": "0x7da0a15",
          "transactionHash": "0xc3667a7e61ef0916df40cdd9eef993cb023c3f4217734d0be2fb08e60e546eb6",
          "transactionIndex": "0x8",
          "logIndex": "0xb",
          "removed": false
        },
        {
          "address": "0xfe11cfc957cca331192eac60040b442303cca0a9",
          "topics": [
            "0xd0c3c799bf9e2639de44391e7f524d229b2b55f5b1ea94b2bf7da42f7243dddd"
          ],
          "data": "0x000000000000000000000000000000000000000000000000000000000000002000000000000000000000000000000000000000000000000033d343f77863cab800000000000000000000000094aba23b9bbfe7bb62a9eb8b1215d72b5f6f33a100000000000000000000000094aba23b9bbfe7bb62a9eb8b1215d72b5f6f33a100000000000000000000000000000000000000000000000000000000000002480000000000000000000000000000000000000000000000000000000000030d40000000000000000000000000000000000000000000000000000000000000000000000000000000000000000000000000000000000000000000000000000000020000000000000000000000004200000000000000000000000000000000000006000000000000000000000000000000000000000000000000000058cc0d3b0af500000000000000000000000000000000000000000000000000000000000001a000000000000000000000000000000000000000000000000000000000000001c000000000000000000000000000000000000000000000000000000000000002203c185c27f92c41349cb83eb02f170bc6491f031da6fc9feaed8394c6bcf9c08b00000000000000000000000000000000000000000000000000000000000000000000000000000000000000000000000000000000000000000000000000000001000000000000000000000000c151a8a6a14a746b64c7a5dd7ad1022de3ecf4580000000000000000000000000000000000000000000000000000000005f5e1000000000000000000000000000000000000000000000000000000000000000001000000000000000000000000000000000000000000000000000000000000002000000000000000000000000000000000000000000000000000000000000001600000000000000000000000000000000000000000000000000000000000000020000000000000000000000000000000000000000000000000000000000000008000000000000000000000000000000000000000000000000000000000000000c000000000000000000000000000000000000000000000000000000000000001000000000000000000000000000000000000000000000000000000000000015f90000000000000000000000000000000000000000000000000000000000000002000000000000000000000000000bb7d031fbbe133f2d12eb7f12df55ec58dbc9d00000000000000000000000000000000000000000000000000000000000000200000000000000000000000005a44dce25ab945b625e6a92f9e95beac953033df00000000000000000000000000000000000000000000000000000000000000200000000000000000000000000000000000000000000000000000000000000012",
          "blockHash": "0xa2b77903b67806086d5f46b23724bc00f9504118e7e805b0423125f6eb590e0f",
          "blockNumber": "0x7da0a15",
          "transactionHash": "0xc3667a7e61ef0916df40cdd9eef993cb023c3f4217734d0be2fb08e60e546eb6",
          "transactionIndex": "0x8",
          "logIndex": "0xc",
          "removed": false
        }
      ],
      "logsBloom": "0x00000000000000002000100000000020000000400000000000040000000000000000000010000000002000100000000000000000000000000000000000200000000000080002000000000008000000000000000000000000000000008000000000000000060000000000000000000812000000000000000000004812000000001000000000000000000000000080000000000001002000000000010000000000020000000000000400000000000000000000000000000000000100000000100000000002000000000000000000000000000000000000000000000000000020800010000400000800001000000000000004000000000000400000000000080000",
      "type": "0x2",
      "transactionHash": "0xc3667a7e61ef0916df40cdd9eef993cb023c3f4217734d0be2fb08e60e546eb6",
      "transactionIndex": "0x8",
      "blockHash": "0xa2b77903b67806086d5f46b23724bc00f9504118e7e805b0423125f6eb590e0f",
      "blockNumber": "0x7da0a15",
      "gasUsed": "0x30551",
      "effectiveGasPrice": "0xca93",
      "from": "0x94aba23b9bbfe7bb62a9eb8b1215d72b5f6f33a1",
      "to": "0x3206695cae29952f4b0c22a169725a865bc8ce0f",
      "contractAddress": null,
      "l1BaseFeeScalar": "0x146b",
      "l1BlobBaseFee": "0x2",
      "l1BlobBaseFeeScalar": "0xf79c5",
      "l1Fee": "0x322fab09c",
      "l1GasPrice": "0x359cdc9c",
      "l1GasUsed": "0xb31"
    }
  ],
  "libraries": [],
  "pending": [],
  "returns": {},
  "timestamp": 1739058627,
  "chain": 10,
  "commit": "5626a86"
}