{
  "transactions": [
    {
      "hash": "0x475c93a29fe177e6bedeefda981796e3195aeb34b2092c863767b8b9468665fa",
      "transactionType": "CALL",
      "contractName": null,
      "contractAddress": "0xc151a8a6a14a746b64c7a5dd7ad1022de3ecf458",
      "function": "mint(address,uint256)",
      "arguments": [
        "0x94aBa23b9Bbfe7bb62A9eB8b1215D72b5f6F33a1",
        "100000000000000000000"
      ],
      "transaction": {
        "from": "0x94aba23b9bbfe7bb62a9eb8b1215d72b5f6f33a1",
        "to": "0xc151a8a6a14a746b64c7a5dd7ad1022de3ecf458",
        "value": "0x0",
        "input": "0x40c10f1900000000000000000000000094aba23b9bbfe7bb62a9eb8b1215d72b5f6f33a10000000000000000000000000000000000000000000000056bc75e2d63100000",
        "nonce": "0x74",
        "chainId": "0xa"
      },
      "additionalContracts": [],
      "isFixedGasLimit": false
    },
    {
      "hash": "0xe543de776d07791d90ec4d329f1bb009bff210a8ccbe07a80dd75877da0204d6",
      "transactionType": "CALL",
      "contractName": null,
      "contractAddress": "0xc151a8a6a14a746b64c7a5dd7ad1022de3ecf458",
      "function": "approve(address,uint256)",
      "arguments": [
        "0x3206695CaE29952f4b0c22a169725a865bc8Ce0f",
        "100000000000000000000"
      ],
      "transaction": {
        "from": "0x94aba23b9bbfe7bb62a9eb8b1215d72b5f6f33a1",
        "to": "0xc151a8a6a14a746b64c7a5dd7ad1022de3ecf458",
        "value": "0x0",
        "input": "0x095ea7b30000000000000000000000003206695cae29952f4b0c22a169725a865bc8ce0f0000000000000000000000000000000000000000000000056bc75e2d63100000",
        "nonce": "0x75",
        "chainId": "0xa"
      },
      "additionalContracts": [],
      "isFixedGasLimit": false
    },
    {
      "hash": "0x4cac629553b9fdfd2943a2a35592c5324124047d62c1c5fcc7a9122c341e21f5",
      "transactionType": "CALL",
      "contractName": null,
      "contractAddress": "0x3206695cae29952f4b0c22a169725a865bc8ce0f",
      "function": "ccipSend(uint64,(bytes,bytes,(address,uint256)[],address,bytes))",
      "arguments": [
        "15971525489660198786",
        "(0x00000000000000000000000094aba23b9bbfe7bb62a9eb8b1215d72b5f6f33a1, 0x, [(0xC151a8a6A14a746b64C7A5Dd7AD1022de3EcF458, 100000000000000000000)], 0x0000000000000000000000000000000000000000, 0x181dcf100000000000000000000000000000000000000000000000000000000000030d400000000000000000000000000000000000000000000000000000000000000000)"
      ],
      "transaction": {
        "from": "0x94aba23b9bbfe7bb62a9eb8b1215d72b5f6f33a1",
        "to": "0x3206695cae29952f4b0c22a169725a865bc8ce0f",
        "value": "0x58c1ce2ae923",
        "input": "0x96f4e9f9000000000000000000000000000000000000000000000000dda641cfe44aff82000000000000000000000000000000000000000000000000000000000000004000000000000000000000000000000000000000000000000000000000000000a000000000000000000000000000000000000000000000000000000000000000e0000000000000000000000000000000000000000000000000000000000000010000000000000000000000000000000000000000000000000000000000000000000000000000000000000000000000000000000000000000000000000000000160000000000000000000000000000000000000000000000000000000000000002000000000000000000000000094aba23b9bbfe7bb62a9eb8b1215d72b5f6f33a100000000000000000000000000000000000000000000000000000000000000000000000000000000000000000000000000000000000000000000000000000001000000000000000000000000c151a8a6a14a746b64c7a5dd7ad1022de3ecf4580000000000000000000000000000000000000000000000056bc75e2d631000000000000000000000000000000000000000000000000000000000000000000044181dcf100000000000000000000000000000000000000000000000000000000000030d40000000000000000000000000000000000000000000000000000000000000000000000000000000000000000000000000000000000000000000000000",
        "nonce": "0x76",
        "chainId": "0xa"
      },
      "additionalContracts": [],
      "isFixedGasLimit": false
    }
  ],
  "receipts": [
    {
      "status": "0x1",
      "cumulativeGasUsed": "0x8c8142",
      "logs": [
        {
          "address": "0xc151a8a6a14a746b64c7a5dd7ad1022de3ecf458",
          "topics": [
            "0xddf252ad1be2c89b69c2b068fc378daa952ba7f163c4a11628f55a4df523b3ef",
            "0x0000000000000000000000000000000000000000000000000000000000000000",
            "0x00000000000000000000000094aba23b9bbfe7bb62a9eb8b1215d72b5f6f33a1"
          ],
          "data": "0x0000000000000000000000000000000000000000000000056bc75e2d63100000",
          "blockHash": "0x244931fa2b99ee8dc9cfdc75c2a86a1945b3a1741fd083d76da2134eb99a8351",
          "blockNumber": "0x7da18c3",
          "transactionHash": "0x475c93a29fe177e6bedeefda981796e3195aeb34b2092c863767b8b9468665fa",
          "transactionIndex": "0x10",
          "logIndex": "0x89",
          "removed": false
        }
      ],
      "logsBloom": "0x00000000000000002000000000000000000000000000000000000000000000000000000000000000000000000000000000000000000000000000000000000000000000080002000000000008000000000000000000000000000000000000000000000000020000000000000000000800000000000000000000000012000000000000000000000000000000000000000000000000000000000000000000000000000000000000000000000000000000000000000000000000000000000000000000000002000000000000000000000000000000000000000000000000000020000000000000000000001000000000000000000000000000000000000000000000",
      "type": "0x2",
      "transactionHash": "0x475c93a29fe177e6bedeefda981796e3195aeb34b2092c863767b8b9468665fa",
      "transactionIndex": "0x10",
      "blockHash": "0x244931fa2b99ee8dc9cfdc75c2a86a1945b3a1741fd083d76da2134eb99a8351",
      "blockNumber": "0x7da18c3",
      "gasUsed": "0x8e95",
      "effectiveGasPrice": "0x58f",
      "from": "0x94aba23b9bbfe7bb62a9eb8b1215d72b5f6f33a1",
      "to": "0xc151a8a6a14a746b64c7a5dd7ad1022de3ecf458",
      "contractAddress": null,
      "l1BaseFeeScalar": "0x146b",
      "l1BlobBaseFee": "0x14",
      "l1BlobBaseFeeScalar": "0xf79c5",
      "l1Fee": "0x17c013550",
      "l1GasPrice": "0x2d700d50",
      "l1GasUsed": "0x640"
    },
    {
      "status": "0x1",
      "cumulativeGasUsed": "0x575f47",
      "logs": [
        {
          "address": "0xc151a8a6a14a746b64c7a5dd7ad1022de3ecf458",
          "topics": [
            "0x8c5be1e5ebec7d5bd14f71427d1e84f3dd0314c0f7b2291e5b200ac8c7c3b925",
            "0x00000000000000000000000094aba23b9bbfe7bb62a9eb8b1215d72b5f6f33a1",
            "0x0000000000000000000000003206695cae29952f4b0c22a169725a865bc8ce0f"
          ],
          "data": "0x0000000000000000000000000000000000000000000000056bc75e2d63100000",
          "blockHash": "0x7b0b29b4a89a2ff05ac226c4eebdaa976c31bc2eb25aa7b79659bcc9e5e1a495",
          "blockNumber": "0x7da18c5",
          "transactionHash": "0xe543de776d07791d90ec4d329f1bb009bff210a8ccbe07a80dd75877da0204d6",
          "transactionIndex": "0xf",
          "logIndex": "0x70",
          "removed": false
        }
      ],
      "logsBloom": "0x00000000000000002000000000000000000000400000000000000000000000000000000000000000000000000000000000000000000000000000000000200000000000080002000000000008000000000000000000000000000000000000000000000000000000000000000000000000000000000000000000000002000000001000000000000000000000000000000000000000000000000000000000000000020000000000000000000000000000000000000000000000000000000000000000000000000000000000000000000000000000000000000000000000000000000010000400000000001000000000000000000000000000000000000000000000",
      "type": "0x2",
      "transactionHash": "0xe543de776d07791d90ec4d329f1bb009bff210a8ccbe07a80dd75877da0204d6",
      "transactionIndex": "0xf",
      "blockHash": "0x7b0b29b4a89a2ff05ac226c4eebdaa976c31bc2eb25aa7b79659bcc9e5e1a495",
      "blockNumber": "0x7da18c5",
      "gasUsed": "0xb50d",
      "effectiveGasPrice": "0x58f",
      "from": "0x94aba23b9bbfe7bb62a9eb8b1215d72b5f6f33a1",
      "to": "0xc151a8a6a14a746b64c7a5dd7ad1022de3ecf458",
      "contractAddress": null,
      "l1BaseFeeScalar": "0x146b",
      "l1BlobBaseFee": "0x14",
      "l1BlobBaseFeeScalar": "0xf79c5",
      "l1Fee": "0x17c013550",
      "l1GasPrice": "0x2d700d50",
      "l1GasUsed": "0x640"
    },
    {
      "status": "0x1",
      "cumulativeGasUsed": "0x941ce3",
      "logs": [
        {
          "address": "0x4200000000000000000000000000000000000006",
          "topics": [
            "0xe1fffcc4923d04b559f4d29a8bfc6cda04eb5b0d3c460751c2402c5c5cc9109c",
            "0x0000000000000000000000003206695cae29952f4b0c22a169725a865bc8ce0f"
          ],
          "data": "0x000000000000000000000000000000000000000000000000000058c1ce2ae923",
          "blockHash": "0x9ebb79f943fe2cd1c0ea137f7ead903b0b5c4c8a832aaf5fc81b28a4b581514d",
          "blockNumber": "0x7da18c7",
          "transactionHash": "0x4cac629553b9fdfd2943a2a35592c5324124047d62c1c5fcc7a9122c341e21f5",
          "transactionIndex": "0x16",
          "logIndex": "0x76",
          "removed": false
        },
        {
          "address": "0x4200000000000000000000000000000000000006",
          "topics": [
            "0xddf252ad1be2c89b69c2b068fc378daa952ba7f163c4a11628f55a4df523b3ef",
            "0x0000000000000000000000003206695cae29952f4b0c22a169725a865bc8ce0f",
            "0x000000000000000000000000fe11cfc957cca331192eac60040b442303cca0a9"
          ],
          "data": "0x000000000000000000000000000000000000000000000000000058c1ce2ae923",
          "blockHash": "0x9ebb79f943fe2cd1c0ea137f7ead903b0b5c4c8a832aaf5fc81b28a4b581514d",
          "blockNumber": "0x7da18c7",
          "transactionHash": "0x4cac629553b9fdfd2943a2a35592c5324124047d62c1c5fcc7a9122c341e21f5",
          "transactionIndex": "0x16",
          "logIndex": "0x77",
          "removed": false
        },
        {
          "address": "0xc151a8a6a14a746b64c7a5dd7ad1022de3ecf458",
          "topics": [
            "0x8c5be1e5ebec7d5bd14f71427d1e84f3dd0314c0f7b2291e5b200ac8c7c3b925",
            "0x00000000000000000000000094aba23b9bbfe7bb62a9eb8b1215d72b5f6f33a1",
            "0x0000000000000000000000003206695cae29952f4b0c22a169725a865bc8ce0f"
          ],
          "data": "0x0000000000000000000000000000000000000000000000000000000000000000",
          "blockHash": "0x9ebb79f943fe2cd1c0ea137f7ead903b0b5c4c8a832aaf5fc81b28a4b581514d",
          "blockNumber": "0x7da18c7",
          "transactionHash": "0x4cac629553b9fdfd2943a2a35592c5324124047d62c1c5fcc7a9122c341e21f5",
          "transactionIndex": "0x16",
          "logIndex": "0x78",
          "removed": false
        },
        {
          "address": "0xc151a8a6a14a746b64c7a5dd7ad1022de3ecf458",
          "topics": [
            "0xddf252ad1be2c89b69c2b068fc378daa952ba7f163c4a11628f55a4df523b3ef",
            "0x00000000000000000000000094aba23b9bbfe7bb62a9eb8b1215d72b5f6f33a1",
            "0x00000000000000000000000000bb7d031fbbe133f2d12eb7f12df55ec58dbc9d"
          ],
          "data": "0x0000000000000000000000000000000000000000000000056bc75e2d63100000",
          "blockHash": "0x9ebb79f943fe2cd1c0ea137f7ead903b0b5c4c8a832aaf5fc81b28a4b581514d",
          "blockNumber": "0x7da18c7",
          "transactionHash": "0x4cac629553b9fdfd2943a2a35592c5324124047d62c1c5fcc7a9122c341e21f5",
          "transactionIndex": "0x16",
          "logIndex": "0x79",
          "removed": false
        },
        {
          "address": "0xc151a8a6a14a746b64c7a5dd7ad1022de3ecf458",
          "topics": [
            "0xddf252ad1be2c89b69c2b068fc378daa952ba7f163c4a11628f55a4df523b3ef",
            "0x00000000000000000000000000bb7d031fbbe133f2d12eb7f12df55ec58dbc9d",
            "0x0000000000000000000000000000000000000000000000000000000000000000"
          ],
          "data": "0x0000000000000000000000000000000000000000000000056bc75e2d63100000",
          "blockHash": "0x9ebb79f943fe2cd1c0ea137f7ead903b0b5c4c8a832aaf5fc81b28a4b581514d",
          "blockNumber": "0x7da18c7",
          "transactionHash": "0x4cac629553b9fdfd2943a2a35592c5324124047d62c1c5fcc7a9122c341e21f5",
          "transactionIndex": "0x16",
          "logIndex": "0x7a",
          "removed": false
        },
        {
          "address": "0x00bb7d031fbbe133f2d12eb7f12df55ec58dbc9d",
          "topics": [
            "0x696de425f79f4a40bc6d2122ca50507f0efbeabbff86a84871b7196ab8ea8df7",
            "0x000000000000000000000000fe11cfc957cca331192eac60040b442303cca0a9"
          ],
          "data": "0x0000000000000000000000000000000000000000000000056bc75e2d63100000",
          "blockHash": "0x9ebb79f943fe2cd1c0ea137f7ead903b0b5c4c8a832aaf5fc81b28a4b581514d",
          "blockNumber": "0x7da18c7",
          "transactionHash": "0x4cac629553b9fdfd2943a2a35592c5324124047d62c1c5fcc7a9122c341e21f5",
          "transactionIndex": "0x16",
          "logIndex": "0x7b",
          "removed": false
        },
        {
          "address": "0xfe11cfc957cca331192eac60040b442303cca0a9",
          "topics": [
            "0xd0c3c799bf9e2639de44391e7f524d229b2b55f5b1ea94b2bf7da42f7243dddd"
          ],
          "data": "0x000000000000000000000000000000000000000000000000000000000000002000000000000000000000000000000000000000000000000033d343f77863cab800000000000000000000000094aba23b9bbfe7bb62a9eb8b1215d72b5f6f33a100000000000000000000000094aba23b9bbfe7bb62a9eb8b1215d72b5f6f33a1000000000000000000000000000000000000000000000000000000000000024a0000000000000000000000000000000000000000000000000000000000030d40000000000000000000000000000000000000000000000000000000000000000000000000000000000000000000000000000000000000000000000000000000040000000000000000000000004200000000000000000000000000000000000006000000000000000000000000000000000000000000000000000058c1ce2ae92300000000000000000000000000000000000000000000000000000000000001a000000000000000000000000000000000000000000000000000000000000001c00000000000000000000000000000000000000000000000000000000000000220530c7839866ab53465b5d0dbc38ebac72b7e2a331646787a5cdd8e2fc694399e00000000000000000000000000000000000000000000000000000000000000000000000000000000000000000000000000000000000000000000000000000001000000000000000000000000c151a8a6a14a746b64c7a5dd7ad1022de3ecf4580000000000000000000000000000000000000000000000056bc75e2d631000000000000000000000000000000000000000000000000000000000000000000001000000000000000000000000000000000000000000000000000000000000002000000000000000000000000000000000000000000000000000000000000001600000000000000000000000000000000000000000000000000000000000000020000000000000000000000000000000000000000000000000000000000000008000000000000000000000000000000000000000000000000000000000000000c000000000000000000000000000000000000000000000000000000000000001000000000000000000000000000000000000000000000000000000000000015f90000000000000000000000000000000000000000000000000000000000000002000000000000000000000000000bb7d031fbbe133f2d12eb7f12df55ec58dbc9d00000000000000000000000000000000000000000000000000000000000000200000000000000000000000005a44dce25ab945b625e6a92f9e95beac953033df00000000000000000000000000000000000000000000000000000000000000200000000000000000000000000000000000000000000000000000000000000012",
          "blockHash": "0x9ebb79f943fe2cd1c0ea137f7ead903b0b5c4c8a832aaf5fc81b28a4b581514d",
          "blockNumber": "0x7da18c7",
          "transactionHash": "0x4cac629553b9fdfd2943a2a35592c5324124047d62c1c5fcc7a9122c341e21f5",
          "transactionIndex": "0x16",
          "logIndex": "0x7c",
          "removed": false
        }
      ],
      "logsBloom": "0x00000000000000002000100000000020000000400000000000040000000000000000000010000000002000100000000000000000000000000000000000200000000000080002000000000008000000000000000000000000000000008000000000000000060000000000000000000812000000000000000000004812000000001000000000000000000000000080000000000001002000000000010000000000020000000000000400000000000000000000000000000000000100000000100000000002000000000000000000000000000000000000000000000000000020800010000400000800001000000000000004000000000000400000000000080000",
      "type": "0x2",
      "transactionHash": "0x4cac629553b9fdfd2943a2a35592c5324124047d62c1c5fcc7a9122c341e21f5",
      "transactionIndex": "0x16",
      "blockHash": "0x9ebb79f943fe2cd1c0ea137f7ead903b0b5c4c8a832aaf5fc81b28a4b581514d",
      "blockNumber": "0x7da18c7",
      "gasUsed": "0x30581",
      "effectiveGasPrice": "0x590",
      "from": "0x94aba23b9bbfe7bb62a9eb8b1215d72b5f6f33a1",
      "to": "0x3206695cae29952f4b0c22a169725a865bc8ce0f",
      "contractAddress": null,
      "l1BaseFeeScalar": "0x146b",
      "l1BlobBaseFee": "0x14",
      "l1BlobBaseFeeScalar": "0xf79c5",
      "l1Fee": "0x2aee56a2d",
      "l1GasPrice": "0x2d700d50",
      "l1GasUsed": "0xb4c"
    }
  ],
  "libraries": [],
  "pending": [],
  "returns": {},
  "timestamp": 1739066150,
  "chain": 10,
  "commit": "5626a86"
}