{
  "transactions": [
    {
      "hash": "0x4dee54b8f63212d40600d03113b960467a1d2b2845067f836b399ec88aeeea50",
      "transactionType": "CALL",
      "contractName": null,
      "contractAddress": "0x52cd6fae0a199519c0816c1e49ff49c6a4b70081",
      "function": "applyChainUpdates(uint64[],(uint64,bytes[],bytes,(bool,uint128,uint128),(bool,uint128,uint128))[])",
      "arguments": [
        "[15971525489660198786]",
        "[(15971525489660198786, [0x0000000000000000000000006bb845773744bfecfa8e87162ecd11e50cb936ad], 0x000000000000000000000000ae32000920615381e168f516ece68da74cb6dc33, (false, 0, 0), (false, 0, 0))]"
      ],
      "transaction": {
        "from": "0x94aba23b9bbfe7bb62a9eb8b1215d72b5f6f33a1",
        "to": "0x52cd6fae0a199519c0816c1e49ff49c6a4b70081",
        "gas": "0x47b7a",
        "value": "0x0",
        "input": "0xe8a1da17000000000000000000000000000000000000000000000000000000000000004000000000000000000000000000000000000000000000000000000000000000800000000000000000000000000000000000000000000000000000000000000001000000000000000000000000000000000000000000000000dda641cfe44aff8200000000000000000000000000000000000000000000000000000000000000010000000000000000000000000000000000000000000000000000000000000020000000000000000000000000000000000000000000000000dda641cfe44aff82000000000000000000000000000000000000000000000000000000000000012000000000000000000000000000000000000000000000000000000000000001a00000000000000000000000000000000000000000000000000000000000000000000000000000000000000000000000000000000000000000000000000000000000000000000000000000000000000000000000000000000000000000000000000000000000000000000000000000000000000000000000000000000000000000000000000000000000000000000000000000000000000000000000000000000000000000000000000000000000000000000000000000000000000000000000000000000000000000000000000000000000000000000000000000000000000001000000000000000000000000000000000000000000000000000000000000002000000000000000000000000000000000000000000000000000000000000000200000000000000000000000006bb845773744bfecfa8e87162ecd11e50cb936ad0000000000000000000000000000000000000000000000000000000000000020000000000000000000000000ae32000920615381e168f516ece68da74cb6dc33",
        "nonce": "0x92",
        "chainId": "0xa"
      },
      "additionalContracts": [],
      "isFixedGasLimit": false
    }
  ],
  "receipts": [
    {
      "status": "0x1",
      "cumulativeGasUsed": "0x6566c5",
      "logs": [
        {
          "address": "0x52cd6fae0a199519c0816c1e49ff49c6a4b70081",
          "topics": [
            "0x5204aec90a3c794d8e90fded8b46ae9c7c552803e7e832e0c1d358396d859916"
          ],
          "data": "0x000000000000000000000000000000000000000000000000dda641cfe44aff82",
          "blockHash": "0xaa208f823667550fe3028679bdafbd497af70eefc17571cf06b6ea48c84b87db",
          "blockNumber": "0x7dde7e1",
          "transactionHash": "0x4dee54b8f63212d40600d03113b960467a1d2b2845067f836b399ec88aeeea50",
          "transactionIndex": "0xf",
          "logIndex": "0x1e",
          "removed": false
        },
        {
          "address": "0x52cd6fae0a199519c0816c1e49ff49c6a4b70081",
          "topics": [
            "0x7d628c9a1796743d365ab521a8b2a4686e419b3269919dc9145ea2ce853b54ea",
            "0x000000000000000000000000000000000000000000000000dda641cfe44aff82"
          ],
          "data": "0x000000000000000000000000000000000000000000000000000000000000002000000000000000000000000000000000000000000000000000000000000000200000000000000000000000006bb845773744bfecfa8e87162ecd11e50cb936ad",
          "blockHash": "0xaa208f823667550fe3028679bdafbd497af70eefc17571cf06b6ea48c84b87db",
          "blockNumber": "0x7dde7e1",
          "transactionHash": "0x4dee54b8f63212d40600d03113b960467a1d2b2845067f836b399ec88aeeea50",
          "transactionIndex": "0xf",
          "logIndex": "0x1f",
          "removed": false
        },
        {
          "address": "0x52cd6fae0a199519c0816c1e49ff49c6a4b70081",
          "topics": [
            "0x8d340f17e19058004c20453540862a9c62778504476f6756755cb33bcd6c38c2"
          ],
          "data": "0x000000000000000000000000000000000000000000000000dda641cfe44aff8200000000000000000000000000000000000000000000000000000000000001000000000000000000000000000000000000000000000000000000000000000000000000000000000000000000000000000000000000000000000000000000000000000000000000000000000000000000000000000000000000000000000000000000000000000000000000000000000000000000000000000000000000000000000000000000000000000000000000000000000000000000000000000000000000000000000000000000000000000000000000000000000000000000000000000000000000000000000000000000000000000000000000000000000000000020000000000000000000000000ae32000920615381e168f516ece68da74cb6dc33",
          "blockHash": "0xaa208f823667550fe3028679bdafbd497af70eefc17571cf06b6ea48c84b87db",
          "blockNumber": "0x7dde7e1",
          "transactionHash": "0x4dee54b8f63212d40600d03113b960467a1d2b2845067f836b399ec88aeeea50",
          "transactionIndex": "0xf",
          "logIndex": "0x20",
          "removed": false
        }
      ],
      "logsBloom": "0x00000000000000400000000000000000000000000000000000000000000000000000000000000000000000000000000000000000000000000004000000000004000000000004000000000000000000000000000000000000000000000000000000000000000000000000000000000000000000000000000000000000000000400000000000000000000000000000000000000000000000000000000000000040000200000000000000000000000000000000000000000400000000000000080000000040040000000000000000000000000000000000000000000000000000000000000000000000000000001000000000000000008000000100000000800000",
      "type": "0x2",
      "transactionHash": "0x4dee54b8f63212d40600d03113b960467a1d2b2845067f836b399ec88aeeea50",
      "transactionIndex": "0xf",
      "blockHash": "0xaa208f823667550fe3028679bdafbd497af70eefc17571cf06b6ea48c84b87db",
      "blockNumber": "0x7dde7e1",
      "gasUsed": "0x3109a",
      "effectiveGasPrice": "0x1c0a3",
      "from": "0x94aba23b9bbfe7bb62a9eb8b1215d72b5f6f33a1",
      "to": "0x52cd6fae0a199519c0816c1e49ff49c6a4b70081",
      "contractAddress": null,
      "l1BaseFeeScalar": "0x146b",
      "l1BlobBaseFee": "0x3b1b436",
      "l1BlobBaseFeeScalar": "0xf79c5",
      "l1Fee": "0x4c4fc8d59",
      "l1GasPrice": "0x2d96b37c",
      "l1GasUsed": "0xa18"
    }
  ],
  "libraries": [],
  "pending": [],
  "returns": {},
  "timestamp": 1739565402,
  "chain": 10,
  "commit": "783800d"
}